{
    "abi": [
        {
            "type": "constructor",
            "inputs": [
                {
                    "name": "_earnVAsset",
                    "type": "address",
                    "internalType": "address"
                },
                {
                    "name": "_initialAPY",
                    "type": "uint256",
                    "internalType": "uint256"
                }
            ],
            "stateMutability": "nonpayable"
        },
        {
            "type": "function",
            "name": "APY",
            "inputs": [],
            "outputs": [
                {
                    "name": "",
                    "type": "uint256",
                    "internalType": "uint256"
                }
            ],
            "stateMutability": "view"
        },
        {
            "type": "function",
            "name": "calculateReward",
            "inputs": [
                {
                    "name": "user",
                    "type": "address",
                    "internalType": "address"
                },
                {
                    "name": "amount",
                    "type": "uint256",
                    "internalType": "uint256"
                }
            ],
            "outputs": [
                {
                    "name": "",
                    "type": "uint256",
                    "internalType": "uint256"
                }
            ],
            "stateMutability": "view"
        },
        {
            "type": "function",
            "name": "earnVAsset",
            "inputs": [],
            "outputs": [
                {
                    "name": "",
                    "type": "address",
                    "internalType": "contract IERC20"
                }
            ],
            "stateMutability": "view"
        },
        {
            "type": "function",
            "name": "emergencyWithdraw",
            "inputs": [
                {
                    "name": "token",
                    "type": "address",
                    "internalType": "address"
                }
            ],
            "outputs": [],
            "stateMutability": "nonpayable"
        },
        {
            "type": "function",
            "name": "getStakeInfo",
            "inputs": [
                {
                    "name": "user",
                    "type": "address",
                    "internalType": "address"
                }
            ],
            "outputs": [
                {
                    "name": "amount",
                    "type": "uint256",
                    "internalType": "uint256"
                },
                {
                    "name": "startTime",
                    "type": "uint256",
                    "internalType": "uint256"
                },
                {
                    "name": "pendingReward",
                    "type": "uint256",
                    "internalType": "uint256"
                }
            ],
            "stateMutability": "view"
        },
        {
            "type": "function",
            "name": "owner",
            "inputs": [],
            "outputs": [
                {
                    "name": "",
                    "type": "address",
                    "internalType": "address"
                }
            ],
            "stateMutability": "view"
        },
        {
            "type": "function",
            "name": "pause",
            "inputs": [],
            "outputs": [],
            "stateMutability": "nonpayable"
        },
        {
            "type": "function",
            "name": "paused",
            "inputs": [],
            "outputs": [
                {
                    "name": "",
                    "type": "bool",
                    "internalType": "bool"
                }
            ],
            "stateMutability": "view"
        },
        {
            "type": "function",
            "name": "renounceOwnership",
            "inputs": [],
            "outputs": [],
            "stateMutability": "nonpayable"
        },
        {
            "type": "function",
            "name": "setAPY",
            "inputs": [
                {
                    "name": "_newAPY",
                    "type": "uint256",
                    "internalType": "uint256"
                }
            ],
            "outputs": [],
            "stateMutability": "nonpayable"
        },
        {
            "type": "function",
            "name": "stake",
            "inputs": [
                {
                    "name": "amount",
                    "type": "uint256",
                    "internalType": "uint256"
                }
            ],
            "outputs": [],
            "stateMutability": "nonpayable"
        },
        {
            "type": "function",
            "name": "stakes",
            "inputs": [
                {
                    "name": "",
                    "type": "address",
                    "internalType": "address"
                }
            ],
            "outputs": [
                {
                    "name": "amount",
                    "type": "uint256",
                    "internalType": "uint256"
                },
                {
                    "name": "startTime",
                    "type": "uint256",
                    "internalType": "uint256"
                }
            ],
            "stateMutability": "view"
        },
        {
            "type": "function",
            "name": "totalStaked",
            "inputs": [],
            "outputs": [
                {
                    "name": "",
                    "type": "uint256",
                    "internalType": "uint256"
                }
            ],
            "stateMutability": "view"
        },
        {
            "type": "function",
            "name": "transferOwnership",
            "inputs": [
                {
                    "name": "newOwner",
                    "type": "address",
                    "internalType": "address"
                }
            ],
            "outputs": [],
            "stateMutability": "nonpayable"
        },
        {
            "type": "function",
            "name": "unpause",
            "inputs": [],
            "outputs": [],
            "stateMutability": "nonpayable"
        },
        {
            "type": "function",
            "name": "unstake",
            "inputs": [
                {
                    "name": "amount",
                    "type": "uint256",
                    "internalType": "uint256"
                }
            ],
            "outputs": [],
            "stateMutability": "nonpayable"
        },
        {
            "type": "event",
            "name": "APYUpdated",
            "inputs": [
                {
                    "name": "newAPY",
                    "type": "uint256",
                    "indexed": false,
                    "internalType": "uint256"
                }
            ],
            "anonymous": false
        },
        {
            "type": "event",
            "name": "OwnershipTransferred",
            "inputs": [
                {
                    "name": "previousOwner",
                    "type": "address",
                    "indexed": true,
                    "internalType": "address"
                },
                {
                    "name": "newOwner",
                    "type": "address",
                    "indexed": true,
                    "internalType": "address"
                }
            ],
            "anonymous": false
        },
        {
            "type": "event",
            "name": "Paused",
            "inputs": [
                {
                    "name": "account",
                    "type": "address",
                    "indexed": false,
                    "internalType": "address"
                }
            ],
            "anonymous": false
        },
        {
            "type": "event",
            "name": "Staked",
            "inputs": [
                {
                    "name": "user",
                    "type": "address",
                    "indexed": true,
                    "internalType": "address"
                },
                {
                    "name": "amount",
                    "type": "uint256",
                    "indexed": false,
                    "internalType": "uint256"
                }
            ],
            "anonymous": false
        },
        {
            "type": "event",
            "name": "Unpaused",
            "inputs": [
                {
                    "name": "account",
                    "type": "address",
                    "indexed": false,
                    "internalType": "address"
                }
            ],
            "anonymous": false
        },
        {
            "type": "event",
            "name": "Unstaked",
            "inputs": [
                {
                    "name": "user",
                    "type": "address",
                    "indexed": true,
                    "internalType": "address"
                },
                {
                    "name": "amount",
                    "type": "uint256",
                    "indexed": false,
                    "internalType": "uint256"
                },
                {
                    "name": "reward",
                    "type": "uint256",
                    "indexed": false,
                    "internalType": "uint256"
                }
            ],
            "anonymous": false
        },
        {
            "type": "error",
            "name": "EnforcedPause",
            "inputs": []
        },
        {
            "type": "error",
            "name": "ExpectedPause",
            "inputs": []
        },
        {
            "type": "error",
            "name": "OwnableInvalidOwner",
            "inputs": [
                {
                    "name": "owner",
                    "type": "address",
                    "internalType": "address"
                }
            ]
        },
        {
            "type": "error",
            "name": "OwnableUnauthorizedAccount",
            "inputs": [
                {
                    "name": "account",
                    "type": "address",
                    "internalType": "address"
                }
            ]
        },
        {
            "type": "error",
            "name": "ReentrancyGuardReentrantCall",
            "inputs": []
        },
        {
            "type": "error",
            "name": "SafeERC20FailedOperation",
            "inputs": [
                {
                    "name": "token",
                    "type": "address",
                    "internalType": "address"
                }
            ]
        }
    ],
    "bytecode": {
        "object": "0x608060405234801561001057600080fd5b50604051610c24380380610c2483398101604081905261002f916100e1565b338061005557604051631e4fbdf760e01b81526000600482015260240160405180910390fd5b61005e81610091565b5060018055600280546001600160a01b03909316610100026001600160a81b03199093169290921790915560035561011b565b600080546001600160a01b038381166001600160a01b0319831681178455604051919092169283917f8be0079c531659141344cd1fd0a4f28419497f9722a3daafe3b4186f6b6457e09190a35050565b600080604083850312156100f457600080fd5b82516001600160a01b038116811461010b57600080fd5b6020939093015192949293505050565b610afa8061012a6000396000f3fe608060405234801561001057600080fd5b50600436106101005760003560e01c8063715018a611610097578063a694fc3a11610066578063a694fc3a1461021a578063c34531531461022d578063ef8bd3051461025b578063f2fde38b1461026457600080fd5b8063715018a6146101f0578063817b1cd2146101f85780638456cb59146102015780638da5cb5b1461020957600080fd5b806334ee8d6b116100d357806334ee8d6b1461018f5780633f4ba83a146101bf5780635c975abb146101c75780636ff1c9bc146101dd57600080fd5b806316934fc4146101055780631852e8d91461014657806324f45e67146101675780632e17de781461017c575b600080fd5b61012c6101133660046109d1565b6004602052600090815260409020805460019091015482565b604080519283526020830191909152015b60405180910390f35b6101596101543660046109f3565b610277565b60405190815260200161013d565b61017a610175366004610a1d565b6102ec565b005b61017a61018a366004610a1d565b610375565b6002546101a79061010090046001600160a01b031681565b6040516001600160a01b03909116815260200161013d565b61017a6104ab565b60025460ff16604051901515815260200161013d565b61017a6101eb3660046109d1565b6104bd565b61017a61055c565b61015960055481565b61017a61056e565b6000546001600160a01b03166101a7565b61017a610228366004610a1d565b61057e565b61024061023b3660046109d1565b6106ac565b6040805193845260208401929092529082015260600161013d565b61015960035481565b61017a6102723660046109d1565b6106e9565b6001600160a01b0382166000908152600460205260408120805482036102a15760009150506102e6565b60008160010154426102b39190610a4c565b9050600064496cebb80082600354876102cc9190610a5f565b6102d69190610a5f565b6102e09190610a76565b93505050505b92915050565b6102f4610724565b61271081111561033a5760405162461bcd60e51b815260206004820152600c60248201526b082a0b240e8dede40d0d2ced60a31b60448201526064015b60405180910390fd5b60038190556040518181527f5d96611557274413c64267972d202ca41009c399954bcb4cbab17d2a5156fbb09060200160405180910390a150565b61037d610751565b33600090815260046020526040902080548211156103dd5760405162461bcd60e51b815260206004820152601a60248201527f496e73756666696369656e74207374616b656420616d6f756e740000000000006044820152606401610331565b60006103e93384610277565b9050828260000160008282546103ff9190610a4c565b9091555050815460000361042457336000908152600460205260408120818155600101555b82600560008282546104369190610a4c565b9091555061046290503361044a8386610a98565b60025461010090046001600160a01b0316919061077b565b604080518481526020810183905233917f7fc4727e062e336010f2c282598ef5f14facb3de68cf8195c2f23e1454b2b74e910160405180910390a250506104a860018055565b50565b6104b3610724565b6104bb6107df565b565b6104c5610724565b6040516370a0823160e01b81523060048201526000906001600160a01b038316906370a0823190602401602060405180830381865afa15801561050c573d6000803e3d6000fd5b505050506040513d601f19601f820116820180604052508101906105309190610aab565b90506105586105476000546001600160a01b031690565b6001600160a01b038416908361077b565b5050565b610564610724565b6104bb6000610831565b610576610724565b6104bb610881565b610586610751565b61058e6108be565b600081116105de5760405162461bcd60e51b815260206004820152601d60248201527f416d6f756e74206d7573742062652067726561746572207468616e20300000006044820152606401610331565b336000908152600460205260409020541561060c573360009081526004602052604090205461060c90610375565b6002546106299061010090046001600160a01b03163330846108e2565b6040805180820182528281524260208083019182523360009081526004909152928320915182555160019091015560058054839290610669908490610a98565b909155505060405181815233907f9e71bc8eea02a63969f509818f2dafb9254532904319f9dbda79b67bd34a5f3d9060200160405180910390a26104a860018055565b6001600160a01b0381166000908152600460205260408120805460018201548392839290916106db8783610277565b935093509350509193909250565b6106f1610724565b6001600160a01b03811661071b57604051631e4fbdf760e01b815260006004820152602401610331565b6104a881610831565b6000546001600160a01b031633146104bb5760405163118cdaa760e01b8152336004820152602401610331565b60026001540361077457604051633ee5aeb560e01b815260040160405180910390fd5b6002600155565b6040516001600160a01b038381166024830152604482018390526107da91859182169063a9059cbb906064015b604051602081830303815290604052915060e01b6020820180516001600160e01b038381831617835250505050610921565b505050565b6107e7610992565b6002805460ff191690557f5db9ee0a495bf2e6ff9c91a7834c1ba4fdd244a5e8aa4e537bd38aeae4b073aa335b6040516001600160a01b03909116815260200160405180910390a1565b600080546001600160a01b038381166001600160a01b0319831681178455604051919092169283917f8be0079c531659141344cd1fd0a4f28419497f9722a3daafe3b4186f6b6457e09190a35050565b6108896108be565b6002805460ff191660011790557f62e78cea01bee320cd4e420270b5ea74000d11b0c9f74754ebdbfc544b05a2586108143390565b60025460ff16156104bb5760405163d93c066560e01b815260040160405180910390fd5b6040516001600160a01b03848116602483015283811660448301526064820183905261091b9186918216906323b872dd906084016107a8565b50505050565b600080602060008451602086016000885af180610944576040513d6000823e3d81fd5b50506000513d9150811561095c578060011415610969565b6001600160a01b0384163b155b1561091b57604051635274afe760e01b81526001600160a01b0385166004820152602401610331565b60025460ff166104bb57604051638dfc202b60e01b815260040160405180910390fd5b80356001600160a01b03811681146109cc57600080fd5b919050565b6000602082840312156109e357600080fd5b6109ec826109b5565b9392505050565b60008060408385031215610a0657600080fd5b610a0f836109b5565b946020939093013593505050565b600060208284031215610a2f57600080fd5b5035919050565b634e487b7160e01b600052601160045260246000fd5b818103818111156102e6576102e6610a36565b80820281158282048414176102e6576102e6610a36565b600082610a9357634e487b7160e01b600052601260045260246000fd5b500490565b808201808211156102e6576102e6610a36565b600060208284031215610abd57600080fd5b505191905056fea2646970667358221220bc39a2dbd985c1b99af370ae7c6e77da1be4ee9f9aab018f4dd0fd730c4e4e5464736f6c63430008180033",
        "linkReferences": {}
    },
    "methodIdentifiers": {
        "APY()": "ef8bd305",
        "calculateReward(address,uint256)": "1852e8d9",
        "earnVAsset()": "34ee8d6b",
        "emergencyWithdraw(address)": "6ff1c9bc",
        "getStakeInfo(address)": "c3453153",
        "owner()": "8da5cb5b",
        "pause()": "8456cb59",
        "paused()": "5c975abb",
        "renounceOwnership()": "715018a6",
        "setAPY(uint256)": "24f45e67",
        "stake(uint256)": "a694fc3a",
        "stakes(address)": "16934fc4",
        "totalStaked()": "817b1cd2",
        "transferOwnership(address)": "f2fde38b",
        "unpause()": "3f4ba83a",
        "unstake(uint256)": "2e17de78"
    },
    "id": 41
}