{
    "abi": [
        {
            "type": "constructor",
            "inputs": [
                {
                    "name": "_projectToken",
                    "type": "address",
                    "internalType": "address"
                },
                {
                    "name": "_platformFee",
                    "type": "uint256",
                    "internalType": "uint256"
                },
                {
                    "name": "_acceptedVTokens",
                    "type": "address[]",
                    "internalType": "address[]"
                }
            ],
            "stateMutability": "nonpayable"
        },
        {
            "type": "function",
            "name": "acceptedVTokens",
            "inputs": [
                {
                    "name": "",
                    "type": "address",
                    "internalType": "address"
                }
            ],
            "outputs": [
                {
                    "name": "",
                    "type": "bool",
                    "internalType": "bool"
                }
            ],
            "stateMutability": "view"
        },
        {
            "type": "function",
            "name": "cancelOrder",
            "inputs": [
                {
                    "name": "orderId",
                    "type": "uint256",
                    "internalType": "uint256"
                }
            ],
            "outputs": [],
            "stateMutability": "nonpayable"
        },
        {
            "type": "function",
            "name": "claimCollateralAfterExpiry",
            "inputs": [
                {
                    "name": "orderId",
                    "type": "uint256",
                    "internalType": "uint256"
                }
            ],
            "outputs": [],
            "stateMutability": "nonpayable"
        },
        {
            "type": "function",
            "name": "completeTradeAsBuyer",
            "inputs": [
                {
                    "name": "orderId",
                    "type": "uint256",
                    "internalType": "uint256"
                }
            ],
            "outputs": [],
            "stateMutability": "nonpayable"
        },
        {
            "type": "function",
            "name": "completeTradeAsSeller",
            "inputs": [
                {
                    "name": "orderId",
                    "type": "uint256",
                    "internalType": "uint256"
                }
            ],
            "outputs": [],
            "stateMutability": "nonpayable"
        },
        {
            "type": "function",
            "name": "createOrder",
            "inputs": [
                {
                    "name": "creatorType",
                    "type": "uint8",
                    "internalType": "enum Market.OrderCreator"
                },
                {
                    "name": "amount",
                    "type": "uint256",
                    "internalType": "uint256"
                },
                {
                    "name": "price",
                    "type": "uint256",
                    "internalType": "uint256"
                },
                {
                    "name": "collateralToken",
                    "type": "address",
                    "internalType": "address"
                },
                {
                    "name": "collateralAmount",
                    "type": "uint256",
                    "internalType": "uint256"
                }
            ],
            "outputs": [
                {
                    "name": "",
                    "type": "uint256",
                    "internalType": "uint256"
                }
            ],
            "stateMutability": "nonpayable"
        },
        {
            "type": "function",
            "name": "joinOrder",
            "inputs": [
                {
                    "name": "orderId",
                    "type": "uint256",
                    "internalType": "uint256"
                }
            ],
            "outputs": [],
            "stateMutability": "nonpayable"
        },
        {
            "type": "function",
            "name": "orderCount",
            "inputs": [],
            "outputs": [
                {
                    "name": "",
                    "type": "uint256",
                    "internalType": "uint256"
                }
            ],
            "stateMutability": "view"
        },
        {
            "type": "function",
            "name": "orders",
            "inputs": [
                {
                    "name": "",
                    "type": "uint256",
                    "internalType": "uint256"
                }
            ],
            "outputs": [
                {
                    "name": "creatorType",
                    "type": "uint8",
                    "internalType": "enum Market.OrderCreator"
                },
                {
                    "name": "creator",
                    "type": "address",
                    "internalType": "address"
                },
                {
                    "name": "joiner",
                    "type": "address",
                    "internalType": "address"
                },
                {
                    "name": "amount",
                    "type": "uint256",
                    "internalType": "uint256"
                },
                {
                    "name": "price",
                    "type": "uint256",
                    "internalType": "uint256"
                },
                {
                    "name": "collateralToken",
                    "type": "address",
                    "internalType": "address"
                },
                {
                    "name": "collateralAmount",
                    "type": "uint256",
                    "internalType": "uint256"
                },
                {
                    "name": "settleTime",
                    "type": "uint256",
                    "internalType": "uint256"
                },
                {
                    "name": "status",
                    "type": "uint8",
                    "internalType": "enum Market.OrderStatus"
                },
                {
                    "name": "buyerWithdrawn",
                    "type": "bool",
                    "internalType": "bool"
                },
                {
                    "name": "sellerWithdrawn",
                    "type": "bool",
                    "internalType": "bool"
                }
            ],
            "stateMutability": "view"
        },
        {
            "type": "function",
            "name": "platformFee",
            "inputs": [],
            "outputs": [
                {
                    "name": "",
                    "type": "uint256",
                    "internalType": "uint256"
                }
            ],
            "stateMutability": "view"
        },
        {
            "type": "function",
            "name": "projectToken",
            "inputs": [],
            "outputs": [
                {
                    "name": "",
                    "type": "address",
                    "internalType": "contract IERC20"
                }
            ],
            "stateMutability": "view"
        },
        {
            "type": "event",
            "name": "OrderCancelled",
            "inputs": [
                {
                    "name": "orderId",
                    "type": "uint256",
                    "indexed": true,
                    "internalType": "uint256"
                }
            ],
            "anonymous": false
        },
        {
            "type": "event",
            "name": "OrderCompleted",
            "inputs": [
                {
                    "name": "orderId",
                    "type": "uint256",
                    "indexed": true,
                    "internalType": "uint256"
                }
            ],
            "anonymous": false
        },
        {
            "type": "event",
            "name": "OrderCreated",
            "inputs": [
                {
                    "name": "orderId",
                    "type": "uint256",
                    "indexed": true,
                    "internalType": "uint256"
                },
                {
                    "name": "creatorType",
                    "type": "uint8",
                    "indexed": false,
                    "internalType": "enum Market.OrderCreator"
                },
                {
                    "name": "creator",
                    "type": "address",
                    "indexed": true,
                    "internalType": "address"
                },
                {
                    "name": "amount",
                    "type": "uint256",
                    "indexed": false,
                    "internalType": "uint256"
                },
                {
                    "name": "price",
                    "type": "uint256",
                    "indexed": false,
                    "internalType": "uint256"
                },
                {
                    "name": "collateralToken",
                    "type": "address",
                    "indexed": false,
                    "internalType": "address"
                },
                {
                    "name": "collateralAmount",
                    "type": "uint256",
                    "indexed": false,
                    "internalType": "uint256"
                }
            ],
            "anonymous": false
        },
        {
            "type": "event",
            "name": "OrderSettled",
            "inputs": [
                {
                    "name": "orderId",
                    "type": "uint256",
                    "indexed": true,
                    "internalType": "uint256"
                },
                {
                    "name": "joiner",
                    "type": "address",
                    "indexed": true,
                    "internalType": "address"
                }
            ],
            "anonymous": false
        },
        {
            "type": "event",
            "name": "TokensWithdrawn",
            "inputs": [
                {
                    "name": "orderId",
                    "type": "uint256",
                    "indexed": true,
                    "internalType": "uint256"
                },
                {
                    "name": "party",
                    "type": "address",
                    "indexed": true,
                    "internalType": "address"
                }
            ],
            "anonymous": false
        },
        {
            "type": "error",
            "name": "ReentrancyGuardReentrantCall",
            "inputs": []
        }
    ],
    "bytecode": {
        "object": "0x60c06040523480156200001157600080fd5b50604051620018dd380380620018dd8339810160408190526200003491620000ea565b600160009081556001600160a01b03841660805260a08390525b8151811015620000ad576001806000848481518110620000725762000072620001dc565b6020908102919091018101516001600160a01b03168252810191909152604001600020805460ff19169115159190911790556001016200004e565b50505050620001f2565b80516001600160a01b0381168114620000cf57600080fd5b919050565b634e487b7160e01b600052604160045260246000fd5b6000806000606084860312156200010057600080fd5b6200010b84620000b7565b60208581015160408701519295509350906001600160401b03808211156200013257600080fd5b818701915087601f8301126200014757600080fd5b8151818111156200015c576200015c620000d4565b8060051b604051601f19603f83011681018181108582111715620001845762000184620000d4565b60405291825284820192508381018501918a831115620001a357600080fd5b938501935b82851015620001cc57620001bc85620000b7565b84529385019392850192620001a8565b8096505050505050509250925092565b634e487b7160e01b600052603260045260246000fd5b60805160a0516116b16200022c600039600060cf0152600081816101090152818161087101528181610caf0152610feb01526116b16000f3fe608060405234801561001057600080fd5b50600436106100a95760003560e01c80636b269f82116100715780636b269f82146101585780637cce04721461016b578063817cc79a1461017e578063a85c38ef14610191578063c494a53514610223578063fa6ac5ed1461023657600080fd5b80632453ffa8146100ae57806326232a2e146100ca5780634452ca15146100f15780634b60ce7714610104578063514fcac714610143575b600080fd5b6100b760025481565b6040519081526020015b60405180910390f35b6100b77f000000000000000000000000000000000000000000000000000000000000000081565b6100b76100ff366004611402565b610269565b61012b7f000000000000000000000000000000000000000000000000000000000000000081565b6040516001600160a01b0390911681526020016100c1565b610156610151366004611456565b610591565b005b610156610166366004611456565b610767565b610156610179366004611456565b610a1f565b61015661018c366004611456565b610e6d565b61020c61019f366004611456565b60036020819052600091825260409091208054600182015460028301549383015460048401546005850154600686015460079096015460ff808716986001600160a01b0361010098899004811699978116989197951694928083169291810482169162010000909104168b565b6040516100c19b9a99989796959493929190611499565b610156610231366004611456565b611179565b610259610244366004611522565b60016020526000908152604090205460ff1681565b60405190151581526020016100c1565b60006102736113bc565b6001600160a01b03831660009081526001602052604090205460ff166102e05760405162461bcd60e51b815260206004820152601860248201527f496e76616c696420636f6c6c61746572616c20746f6b656e000000000000000060448201526064015b60405180910390fd5b6001600160a01b0383166323b872dd333060008a60018111156103055761030561146f565b146103105785610312565b875b6040518463ffffffff1660e01b815260040161033093929190611544565b6020604051808303816000875af115801561034f573d6000803e3d6000fd5b505050506040513d601f19601f820116820180604052508101906103739190611568565b506002805460009182610385836115a0565b9190505590506040518061016001604052808860018111156103a9576103a961146f565b8152602001336001600160a01b0316815260200160006001600160a01b03168152602001878152602001868152602001856001600160a01b0316815260200184815260200160008152602001600060038111156104085761040861146f565b8152600060208083018290526040928301829052848252600390522081518154829060ff1916600183818111156104415761044161146f565b0217905550602082015181546001600160a01b03918216610100908102610100600160a81b03199092169190911783556040840151600180850180549285166001600160a01b031993841617905560608601516002860155608086015160038087019190915560a08701516004870180549190961693169290921790935560c0850151600585015560e08501516006850155908401516007840180549193909260ff199092169184908111156104f9576104f961146f565b021790555061012082015160079091018054610140909301511515620100000262ff000019921515610100029290921662ffff001990931692909217179055604051339082907fe73a1c82e8c1ff760a522f1bbbc945d9ab37edb42c3ea8b043d675e0249d23b590610574908b908b908b908b908b906115b9565b60405180910390a390506105886001600055565b95945050505050565b6105996113bc565b600081815260036020526040812090600782015460ff1660038111156105c1576105c161146f565b146106185760405162461bcd60e51b815260206004820152602160248201527f4f6e6c79206f70656e206f72646572732063616e2062652063616e63656c6c656044820152601960fa1b60648201526084016102d7565b805461010090046001600160a01b0316331461066a5760405162461bcd60e51b81526020600482015260116024820152702737ba1037b93232b91031b932b0ba37b960791b60448201526064016102d7565b600080825460ff1660018111156106835761068361146f565b14610692578160050154610698565b81600301545b600483810154845460405163a9059cbb60e01b81526101009091046001600160a01b039081169382019390935260248101849052929350169063a9059cbb906044016020604051808303816000875af11580156106f9573d6000803e3d6000fd5b505050506040513d601f19601f8201168201806040525081019061071d9190611568565b5060078201805460ff1916600317905560405183907f61b9399f2f0f32ca39ce8d7be32caed5ec22fe07a6daba3a467ed479ec60658290600090a250506107646001600055565b50565b61076f6113bc565b60008181526003602052604090206001600782015460ff1660038111156107985761079861146f565b146107b55760405162461bcd60e51b81526004016102d7906115f3565b6007810154610100900460ff16156107df5760405162461bcd60e51b81526004016102d79061161e565b600080825460ff1660018111156107f8576107f861146f565b146108105760018201546001600160a01b0316610821565b815461010090046001600160a01b03165b9050336001600160a01b038216146108675760405162461bcd60e51b81526020600482015260096024820152682737ba10313abcb2b960b91b60448201526064016102d7565b6001600160a01b037f0000000000000000000000000000000000000000000000000000000000000000166323b872dd6001845460ff1660018111156108ae576108ae61146f565b146108c65760018401546001600160a01b03166108d7565b835461010090046001600160a01b03165b8385600201546040518463ffffffff1660e01b81526004016108fb93929190611544565b6020604051808303816000875af115801561091a573d6000803e3d6000fd5b505050506040513d601f19601f8201168201806040525081019061093e9190611568565b6109825760405162461bcd60e51b8152602060048201526015602482015274151bdad95b881d1c985b9cd9995c8819985a5b1959605a1b60448201526064016102d7565b60078201805461ff001916610100179081905562010000900460ff16156109e6576007820180546002919060ff19166001835b021790555060405183907f02a7d4d9472af7118644884b9a0ee443540c0027e938dd0aa35be8ecbe946c0a90600090a25b604051339084907f0ddddc48b57dd67f8fa2ff05c78034b578c31ef5caa05b03d2ca16feadbbb98f90600090a350506107646001600055565b610a276113bc565b60008181526003602052604090206001600782015460ff166003811115610a5057610a5061146f565b14610a6d5760405162461bcd60e51b81526004016102d7906115f3565b6006810154610a7f9062015180611649565b4211610ac05760405162461bcd60e51b815260206004820152601060248201526f151a5b59481b9bdd08195b185c1cd95960821b60448201526064016102d7565b600080825460ff166001811115610ad957610ad961146f565b14610af15760018201546001600160a01b0316610b02565b815461010090046001600160a01b03165b905060006001835460ff166001811115610b1e57610b1e61146f565b14610b365760018301546001600160a01b0316610b47565b825461010090046001600160a01b03165b90506001600160a01b0382163303610c4a576007830154610100900460ff1615610b835760405162461bcd60e51b81526004016102d79061161e565b60048301546001600160a01b031663a9059cbb836000865460ff166001811115610baf57610baf61146f565b14610bbe578560050154610bc4565b85600301545b6040516001600160e01b031960e085901b1681526001600160a01b03909216600483015260248201526044016020604051808303816000875af1158015610c0f573d6000803e3d6000fd5b505050506040513d601f19601f82011682018060405250810190610c339190611568565b5060078301805461ff001916610100179055610dd0565b6001600160a01b0381163303610dd057600783015462010000900460ff1615610c855760405162461bcd60e51b81526004016102d79061161e565b6002830154604051636eb1769f60e11b81526001600160a01b0383811660048301523060248301527f0000000000000000000000000000000000000000000000000000000000000000169063dd62ed3e90604401602060405180830381865afa158015610cf6573d6000803e3d6000fd5b505050506040513d601f19601f82011682018060405250810190610d1a9190611662565b10610dd0576004830154600384015460058501546001600160a01b039092169163a9059cbb918491610d4c9190611649565b6040516001600160e01b031960e085901b1681526001600160a01b03909216600483015260248201526044016020604051808303816000875af1158015610d97573d6000803e3d6000fd5b505050506040513d601f19601f82011682018060405250810190610dbb9190611568565b5060078301805462ff00001916620100001790555b6007830154610100900460ff168015610df35750600783015462010000900460ff165b15610e335760078301805460ff1916600317905560405184907f61b9399f2f0f32ca39ce8d7be32caed5ec22fe07a6daba3a467ed479ec60658290600090a25b604051339085907f0ddddc48b57dd67f8fa2ff05c78034b578c31ef5caa05b03d2ca16feadbbb98f90600090a35050506107646001600055565b610e756113bc565b60008181526003602052604090206001600782015460ff166003811115610e9e57610e9e61146f565b14610ebb5760405162461bcd60e51b81526004016102d7906115f3565b600781015462010000900460ff1615610ee65760405162461bcd60e51b81526004016102d79061161e565b6006810154610ef89062015180611649565b421115610f375760405162461bcd60e51b815260206004820152600d60248201526c13dc99195c88195e1c1a5c9959609a1b60448201526064016102d7565b60006001825460ff166001811115610f5157610f5161146f565b14610f695760018201546001600160a01b0316610f7a565b815461010090046001600160a01b03165b9050336001600160a01b03821614610fc15760405162461bcd60e51b815260206004820152600a6024820152692737ba1039b2b63632b960b11b60448201526064016102d7565b6002820154604051636eb1769f60e11b81526001600160a01b0383811660048301523060248301527f0000000000000000000000000000000000000000000000000000000000000000169063dd62ed3e90604401602060405180830381865afa158015611032573d6000803e3d6000fd5b505050506040513d601f19601f820116820180604052508101906110569190611662565b10156110a45760405162461bcd60e51b815260206004820152601a60248201527f54726164696e6720746f6b656e206e6f7420617070726f76656400000000000060448201526064016102d7565b6004820154600383015460058401546001600160a01b039092169163a9059cbb9184916110d19190611649565b6040516001600160e01b031960e085901b1681526001600160a01b03909216600483015260248201526044016020604051808303816000875af115801561111c573d6000803e3d6000fd5b505050506040513d601f19601f820116820180604052508101906111409190611568565b5060078201805462ff00001916620100001790819055610100900460ff16156109e6576007820180546002919060ff19166001836109b5565b6111816113bc565b600081815260036020526040812090600782015460ff1660038111156111a9576111a961146f565b146111e75760405162461bcd60e51b815260206004820152600e60248201526d27b93232b9103737ba1037b832b760911b60448201526064016102d7565b805461010090046001600160a01b0316330361123d5760405162461bcd60e51b815260206004820152601560248201527421b0b73737ba103537b4b71037bbb71037b93232b960591b60448201526064016102d7565b6000815460ff1660018111156112555761125561146f565b036112db5760048082015460058301546040516323b872dd60e01b81526001600160a01b03909216926323b872dd92611292923392309201611544565b6020604051808303816000875af11580156112b1573d6000803e3d6000fd5b505050506040513d601f19601f820116820180604052508101906112d59190611568565b50611358565b60048082015460038301546040516323b872dd60e01b81526001600160a01b03909216926323b872dd92611313923392309201611544565b6020604051808303816000875af1158015611332573d6000803e3d6000fd5b505050506040513d601f19601f820116820180604052508101906113569190611568565b505b600180820180546001600160a01b0319163317905542600683015560078201805460ff191682800217905550604051339083907ff05103ae6f461efb40489cf708e251737ba1c29313b82a1e9d3a493c8067e1b190600090a3506107646001600055565b6002600054036113df57604051633ee5aeb560e01b815260040160405180910390fd5b6002600055565b80356001600160a01b03811681146113fd57600080fd5b919050565b600080600080600060a0868803121561141a57600080fd5b85356002811061142957600080fd5b94506020860135935060408601359250611445606087016113e6565b949793965091946080013592915050565b60006020828403121561146857600080fd5b5035919050565b634e487b7160e01b600052602160045260246000fd5b600281106114955761149561146f565b9052565b61016081016114a8828e611485565b6001600160a01b038c811660208401528b81166040840152606083018b9052608083018a9052881660a083015260c0820187905260e08201869052600485106114f3576114f361146f565b8461010083015283151561012083015261151261014083018415159052565b9c9b505050505050505050505050565b60006020828403121561153457600080fd5b61153d826113e6565b9392505050565b6001600160a01b039384168152919092166020820152604081019190915260600190565b60006020828403121561157a57600080fd5b8151801515811461153d57600080fd5b634e487b7160e01b600052601160045260246000fd5b6000600182016115b2576115b261158a565b5060010190565b60a081016115c78288611485565b602082019590955260408101939093526001600160a01b03919091166060830152608090910152919050565b60208082526011908201527013dc99195c881b9bdd081cd95d1d1b1959607a1b604082015260600190565b60208082526011908201527020b63932b0b23c903bb4ba34323930bbb760791b604082015260600190565b8082018082111561165c5761165c61158a565b92915050565b60006020828403121561167457600080fd5b505191905056fea26469706673582212200281a4e859efab0e1d480aff627e81ae68681737fae065e2d5bf799b389a26f664736f6c63430008180033",
        "linkReferences": {}
    },
    "methodIdentifiers": {
        "acceptedVTokens(address)": "fa6ac5ed",
        "cancelOrder(uint256)": "514fcac7",
        "claimCollateralAfterExpiry(uint256)": "7cce0472",
        "completeTradeAsBuyer(uint256)": "6b269f82",
        "completeTradeAsSeller(uint256)": "817cc79a",
        "createOrder(uint8,uint256,uint256,address,uint256)": "4452ca15",
        "joinOrder(uint256)": "c494a535",
        "orderCount()": "2453ffa8",
        "orders(uint256)": "a85c38ef",
        "platformFee()": "26232a2e",
        "projectToken()": "4b60ce77"
    },
    "id": 5
}