{
    "abi": [
        {
            "type": "constructor",
            "inputs": [
                {
                    "name": "_BifrostEarningContract",
                    "type": "address",
                    "internalType": "address"
                }
            ],
            "stateMutability": "nonpayable"
        },
        {
            "type": "function",
            "name": "createPool",
            "inputs": [
                {
                    "name": "_projectToken",
                    "type": "address",
                    "internalType": "address"
                },
                {
                    "name": "_acceptedVAsset",
                    "type": "address",
                    "internalType": "address"
                },
                {
                    "name": "_startTime",
                    "type": "uint256",
                    "internalType": "uint256"
                },
                {
                    "name": "_endTime",
                    "type": "uint256",
                    "internalType": "uint256"
                },
                {
                    "name": "_totalProjectTokens",
                    "type": "uint256",
                    "internalType": "uint256"
                },
                {
                    "name": "_maxVTokensPerStaker",
                    "type": "uint256",
                    "internalType": "uint256"
                },
                {
                    "name": "_minVTokensPerStaker",
                    "type": "uint256",
                    "internalType": "uint256"
                },
                {
                    "name": "_targetStakeAmount",
                    "type": "uint256",
                    "internalType": "uint256"
                }
            ],
            "outputs": [
                {
                    "name": "poolId",
                    "type": "uint256",
                    "internalType": "uint256"
                }
            ],
            "stateMutability": "nonpayable"
        },
        {
            "type": "function",
            "name": "getBifrostEarningContract",
            "inputs": [],
            "outputs": [
                {
                    "name": "",
                    "type": "address",
                    "internalType": "address"
                }
            ],
            "stateMutability": "view"
        },
        {
            "type": "function",
            "name": "getPoolAddress",
            "inputs": [
                {
                    "name": "poolId",
                    "type": "uint256",
                    "internalType": "uint256"
                }
            ],
            "outputs": [
                {
                    "name": "",
                    "type": "address",
                    "internalType": "address"
                }
            ],
            "stateMutability": "view"
        },
        {
            "type": "function",
            "name": "getPoolCount",
            "inputs": [],
            "outputs": [
                {
                    "name": "",
                    "type": "uint256",
                    "internalType": "uint256"
                }
            ],
            "stateMutability": "view"
        },
        {
            "type": "function",
            "name": "isPoolValid",
            "inputs": [
                {
                    "name": "poolAddress",
                    "type": "address",
                    "internalType": "address"
                }
            ],
            "outputs": [
                {
                    "name": "",
                    "type": "bool",
                    "internalType": "bool"
                }
            ],
            "stateMutability": "view"
        },
        {
            "type": "function",
            "name": "owner",
            "inputs": [],
            "outputs": [
                {
                    "name": "",
                    "type": "address",
                    "internalType": "address"
                }
            ],
            "stateMutability": "view"
        },
        {
            "type": "function",
            "name": "pools",
            "inputs": [
                {
                    "name": "",
                    "type": "uint256",
                    "internalType": "uint256"
                }
            ],
            "outputs": [
                {
                    "name": "",
                    "type": "address",
                    "internalType": "address"
                }
            ],
            "stateMutability": "view"
        },
        {
            "type": "function",
            "name": "renounceOwnership",
            "inputs": [],
            "outputs": [],
            "stateMutability": "nonpayable"
        },
        {
            "type": "function",
            "name": "setBifrostEarningContract",
            "inputs": [
                {
                    "name": "_BifrostEarningContract",
                    "type": "address",
                    "internalType": "address"
                }
            ],
            "outputs": [],
            "stateMutability": "nonpayable"
        },
        {
            "type": "function",
            "name": "transferOwnership",
            "inputs": [
                {
                    "name": "newOwner",
                    "type": "address",
                    "internalType": "address"
                }
            ],
            "outputs": [],
            "stateMutability": "nonpayable"
        },
        {
            "type": "event",
            "name": "OwnershipTransferred",
            "inputs": [
                {
                    "name": "previousOwner",
                    "type": "address",
                    "indexed": true,
                    "internalType": "address"
                },
                {
                    "name": "newOwner",
                    "type": "address",
                    "indexed": true,
                    "internalType": "address"
                }
            ],
            "anonymous": false
        },
        {
            "type": "event",
            "name": "PoolCreated",
            "inputs": [
                {
                    "name": "poolId",
                    "type": "uint256",
                    "indexed": true,
                    "internalType": "uint256"
                },
                {
                    "name": "projectOwner",
                    "type": "address",
                    "indexed": true,
                    "internalType": "address"
                },
                {
                    "name": "projectToken",
                    "type": "address",
                    "indexed": true,
                    "internalType": "address"
                },
                {
                    "name": "acceptedVAsset",
                    "type": "address",
                    "indexed": false,
                    "internalType": "address"
                },
                {
                    "name": "poolAddress",
                    "type": "address",
                    "indexed": false,
                    "internalType": "address"
                },
                {
                    "name": "startTime",
                    "type": "uint256",
                    "indexed": false,
                    "internalType": "uint256"
                },
                {
                    "name": "endTime",
                    "type": "uint256",
                    "indexed": false,
                    "internalType": "uint256"
                }
            ],
            "anonymous": false
        },
        {
            "type": "error",
            "name": "EndTimeMustBeAfterStartTime",
            "inputs": []
        },
        {
            "type": "error",
            "name": "InvalidAcceptedVAssetAddress",
            "inputs": []
        },
        {
            "type": "error",
            "name": "InvalidBifrostEarningAddress",
            "inputs": []
        },
        {
            "type": "error",
            "name": "InvalidPoolId",
            "inputs": []
        },
        {
            "type": "error",
            "name": "InvalidProjectTokenAddress",
            "inputs": []
        },
        {
            "type": "error",
            "name": "InvalidTokenAmount",
            "inputs": []
        },
        {
            "type": "error",
            "name": "OwnableInvalidOwner",
            "inputs": [
                {
                    "name": "owner",
                    "type": "address",
                    "internalType": "address"
                }
            ]
        },
        {
            "type": "error",
            "name": "OwnableUnauthorizedAccount",
            "inputs": [
                {
                    "name": "account",
                    "type": "address",
                    "internalType": "address"
                }
            ]
        },
        {
            "type": "error",
            "name": "StartTimeMustBeInFuture",
            "inputs": []
        },
        {
            "type": "error",
            "name": "TargetStakeAmountMustBeGreaterThanZero",
            "inputs": []
        }
    ],
    "bytecode": {
        "object": "0x608060405234801561001057600080fd5b50604051612e8e380380612e8e83398101604081905261002f916100ff565b338061005557604051631e4fbdf760e01b81526000600482015260240160405180910390fd5b61005e816100af565b506001600160a01b0381166100865760405163639de49560e11b815260040160405180910390fd5b60018055600280546001600160a01b0319166001600160a01b039290921691909117905561012f565b600080546001600160a01b038381166001600160a01b0319831681178455604051919092169283917f8be0079c531659141344cd1fd0a4f28419497f9722a3daafe3b4186f6b6457e09190a35050565b60006020828403121561011157600080fd5b81516001600160a01b038116811461012857600080fd5b9392505050565b612d508061013e6000396000f3fe60806040523480156200001157600080fd5b5060043610620000aa5760003560e01c80638eec5d70116200006e5780638eec5d70146200013e578063a6f1da7d1462000148578063ac4afa38146200015a578063f2fde38b1462000186578063f6c57861146200019d57600080fd5b8062a5ae2114620000af578063197c0f3d14620000e35780633890f00a1462000109578063715018a614620001225780638da5cb5b146200012c575b600080fd5b620000c6620000c036600462000629565b620001dd565b6040516001600160a01b0390911681526020015b60405180910390f35b620000fa620000f436600462000660565b62000220565b604051908152602001620000da565b620001206200011a366004620006cc565b6200038f565b005b62000120620003e3565b6000546001600160a01b0316620000c6565b620000fa620003fb565b6002546001600160a01b0316620000c6565b620000c66200016b36600462000629565b6003602052600090815260409020546001600160a01b031681565b6200012062000197366004620006cc565b62000412565b620001cc620001ae366004620006cc565b6001600160a01b031660009081526004602052604090205460ff1690565b6040519015158152602001620000da565b6000816001548110620002035760405163015f4fdd60e31b815260040160405180910390fd5b50506000908152600360205260409020546001600160a01b031690565b60006200023489898989898989896200045a565b506000338a8a600260009054906101000a90046001600160a01b03168b8b8b8b8b8b60405162000264906200061b565b6001600160a01b039a8b168152988a1660208a01529689166040890152979094166060870152608086019290925260a085015260c084015260e083015261010082019290925261012081019190915261014001604051809103906000f080158015620002d4573d6000803e3d6000fd5b50600180549192506000620002e98362000707565b90915550600081815260036020908152604080832080546001600160a01b0319166001600160a01b038781169182179092558085526004845293829020805460ff1916600117905581518e821681529283019390935281018b9052606081018a90529193508b1690339084907fd11742d80e016020b8cc622078ca3f6b03c322fdd90d5879c731727654957cc49060800160405180910390a45098975050505050505050565b620003996200059c565b6001600160a01b038116620003c15760405163639de49560e11b815260040160405180910390fd5b600280546001600160a01b0319166001600160a01b0392909216919091179055565b620003ed6200059c565b620003f96000620005cb565b565b6000600180546200040d919062000723565b905090565b6200041c6200059c565b6001600160a01b0381166200044c57604051631e4fbdf760e01b8152600060048201526024015b60405180910390fd5b6200045781620005cb565b50565b600086864282116200047f57604051639519947b60e01b815260040160405180910390fd5b818111620004a0576040516324ffda2960e11b815260040160405180910390fd5b6002548b908b906001600160a01b0316620004ce5760405163639de49560e11b815260040160405180910390fd5b6001600160a01b038216620004f65760405163d231c85560e01b815260040160405180910390fd5b6001600160a01b0381166200051e576040516329677ed160e01b815260040160405180910390fd5b8888888215806200052d575081155b8062000537575080155b806200054257508082105b156200056157604051632160733960e01b815260040160405180910390fd5b888060000362000584576040516306e5493960e21b815260040160405180910390fd5b60019850505050505050505098975050505050505050565b6000546001600160a01b03163314620003f95760405163118cdaa760e01b815233600482015260240162000443565b600080546001600160a01b038381166001600160a01b0319831681178455604051919092169283917f8be0079c531659141344cd1fd0a4f28419497f9722a3daafe3b4186f6b6457e09190a35050565b6125db806200074083390190565b6000602082840312156200063c57600080fd5b5035919050565b80356001600160a01b03811681146200065b57600080fd5b919050565b600080600080600080600080610100898b0312156200067e57600080fd5b620006898962000643565b97506200069960208a0162000643565b979a9799505050506040860135956060810135956080820135955060a0820135945060c0820135935060e0909101359150565b600060208284031215620006df57600080fd5b620006ea8262000643565b9392505050565b634e487b7160e01b600052601160045260246000fd5b6000600182016200071c576200071c620006f1565b5060010190565b81810381811115620007395762000739620006f1565b9291505056fe60a06040523480156200001157600080fd5b50604051620025db380380620025db833981016040819052620000349162000395565b896001600160a01b0381166200006457604051631e4fbdf760e01b81526000600482015260240160405180910390fd5b6200006f81620001da565b5060018055620000878989898989898989896200022a565b5060408051610160810182526001600160a01b03808d168083528c82166020808501829052928d1684860181905260608086018d9052608086018c905260a086018b905260c086018a905260e08601899052610100860188905261012086018b90526000610140909601869052600280546001600160a01b031990811690951781556003805486169094179093556004805490941690911790925560058b905560068a9055600789905560088890556009879055600a868155600b8a9055600c949094558451918201909452428152600f939092918301916200016b919062000543565b620001799061032062000558565b815260006020918201819052835460018181018655948252828220845160039092020190815591830151938201939093556040909101516002909101556001600160a01b03909716608052505050600e939093555062000572945050505050565b600080546001600160a01b038381166001600160a01b0319831681178455604051919092169283917f8be0079c531659141344cd1fd0a4f28419497f9722a3daafe3b4186f6b6457e09190a35050565b600086864282116200024f57604051639519947b60e01b815260040160405180910390fd5b81811162000270576040516324ffda2960e11b815260040160405180910390fd5b8b8b8b6001600160a01b0381166200029b5760405163639de49560e11b815260040160405180910390fd5b6001600160a01b038316620002c35760405163d231c85560e01b815260040160405180910390fd5b6001600160a01b038216620002eb576040516329677ed160e01b815260040160405180910390fd5b89898982600003620003105760405163930bd63f60e01b815260040160405180910390fd5b8115806200031c575080155b156200033b5760405163031cb01560e31b815260040160405180910390fd5b89806000036200035e576040516306e5493960e21b815260040160405180910390fd5b600199505050505050505050509998505050505050505050565b80516001600160a01b03811681146200039057600080fd5b919050565b6000806000806000806000806000806101408b8d031215620003b657600080fd5b620003c18b62000378565b9950620003d160208c0162000378565b9850620003e160408c0162000378565b9750620003f160608c0162000378565b965060808b0151955060a08b0151945060c08b0151935060e08b015192506101008b015191506101208b015190509295989b9194979a5092959850565b634e487b7160e01b600052601160045260246000fd5b600181815b80851115620004855781600019048211156200046957620004696200042e565b808516156200047757918102915b93841c939080029062000449565b509250929050565b6000826200049e575060016200053d565b81620004ad575060006200053d565b8160018114620004c65760028114620004d157620004f1565b60019150506200053d565b60ff841115620004e557620004e56200042e565b50506001821b6200053d565b5060208310610133831016604e8410600b841016171562000516575081810a6200053d565b62000522838362000444565b80600019048211156200053957620005396200042e565b0290505b92915050565b60006200055183836200048d565b9392505050565b80820281158282048414176200053d576200053d6200042e565b608051612031620005aa6000396000818161039501528181610aa201528181610b20015281816116ac015261174101526120316000f3fe608060405234801561001057600080fd5b50600436106101e55760003560e01c80635eb5e2f41161010f578063c828371e116100a2578063ee47420c11610071578063ee47420c1461043c578063f2fde38b14610444578063f628159414610457578063f73a8b5c1461048557600080fd5b8063c828371e146103f0578063d0fde3e4146103f8578063dd4785f51461040b578063e6d685951461042b57600080fd5b80639998e3d3116100de5780639998e3d3146103905780639ae52036146103b7578063a694fc3a146103ca578063c6fd23b1146103dd57600080fd5b80635eb5e2f41461035e57806365168bf71461036f578063715018a6146103775780638da5cb5b1461037f57600080fd5b8063308e401e11610187578063382acbf411610156578063382acbf414610314578063439f5ac21461031c5780634837c596146103245780634da6a5561461033557600080fd5b8063308e401e146102c657806331b7f25d146102d957806336d8722c14610304578063372500ab1461030c57600080fd5b8063178be220116101c3578063178be2201461029057806329f3f7a0146102a35780632e0f2625146102ab5780632e17de78146102b357600080fd5b806307b57eab146101ea5780630917e776146101f457806316934fc41461020b575b600080fd5b6101f261048d565b005b600d545b6040519081526020015b60405180910390f35b610259610219366004611d80565b6012602052600090815260409020805460018201546002830154600384015460048501546005860154600690960154949593949293919290919060ff1687565b604080519788526020880196909652948601939093526060850191909152608084015260a0830152151560c082015260e001610202565b6101f861029e366004611da9565b610607565b6008546101f8565b6101f8600281565b6101f26102c1366004611ddb565b61068c565b6101f86102d4366004611d80565b610cec565b6102ec6102e7366004611ddb565b610d8e565b6040516001600160a01b039091168152602001610202565b6009546101f8565b6101f2610db8565b600f546101f8565b6006546101f8565b6003546001600160a01b03166102ec565b6101f8610343366004611d80565b6001600160a01b031660009081526012602052604090205490565b6004546001600160a01b03166102ec565b6101f8610fd7565b6101f2611148565b6000546001600160a01b03166102ec565b6102ec7f000000000000000000000000000000000000000000000000000000000000000081565b6101f86103c5366004611ddb565b61115a565b6101f26103d8366004611ddb565b611210565b6101f86103eb366004611da9565b6117fb565b6005546101f8565b6101f8610406366004611df4565b6118bf565b6101f8610419366004611d80565b60116020526000908152604090205481565b6002546001600160a01b03166102ec565b600a546101f8565b6101f2610452366004611d80565b611a97565b61046a610465366004611ddb565b611ad2565b60408051938452602084019290925290820152606001610202565b6007546101f8565b610495611b05565b61049d611b32565b60065442116104f35760405162461bcd60e51b815260206004820152601860248201527f50726f6a656374206973207374696c6c206f6e676f696e67000000000000000060448201526064015b60405180910390fd5b6000600e54116105545760405162461bcd60e51b815260206004820152602660248201527f4e6f207265776172647320617661696c61626c6520666f722070726f6a6563746044820152651037bbb732b960d11b60648201526084016104ea565b600e805460009182905560035460025460405163a9059cbb60e01b81526001600160a01b0391821660048201526024810184905292939291169063a9059cbb906044016020604051808303816000875af11580156105b6573d6000803e3d6000fd5b505050506040513d601f19601f820116820180604052508101906105da9190611e16565b9050806105fa57604051633c9fd93960e21b815260040160405180910390fd5b505061060560018055565b565b6000806106166002600a611f32565b60646106228689611f3e565b61062c9190611f55565b6106369190611f3e565b905060006301e133806106498784611f3e565b6106539190611f55565b90506106616002600a611f32565b606461066d8684611f3e565b6106779190611f55565b6106819190611f3e565b979650505050505050565b610694611b32565b336000818152601260205260409020600681015460ff166106c857604051637d9a44a160e11b815260040160405180910390fd5b80548311156107285760405162461bcd60e51b815260206004820152602660248201527f43616e6e6f7420756e7374616b65206d6f7265207468616e207374616b656420604482015265185b5bdd5b9d60d21b60648201526084016104ea565b600081600101544261073a9190611f77565b9050620151808110156107605760405163b1c74adb60e01b815260040160405180910390fd5b61076983611b5c565b83600d600082825461077b9190611f77565b909155506000905061078b610fd7565b600f80549192506000916107a190600190611f77565b815481106107b1576107b1611f8a565b90600052602060002090600302016001015490508082146108b7576004840154600b80546000906107e3908490611fa0565b90915550506004840154600c80546000906107ff908490611f77565b9091555061080d9050611bda565b6040805160608101825242815260208101848152600c54928201928352600f805460018101825560009190915291517f8d1108e10bcb7c27dddfc02ed9d693a074039d026cf4ea4240b40f7d581ac802600390930292830155517f8d1108e10bcb7c27dddfc02ed9d693a074039d026cf4ea4240b40f7d581ac80382015590517f8d1108e10bcb7c27dddfc02ed9d693a074039d026cf4ea4240b40f7d581ac804909101556108f0565b6004840154600b80546000906108ce908490611fa0565b90915550506004840154600c80546000906108ea908490611f77565b90915550505b858460000160008282546109049190611f77565b90915550508354156109a057600654600090610921904290611f77565b855490915060009061094690838661093b6002600a611f32565b61029e906096611f3e565b60048701819055600f5490915061095f90600190611f77565b6005870155600b8054829190600090610979908490611f77565b9091555050600c8054829190600090610993908490611fa0565b90915550610a8c92505050565b60068401805460ff191690556000600485018190556001600160a01b038616815260116020526040812054601080549192916109de90600190611f77565b815481106109ee576109ee611f8a565b600091825260209091200154601080546001600160a01b039092169250829184908110610a1d57610a1d611f8a565b600091825260208083209190910180546001600160a01b0319166001600160a01b0394851617905591831681526011909152604090208290556010805480610a6757610a67611fb3565b600082815260209020810160001990810180546001600160a01b031916905501905550505b6040516305c2fbcf60e31b8152600481018790527f00000000000000000000000000000000000000000000000000000000000000006001600160a01b031690632e17de7890602401600060405180830381600087803b158015610aee57600080fd5b505af1158015610b02573d6000803e3d6000fd5b5050604051631852e8d960e01b8152306004820152602481018990527f00000000000000000000000000000000000000000000000000000000000000006001600160a01b03169250631852e8d99150604401602060405180830381865afa158015610b71573d6000803e3d6000fd5b505050506040513d601f19601f82011682018060405250810190610b959190611fc9565b600e6000828254610ba69190611fa0565b90915550506004546000906001600160a01b03166040516323b872dd60e01b81523060048201526001600160a01b038881166024830152604482018a905291909116906323b872dd906064016020604051808303816000875af1158015610c11573d6000803e3d6000fd5b505050506040513d601f19601f82011682018060405250810190610c359190611e16565b905080610c5557604051633c9fd93960e21b815260040160405180910390fd5b60408051888152602081018690526001600160a01b038816917f7fc4727e062e336010f2c282598ef5f14facb3de68cf8195c2f23e1454b2b74e910160405180910390a2818314610cda5760408051838152602081018590527fd2d659d197cf77652feb866d2a49b71684b0e7b0d92bde0b26163f77e2e25a2d910160405180910390a15b505050505050610ce960018055565b50565b6001600160a01b0381166000908152601260205260408120600681015460ff16610d195750600092915050565b6006546000904211610d2b5742610d2f565b6006545b90506000826001015482610d439190611f77565b90506000610d508261115a565b905080600003610d665750600095945050505050565b6000610d7c8560000154866002015486856117fb565b90508085600301546106819190611fa0565b60108181548110610d9e57600080fd5b6000918252602090912001546001600160a01b0316905081565b610dc0611b32565b336000610dcc82610cec565b905060008111610e145760405162461bcd60e51b81526020600482015260136024820152724e6f207265776172647320746f20636c61696d60681b60448201526064016104ea565b600354604051636eb1769f60e11b81523060048201526001600160a01b038481166024830152600092169063dd62ed3e90604401602060405180830381865afa158015610e65573d6000803e3d6000fd5b505050506040513d601f19601f82011682018060405250810190610e899190611fc9565b905081811015610eac5760405163bd0a4d7160e01b815260040160405180910390fd5b6001600160a01b0383166000908152601260205260408120600381018290554260029091015560078054849290610ee4908490611f77565b90915550506003546040516323b872dd60e01b81523060048201526001600160a01b0385811660248301526044820185905260009216906323b872dd906064016020604051808303816000875af1158015610f43573d6000803e3d6000fd5b505050506040513d601f19601f82011682018060405250810190610f679190611e16565b905080610f8757604051633c9fd93960e21b815260040160405180910390fd5b836001600160a01b03167ffc30cddea38e2bf4d6ea7d3f9ed3b6ad7f176419f4963bd81318067a4aee73fe84604051610fc291815260200190565b60405180910390a25050505061060560018055565b6000600d5460000361100057610fef6002600a611f32565b610ffb90610320611f3e565b905090565b600a805460009161101390600290611f32565b600d54611021906064611f3e565b61102b9190611f3e565b6110359190611f55565b90506110436002600a611f32565b61104e906064611f3e565b8110611071576110606002600a611f32565b61106b906032611f3e565b91505090565b600061107f6002600a611f32565b61108a906032611f3e565b6110966002600a611f32565b6110a290610320611f3e565b6110ac9190611f77565b905060006110bc6002600a611f32565b6110c7906064611f3e565b6110d18484611f3e565b6110db9190611f55565b90506000816110ec6002600a611f32565b6110f890610320611f3e565b6111029190611f77565b90506111106002600a611f32565b61111b906032611f3e565b811161113d5761112d6002600a611f32565b611138906032611f3e565b61113f565b805b94505050505090565b611150611b05565b6106056000611d1a565b60006201518082101561116f57506000919050565b600062093a806111816002600a611f32565b61118e6201518086611f77565b611199906032611f3e565b6111a39190611f3e565b6111ad9190611f55565b90506111bb6002600a611f32565b6111c6906032611f3e565b8111156111e7576111d96002600a611f32565b6111e4906032611f3e565b90505b806111f46002600a611f32565b6111ff906064611f3e565b6112099190611fa0565b9392505050565b611218611b32565b600554421080159061122c57506006544211155b1561124a57604051635707567760e11b815260040160405180910390fd5b6008543360008181526012602052604090205483929061126b908490611fa0565b111561128a57604051632ca1035160e21b815260040160405180910390fd5b600954336000818152601260205260409020548592906112ab908490611fa0565b10156112ca576040516350563e4760e01b815260040160405180910390fd5b600033905085600d60008282546112e19190611fa0565b90915550600090506112f1610fd7565b600f5490915060009061131b5761130a6002600a611f32565b61131690610320611f3e565b61134e565b600f805461132b90600190611f77565b8154811061133b5761133b611f8a565b9060005260206000209060030201600101545b90508082146114055761135f611bda565b6040805160608101825242815260208101848152600c54928201928352600f805460018101825560009190915291517f8d1108e10bcb7c27dddfc02ed9d693a074039d026cf4ea4240b40f7d581ac802600390930292830155517f8d1108e10bcb7c27dddfc02ed9d693a074039d026cf4ea4240b40f7d581ac80382015590517f8d1108e10bcb7c27dddfc02ed9d693a074039d026cf4ea4240b40f7d581ac804909101555b600654600090611416904290611f77565b9050600061142c8a838661093b6002600a611f32565b600b5490915081111561145257604051635cdee9e160e11b815260040160405180910390fd5b6001600160a01b03851660009081526012602052604090206006015460ff166114d657601080546001600160a01b0387166000818152601160205260408120839055600183018455929092527f1b6847dc741a1b0cd08d278845f9d819d87b734759afb55fe2de5cb82a9ae6720180546001600160a01b03191690911790556114df565b6114df85611b5c565b6040518060e001604052808b815260200142815260200142815260200160126000886001600160a01b03166001600160a01b031681526020019081526020016000206003015481526020018281526020016001600f805490506115429190611f77565b8152600160209182018190526001600160a01b0388166000908152601283526040808220855181559385015192840192909255908301516002830155606083015160038301556080830151600483015560a0830151600583015560c0909201516006909101805460ff1916911515919091179055600b80548392906115c8908490611f77565b9091555050600c80548291906000906115e2908490611fa0565b90915550506004546000906001600160a01b03166040516323b872dd60e01b81526001600160a01b038881166004830152306024830152604482018e905291909116906323b872dd906064016020604051808303816000875af115801561164d573d6000803e3d6000fd5b505050506040513d601f19601f820116820180604052508101906116719190611e16565b90508061169157604051633c9fd93960e21b815260040160405180910390fd5b6004805460405163095ea7b360e01b81526001600160a01b037f0000000000000000000000000000000000000000000000000000000000000000811693820193909352602481018e905291169063095ea7b3906044016020604051808303816000875af1158015611706573d6000803e3d6000fd5b505050506040513d601f19601f8201168201806040525081019061172a9190611e16565b5060405163534a7e1d60e11b8152600481018c90527f00000000000000000000000000000000000000000000000000000000000000006001600160a01b03169063a694fc3a90602401600060405180830381600087803b15801561178d57600080fd5b505af11580156117a1573d6000803e3d6000fd5b50505050856001600160a01b03167f9e71bc8eea02a63969f509818f2dafb9254532904319f9dbda79b67bd34a5f3d8c6040516117e091815260200190565b60405180910390a250505050505050505050610ce960018055565b600083831161181d5760405163536a71af60e01b815260040160405180910390fd5b60006118298585611f77565b9050600061183786866118bf565b905060006118476002600a611f32565b6064611853848b611f3e565b61185d9190611f55565b6118679190611f3e565b905060006301e1338061187a8584611f3e565b6118849190611f55565b90506118926002600a611f32565b606461189e8884611f3e565b6118a89190611f55565b6118b29190611f3e565b9998505050505050505050565b60008183106119055760405162461bcd60e51b8152602060048201526012602482015271496e76616c69642074696d652072616e676560701b60448201526064016104ea565b600083815b600f548110801561193f575085600f828154811061192a5761192a611f8a565b90600052602060002090600302016000015411155b15611956578061194e81611fe2565b91505061190a565b60008111611965576000611970565b611970600182611f77565b90505b84821080156119835750600f5481105b15611a4057600f54600090611999836001611fa0565b106119a457856119dc565b6119dc600f6119b4846001611fa0565b815481106119c4576119c4611f8a565b90600052602060002090600302016000015487611d6a565b905060006119ea8483611f77565b905080600f8481548110611a0057611a00611f8a565b906000526020600020906003020160010154611a1c9190611f3e565b611a269086611fa0565b94508193508280611a3690611fe2565b9350505050611973565b84821015611a77576000611a548387611f77565b905080611a5f610fd7565b611a699190611f3e565b611a739085611fa0565b9350505b611a818686611f77565b611a8b9084611f55565b93505050505b92915050565b611a9f611b05565b6001600160a01b038116611ac957604051631e4fbdf760e01b8152600060048201526024016104ea565b610ce981611d1a565b600f8181548110611ae257600080fd5b600091825260209091206003909102018054600182015460029092015490925083565b6000546001600160a01b031633146106055760405163118cdaa760e01b81523360048201526024016104ea565b600260015403611b5557604051633ee5aeb560e01b815260040160405180910390fd5b6002600155565b6001600160a01b03811660009081526012602052604081206001810154909190611b869042611f77565b90506000611b938261115a565b90508015611bd4576000611bb18460000154856002015442856117fb565b905080846003016000828254611bc79190611fa0565b9091555050426002850155505b50505050565b600c8054600091829055905b601054811015611cd957600060108281548110611c0557611c05611f8a565b60009182526020808320909101546001600160a01b03168083526012909152604090912060068101549192509060ff16611c40575050611cd1565b6004810154600b8054600090611c57908490611fa0565b9091555050600654600090611c6d904290611f77565b90506000611c79610fd7565b8354909150600090611c9390848461093b6002600a611f32565b60048501819055600f54909150611cac90600190611f77565b6005850155600c8054829190600090611cc6908490611fa0565b909155505050505050505b600101611be6565b50600c546040805183815260208101929092527fef854a7a2d485eb111d9f1647cd8d8c8da494e9b6a9b0de8b3d5b6859d1e66d6910160405180910390a150565b600080546001600160a01b038381166001600160a01b0319831681178455604051919092169283917f8be0079c531659141344cd1fd0a4f28419497f9722a3daafe3b4186f6b6457e09190a35050565b6000818310611d795781611209565b5090919050565b600060208284031215611d9257600080fd5b81356001600160a01b038116811461120957600080fd5b60008060008060808587031215611dbf57600080fd5b5050823594602084013594506040840135936060013592509050565b600060208284031215611ded57600080fd5b5035919050565b60008060408385031215611e0757600080fd5b50508035926020909101359150565b600060208284031215611e2857600080fd5b8151801515811461120957600080fd5b634e487b7160e01b600052601160045260246000fd5b600181815b80851115611e89578160001904821115611e6f57611e6f611e38565b80851615611e7c57918102915b93841c9390800290611e53565b509250929050565b600082611ea057506001611a91565b81611ead57506000611a91565b8160018114611ec35760028114611ecd57611ee9565b6001915050611a91565b60ff841115611ede57611ede611e38565b50506001821b611a91565b5060208310610133831016604e8410600b8410161715611f0c575081810a611a91565b611f168383611e4e565b8060001904821115611f2a57611f2a611e38565b029392505050565b60006112098383611e91565b8082028115828204841417611a9157611a91611e38565b600082611f7257634e487b7160e01b600052601260045260246000fd5b500490565b81810381811115611a9157611a91611e38565b634e487b7160e01b600052603260045260246000fd5b80820180821115611a9157611a91611e38565b634e487b7160e01b600052603160045260246000fd5b600060208284031215611fdb57600080fd5b5051919050565b600060018201611ff457611ff4611e38565b506001019056fea2646970667358221220f365910f8b9cc982281c2a71774126b7924d73989f0dea40d5505416a705b2f964736f6c63430008180033a2646970667358221220dbb2e3d19abd1a1fc5e1e7140a408cbdc3fb546fda5781e21b49380d6afde49e64736f6c63430008180033",
        "linkReferences": {}
    },
    "methodIdentifiers": {
        "createPool(address,address,uint256,uint256,uint256,uint256,uint256,uint256)": "197c0f3d",
        "getBifrostEarningContract()": "a6f1da7d",
        "getPoolAddress(uint256)": "00a5ae21",
        "getPoolCount()": "8eec5d70",
        "isPoolValid(address)": "f6c57861",
        "owner()": "8da5cb5b",
        "pools(uint256)": "ac4afa38",
        "renounceOwnership()": "715018a6",
        "setBifrostEarningContract(address)": "3890f00a",
        "transferOwnership(address)": "f2fde38b"
    },
    "id": 41
}