{
    "abi": [
        {
            "type": "constructor",
            "inputs": [],
            "stateMutability": "nonpayable"
        },
        {
            "type": "function",
            "name": "createPool",
            "inputs": [
                {
                    "name": "_projectToken",
                    "type": "address",
                    "internalType": "address"
                },
                {
                    "name": "_acceptedVAsset",
                    "type": "address",
                    "internalType": "address"
                },
                {
                    "name": "_startTime",
                    "type": "uint256",
                    "internalType": "uint256"
                },
                {
                    "name": "_endTime",
                    "type": "uint256",
                    "internalType": "uint256"
                },
                {
                    "name": "_totalProjectTokens",
                    "type": "uint256",
                    "internalType": "uint256"
                },
                {
                    "name": "_maxVTokensPerStaker",
                    "type": "uint256",
                    "internalType": "uint256"
                },
                {
                    "name": "_minVTokensPerStaker",
                    "type": "uint256",
                    "internalType": "uint256"
                },
                {
                    "name": "_targetStakeAmount",
                    "type": "uint256",
                    "internalType": "uint256"
                }
            ],
            "outputs": [
                {
                    "name": "poolId",
                    "type": "uint256",
                    "internalType": "uint256"
                }
            ],
            "stateMutability": "nonpayable"
        },
        {
            "type": "function",
            "name": "getPoolAddress",
            "inputs": [
                {
                    "name": "poolId",
                    "type": "uint256",
                    "internalType": "uint256"
                }
            ],
            "outputs": [
                {
                    "name": "",
                    "type": "address",
                    "internalType": "address"
                }
            ],
            "stateMutability": "view"
        },
        {
            "type": "function",
            "name": "getPoolCount",
            "inputs": [],
            "outputs": [
                {
                    "name": "",
                    "type": "uint256",
                    "internalType": "uint256"
                }
            ],
            "stateMutability": "view"
        },
        {
            "type": "function",
            "name": "isPoolValid",
            "inputs": [
                {
                    "name": "poolAddress",
                    "type": "address",
                    "internalType": "address"
                }
            ],
            "outputs": [
                {
                    "name": "",
                    "type": "bool",
                    "internalType": "bool"
                }
            ],
            "stateMutability": "view"
        },
        {
            "type": "function",
            "name": "owner",
            "inputs": [],
            "outputs": [
                {
                    "name": "",
                    "type": "address",
                    "internalType": "address"
                }
            ],
            "stateMutability": "view"
        },
        {
            "type": "function",
            "name": "pools",
            "inputs": [
                {
                    "name": "",
                    "type": "uint256",
                    "internalType": "uint256"
                }
            ],
            "outputs": [
                {
                    "name": "",
                    "type": "address",
                    "internalType": "address"
                }
            ],
            "stateMutability": "view"
        },
        {
            "type": "function",
            "name": "renounceOwnership",
            "inputs": [],
            "outputs": [],
            "stateMutability": "nonpayable"
        },
        {
            "type": "function",
            "name": "transferOwnership",
            "inputs": [
                {
                    "name": "newOwner",
                    "type": "address",
                    "internalType": "address"
                }
            ],
            "outputs": [],
            "stateMutability": "nonpayable"
        },
        {
            "type": "event",
            "name": "OwnershipTransferred",
            "inputs": [
                {
                    "name": "previousOwner",
                    "type": "address",
                    "indexed": true,
                    "internalType": "address"
                },
                {
                    "name": "newOwner",
                    "type": "address",
                    "indexed": true,
                    "internalType": "address"
                }
            ],
            "anonymous": false
        },
        {
            "type": "event",
            "name": "PoolCreated",
            "inputs": [
                {
                    "name": "poolId",
                    "type": "uint256",
                    "indexed": true,
                    "internalType": "uint256"
                },
                {
                    "name": "projectToken",
                    "type": "address",
                    "indexed": true,
                    "internalType": "address"
                },
                {
                    "name": "acceptedVAsset",
                    "type": "address",
                    "indexed": true,
                    "internalType": "address"
                },
                {
                    "name": "poolAddress",
                    "type": "address",
                    "indexed": false,
                    "internalType": "address"
                },
                {
                    "name": "projectOwner",
                    "type": "address",
                    "indexed": false,
                    "internalType": "address"
                },
                {
                    "name": "startTime",
                    "type": "uint256",
                    "indexed": false,
                    "internalType": "uint256"
                },
                {
                    "name": "endTime",
                    "type": "uint256",
                    "indexed": false,
                    "internalType": "uint256"
                }
            ],
            "anonymous": false
        },
        {
            "type": "error",
            "name": "EndTimeMustBeAfterStartTime",
            "inputs": []
        },
        {
            "type": "error",
            "name": "InvalidAcceptedVAssetAddress",
            "inputs": []
        },
        {
            "type": "error",
            "name": "InvalidPoolId",
            "inputs": []
        },
        {
            "type": "error",
            "name": "InvalidProjectTokenAddress",
            "inputs": []
        },
        {
            "type": "error",
            "name": "MaxAndMinTokensPerStakerMustBeGreaterThanZero",
            "inputs": []
        },
        {
            "type": "error",
            "name": "OwnableInvalidOwner",
            "inputs": [
                {
                    "name": "owner",
                    "type": "address",
                    "internalType": "address"
                }
            ]
        },
        {
            "type": "error",
            "name": "OwnableUnauthorizedAccount",
            "inputs": [
                {
                    "name": "account",
                    "type": "address",
                    "internalType": "address"
                }
            ]
        },
        {
            "type": "error",
            "name": "StartTimeMustBeInFuture",
            "inputs": []
        },
        {
            "type": "error",
            "name": "TargetStakeAmountMustBeGreaterThanZero",
            "inputs": []
        },
        {
            "type": "error",
            "name": "TotalProjectTokensMustBeGreaterThanZero",
            "inputs": []
        }
    ],
    "bytecode": {
        "object": "0x608060405234801561001057600080fd5b50338061003757604051631e4fbdf760e01b81526000600482015260240160405180910390fd5b6100408161004a565b506001805561009a565b600080546001600160a01b038381166001600160a01b0319831681178455604051919092169283917f8be0079c531659141344cd1fd0a4f28419497f9722a3daafe3b4186f6b6457e09190a35050565b6123db806100a96000396000f3fe60806040523480156200001157600080fd5b5060043610620000925760003560e01c80638eec5d7011620000625780638eec5d70146200010f578063ac4afa381462000119578063f2fde38b1462000145578063f6c57861146200015c57600080fd5b8062a5ae211462000097578063197c0f3d14620000cb578063715018a614620000f15780638da5cb5b14620000fd575b600080fd5b620000ae620000a836600462000557565b6200019c565b6040516001600160a01b0390911681526020015b60405180910390f35b620000e2620000dc3660046200058e565b620001df565b604051908152602001620000c2565b620000fb62000330565b005b6000546001600160a01b0316620000ae565b620000e262000348565b620000ae6200012a36600462000557565b6002602052600090815260409020546001600160a01b031681565b620000fb62000156366004620005fa565b6200035f565b6200018b6200016d366004620005fa565b6001600160a01b031660009081526003602052604090205460ff1690565b6040519015158152602001620000c2565b6000816001548110620001c25760405163015f4fdd60e31b815260040160405180910390fd5b50506000908152600260205260409020546001600160a01b031690565b6000620001f38989898989898989620003a7565b506000338a8a8a8a8a8a8a8a6040516200020d9062000549565b6001600160a01b03998a16815297891660208901529790951660408701526060860193909352608085019190915260a084015260c083015260e082015261010081019190915261012001604051809103906000f08015801562000274573d6000803e3d6000fd5b50600180549192506000620002898362000635565b90915550600081815260026020908152604080832080546001600160a01b0319166001600160a01b038781169182179092558085526003845293829020805460ff191660011790558151938452339284019290925282018b9052606082018a90529193508a8216918c169084907fd11742d80e016020b8cc622078ca3f6b03c322fdd90d5879c731727654957cc49060800160405180910390a45098975050505050505050565b6200033a620004ca565b620003466000620004f9565b565b6000600180546200035a919062000651565b905090565b62000369620004ca565b6001600160a01b0381166200039957604051631e4fbdf760e01b8152600060048201526024015b60405180910390fd5b620003a481620004f9565b50565b60008686428211620003cc57604051639519947b60e01b815260040160405180910390fd5b818111620003ed576040516324ffda2960e11b815260040160405180910390fd5b8a8a6001600160a01b038216620004175760405163d231c85560e01b815260040160405180910390fd5b6001600160a01b0381166200043f576040516329677ed160e01b815260040160405180910390fd5b88888882600003620004645760405163930bd63f60e01b815260040160405180910390fd5b81158062000470575080155b156200048f5760405163031cb01560e31b815260040160405180910390fd5b8880600003620004b2576040516306e5493960e21b815260040160405180910390fd5b60019850505050505050505098975050505050505050565b6000546001600160a01b03163314620003465760405163118cdaa760e01b815233600482015260240162000390565b600080546001600160a01b038381166001600160a01b0319831681178455604051919092169283917f8be0079c531659141344cd1fd0a4f28419497f9722a3daafe3b4186f6b6457e09190a35050565b611d38806200066e83390190565b6000602082840312156200056a57600080fd5b5035919050565b80356001600160a01b03811681146200058957600080fd5b919050565b600080600080600080600080610100898b031215620005ac57600080fd5b620005b78962000571565b9750620005c760208a0162000571565b979a9799505050506040860135956060810135956080820135955060a0820135945060c0820135935060e0909101359150565b6000602082840312156200060d57600080fd5b620006188262000571565b9392505050565b634e487b7160e01b600052601160045260246000fd5b6000600182016200064a576200064a6200061f565b5060010190565b818103818111156200066757620006676200061f565b9291505056fe60806040523480156200001157600080fd5b5060405162001d3838038062001d38833981016040819052620000349162000376565b886001600160a01b0381166200006457604051631e4fbdf760e01b81526000600482015260240160405180910390fd5b6200006f81620001e6565b506001805562000086888888888888888862000236565b5060408051610160810182526001600160a01b039a8b16808252998b16602080830182905299909b1681830181905260608083018a90526080830189905260a0830188905260c0830187905260e08301869052610100830185905261012083018890526000610140909301839052600280546001600160a01b0319908116909d179055600380548d16909d178d5560048054909c16909117909a556005979097556006959095556007849055600892909255600955600a55600b55600c829055805193840181524284526103209284019283528301818152600e80546001810182559252925193027fbb7b4a454dc3493923482f07822329ed19e8244eff582cc204f8554c3620c3fd810193909355517fbb7b4a454dc3493923482f07822329ed19e8244eff582cc204f8554c3620c3fe830155517fbb7b4a454dc3493923482f07822329ed19e8244eff582cc204f8554c3620c3ff90910155620003fb565b600080546001600160a01b038381166001600160a01b0319831681178455604051919092169283917f8be0079c531659141344cd1fd0a4f28419497f9722a3daafe3b4186f6b6457e09190a35050565b600086864282116200025b57604051639519947b60e01b815260040160405180910390fd5b8181116200027c576040516324ffda2960e11b815260040160405180910390fd5b8a8a6001600160a01b038216620002a65760405163d231c85560e01b815260040160405180910390fd5b6001600160a01b038116620002ce576040516329677ed160e01b815260040160405180910390fd5b88888882600003620002f35760405163930bd63f60e01b815260040160405180910390fd5b811580620002ff575080155b156200031e5760405163031cb01560e31b815260040160405180910390fd5b888060000362000341576040516306e5493960e21b815260040160405180910390fd5b60019850505050505050505098975050505050505050565b80516001600160a01b03811681146200037157600080fd5b919050565b60008060008060008060008060006101208a8c0312156200039657600080fd5b620003a18a62000359565b9850620003b160208b0162000359565b9750620003c160408b0162000359565b965060608a0151955060808a0151945060a08a0151935060c08a0151925060e08a015191506101008a015190509295985092959850929598565b61192d806200040b6000396000f3fe608060405234801561001057600080fd5b506004361061018e5760003560e01c80635eb5e2f4116100de578063c6fd23b111610097578063dd4785f511610071578063dd4785f51461037d578063f2fde38b1461039d578063f6281594146103b0578063f73a8b5c146103de57600080fd5b8063c6fd23b11461034f578063c828371e14610362578063d0fde3e41461036a57600080fd5b80635eb5e2f4146102f757806365168bf714610308578063715018a6146103105780638da5cb5b146103185780639ae5203614610329578063a694fc3a1461033c57600080fd5b806331b7f25d1161014b578063382acbf411610125578063382acbf4146102ad578063439f5ac2146102b55780634837c596146102bd5780634da6a556146102ce57600080fd5b806331b7f25d1461027257806336d8722c1461029d578063372500ab146102a557600080fd5b80630917e7761461019357806316934fc4146101aa578063178be2201461022f57806329f3f7a0146102425780632e17de781461024a578063308e401e1461025f575b600080fd5b600d545b6040519081526020015b60405180910390f35b6101f86101b836600461176c565b6011602052600090815260409020805460018201546002830154600384015460048501546005860154600690960154949593949293919290919060ff1687565b604080519788526020880196909652948601939093526060850191909152608084015260a0830152151560c082015260e0016101a1565b61019761023d366004611795565b6103e6565b600854610197565b61025d6102583660046117c7565b61043f565b005b61019761026d36600461176c565b61097a565b6102856102803660046117c7565b610a1c565b6040516001600160a01b0390911681526020016101a1565b600954610197565b61025d610a46565b600e54610197565b600654610197565b6003546001600160a01b0316610285565b6101976102dc36600461176c565b6001600160a01b031660009081526011602052604090205490565b6004546001600160a01b0316610285565b610197610c67565b61025d610d00565b6000546001600160a01b0316610285565b6101976103373660046117c7565b610d12565b61025d61034a3660046117c7565b610d70565b61019761035d366004611795565b611218565b600554610197565b6101976103783660046117e0565b6112b0565b61019761038b36600461176c565b60106020526000908152604090205481565b61025d6103ab36600461176c565b611488565b6103c36103be3660046117c7565b6114c3565b604080519384526020840192909252908201526060016101a1565b600754610197565b60008060646103f58588611818565b6103ff919061182f565b905060006301e133806104128784611818565b61041c919061182f565b9050606461042a8583611818565b610434919061182f565b979650505050505050565b6104476114f6565b336000818152601160205260409020600681015460ff1661047b57604051637d9a44a160e11b815260040160405180910390fd5b80548311156104e05760405162461bcd60e51b815260206004820152602660248201527f43616e6e6f7420756e7374616b65206d6f7265207468616e207374616b656420604482015265185b5bdd5b9d60d21b60648201526084015b60405180910390fd5b60008160010154426104f29190611851565b9050620151808110156105185760405163b1c74adb60e01b815260040160405180910390fd5b61052183611520565b83600d60008282546105339190611851565b9091555060009050610543610c67565b600e805491925060009161055990600190611851565b8154811061056957610569611864565b906000526020600020906003020160010154905080821461066f576004840154600b805460009061059b90849061187a565b90915550506004840154600c80546000906105b7908490611851565b909155506105c5905061159e565b6040805160608101825242815260208101848152600c54928201928352600e805460018101825560009190915291517fbb7b4a454dc3493923482f07822329ed19e8244eff582cc204f8554c3620c3fd600390930292830155517fbb7b4a454dc3493923482f07822329ed19e8244eff582cc204f8554c3620c3fe82015590517fbb7b4a454dc3493923482f07822329ed19e8244eff582cc204f8554c3620c3ff909101556106a8565b6004840154600b805460009061068690849061187a565b90915550506004840154600c80546000906106a2908490611851565b90915550505b858460000160008282546106bc9190611851565b9091555050835415610748576006546000906106d9904290611851565b905060006106ee8660000154838660966103e6565b60048701819055600e5490915061070790600190611851565b6005870155600b8054829190600090610721908490611851565b9091555050600c805482919060009061073b90849061187a565b9091555061083492505050565b60068401805460ff191690556000600485018190556001600160a01b038616815260106020526040812054600f805491929161078690600190611851565b8154811061079657610796611864565b600091825260209091200154600f80546001600160a01b0390921692508291849081106107c5576107c5611864565b600091825260208083209190910180546001600160a01b0319166001600160a01b039485161790559183168152601090915260409020829055600f80548061080f5761080f61188d565b600082815260209020810160001990810180546001600160a01b031916905501905550505b60006108486004546001600160a01b031690565b6040516323b872dd60e01b81523060048201526001600160a01b038881166024830152604482018a905291909116906323b872dd906064016020604051808303816000875af115801561089f573d6000803e3d6000fd5b505050506040513d601f19601f820116820180604052508101906108c391906118a3565b9050806108e357604051633c9fd93960e21b815260040160405180910390fd5b60408051888152602081018690526001600160a01b038816917f7fc4727e062e336010f2c282598ef5f14facb3de68cf8195c2f23e1454b2b74e910160405180910390a28183146109685760408051838152602081018590527fd2d659d197cf77652feb866d2a49b71684b0e7b0d92bde0b26163f77e2e25a2d910160405180910390a15b50505050505061097760018055565b50565b6001600160a01b0381166000908152601160205260408120600681015460ff166109a75750600092915050565b60065460009042116109b957426109bd565b6006545b905060008260010154826109d19190611851565b905060006109de82610d12565b9050806000036109f45750600095945050505050565b6000610a0a856000015486600201548685611218565b9050808560030154610434919061187a565b600f8181548110610a2c57600080fd5b6000918252602090912001546001600160a01b0316905081565b610a4e6114f6565b336000610a5a8261097a565b905060008111610aa25760405162461bcd60e51b81526020600482015260136024820152724e6f207265776172647320746f20636c61696d60681b60448201526064016104d7565b600354604051636eb1769f60e11b81523060048201526001600160a01b038481166024830152600092169063dd62ed3e90604401602060405180830381865afa158015610af3573d6000803e3d6000fd5b505050506040513d601f19601f82011682018060405250810190610b1791906118c5565b905081811015610b3a5760405163bd0a4d7160e01b815260040160405180910390fd5b6001600160a01b0383166000908152601160205260408120600381018290554260029091015560078054849290610b72908490611851565b90915550506003546040516323b872dd60e01b81523060048201526001600160a01b0385811660248301526044820185905260009216906323b872dd906064016020604051808303816000875af1158015610bd1573d6000803e3d6000fd5b505050506040513d601f19601f82011682018060405250810190610bf591906118a3565b905080610c1557604051633c9fd93960e21b815260040160405180910390fd5b836001600160a01b03167ffc30cddea38e2bf4d6ea7d3f9ed3b6ad7f176419f4963bd81318067a4aee73fe84604051610c5091815260200190565b60405180910390a250505050610c6560018055565b565b6000600d54600003610c7a575061032090565b600a54600d5460009190610c8f906064611818565b610c99919061182f565b905060648110610cab57603291505090565b6000610cba6032610320611851565b905060006064610cca8484611818565b610cd4919061182f565b90506000610ce482610320611851565b905060328111610cf5576032610cf7565b805b94505050505090565b610d086116d9565b610c656000611706565b600062015180821015610d2757506000919050565b600062093a80610d3a6201518085611851565b610d45906032611818565b610d4f919061182f565b90506032811115610d5e575060325b610d6981606461187a565b9392505050565b610d786114f6565b6005544210801590610d8c57506006544211155b15610daa57604051635707567760e11b815260040160405180910390fd5b60085433600081815260116020526040902054839290610dcb90849061187a565b11610de957604051632ca1035160e21b815260040160405180910390fd5b60095433600081815260116020526040902054859290610e0a90849061187a565b10610e28576040516350563e4760e01b815260040160405180910390fd5b336000610e33610c67565b600e8054919250600091610e4990600190611851565b81548110610e5957610e59611864565b9060005260206000209060030201600101549050808214610f2257610e7c61159e565b6040805160608101825242815260208101848152600c54928201928352600e805460018101825560009190915291517fbb7b4a454dc3493923482f07822329ed19e8244eff582cc204f8554c3620c3fd600390930292830155517fbb7b4a454dc3493923482f07822329ed19e8244eff582cc204f8554c3620c3fe82015590517fbb7b4a454dc3493923482f07822329ed19e8244eff582cc204f8554c3620c3ff909101555b600654600090610f33904290611851565b90506000610f448a838660966103e6565b600b54909150811115610f6a57604051635cdee9e160e11b815260040160405180910390fd5b6001600160a01b03851660009081526011602052604090206006015460ff16610fee57600f80546001600160a01b0387166000818152601060205260408120839055600183018455929092527f8d1108e10bcb7c27dddfc02ed9d693a074039d026cf4ea4240b40f7d581ac8020180546001600160a01b0319169091179055610ff7565b610ff785611520565b6040518060e001604052808b815260200142815260200142815260200160116000886001600160a01b03166001600160a01b031681526020019081526020016000206003015481526020018281526020016001600e8054905061105a9190611851565b8152600160209182018190526001600160a01b0388166000908152601183526040808220855181559385015192840192909255908301516002830155606083015160038301556080830151600483015560a0830151600583015560c0909201516006909101805460ff1916911515919091179055600b80548392906110e0908490611851565b9091555050600c80548291906000906110fa90849061187a565b9250508190555089600d6000828254611113919061187a565b90915550506004546000906001600160a01b03166040516323b872dd60e01b81526001600160a01b038881166004830152306024830152604482018e905291909116906323b872dd906064016020604051808303816000875af115801561117e573d6000803e3d6000fd5b505050506040513d601f19601f820116820180604052508101906111a291906118a3565b9050806111c257604051633c9fd93960e21b815260040160405180910390fd5b856001600160a01b03167f9e71bc8eea02a63969f509818f2dafb9254532904319f9dbda79b67bd34a5f3d8c6040516111fd91815260200190565b60405180910390a25050505050505050505061097760018055565b600083831161123a5760405163536a71af60e01b815260040160405180910390fd5b60006112468585611851565b9050600061125486866112b0565b905060006064611264838a611818565b61126e919061182f565b905060006301e133806112818584611818565b61128b919061182f565b905060646112998783611818565b6112a3919061182f565b9998505050505050505050565b60008183106112f65760405162461bcd60e51b8152602060048201526012602482015271496e76616c69642074696d652072616e676560701b60448201526064016104d7565b600083815b600e5481108015611330575085600e828154811061131b5761131b611864565b90600052602060002090600302016000015411155b15611347578061133f816118de565b9150506112fb565b60008111611356576000611361565b611361600182611851565b90505b84821080156113745750600e5481105b1561143157600e5460009061138a83600161187a565b1061139557856113cd565b6113cd600e6113a584600161187a565b815481106113b5576113b5611864565b90600052602060002090600302016000015487611756565b905060006113db8483611851565b905080600e84815481106113f1576113f1611864565b90600052602060002090600302016001015461140d9190611818565b611417908661187a565b94508193508280611427906118de565b9350505050611364565b848210156114685760006114458387611851565b905080611450610c67565b61145a9190611818565b611464908561187a565b9350505b6114728686611851565b61147c908461182f565b93505050505b92915050565b6114906116d9565b6001600160a01b0381166114ba57604051631e4fbdf760e01b8152600060048201526024016104d7565b61097781611706565b600e81815481106114d357600080fd5b600091825260209091206003909102018054600182015460029092015490925083565b60026001540361151957604051633ee5aeb560e01b815260040160405180910390fd5b6002600155565b6001600160a01b0381166000908152601160205260408120600181015490919061154a9042611851565b9050600061155782610d12565b90508015611598576000611575846000015485600201544285611218565b90508084600301600082825461158b919061187a565b9091555050426002850155505b50505050565b600c8054600091829055905b600f54811015611698576000600f82815481106115c9576115c9611864565b60009182526020808320909101546001600160a01b03168083526011909152604090912060068101549192509060ff16611604575050611690565b6004810154600b805460009061161b90849061187a565b9091555050600654600090611631904290611851565b9050600061163d610c67565b905060006116528460000154848460966103e6565b60048501819055600e5490915061166b90600190611851565b6005850155600c805482919060009061168590849061187a565b909155505050505050505b6001016115aa565b50600c546040805183815260208101929092527fef854a7a2d485eb111d9f1647cd8d8c8da494e9b6a9b0de8b3d5b6859d1e66d6910160405180910390a150565b6000546001600160a01b03163314610c655760405163118cdaa760e01b81523360048201526024016104d7565b600080546001600160a01b038381166001600160a01b0319831681178455604051919092169283917f8be0079c531659141344cd1fd0a4f28419497f9722a3daafe3b4186f6b6457e09190a35050565b60008183106117655781610d69565b5090919050565b60006020828403121561177e57600080fd5b81356001600160a01b0381168114610d6957600080fd5b600080600080608085870312156117ab57600080fd5b5050823594602084013594506040840135936060013592509050565b6000602082840312156117d957600080fd5b5035919050565b600080604083850312156117f357600080fd5b50508035926020909101359150565b634e487b7160e01b600052601160045260246000fd5b808202811582820484141761148257611482611802565b60008261184c57634e487b7160e01b600052601260045260246000fd5b500490565b8181038181111561148257611482611802565b634e487b7160e01b600052603260045260246000fd5b8082018082111561148257611482611802565b634e487b7160e01b600052603160045260246000fd5b6000602082840312156118b557600080fd5b81518015158114610d6957600080fd5b6000602082840312156118d757600080fd5b5051919050565b6000600182016118f0576118f0611802565b506001019056fea26469706673582212208b307902cf2767032ecc26c8359e5997044f4b0d108e95c961b86c5719d58f3c64736f6c63430008180033a264697066735822122035559b75cecadf2b129ca1182e0e5de1758f0a22b84cb446b461ee53d4df7bcc64736f6c63430008180033",
        "linkReferences": {}
    },
    "methodIdentifiers": {
        "createPool(address,address,uint256,uint256,uint256,uint256,uint256,uint256)": "197c0f3d",
        "getPoolAddress(uint256)": "00a5ae21",
        "getPoolCount()": "8eec5d70",
        "isPoolValid(address)": "f6c57861",
        "owner()": "8da5cb5b",
        "pools(uint256)": "ac4afa38",
        "renounceOwnership()": "715018a6",
        "transferOwnership(address)": "f2fde38b"
    },
    "id": 39
}