{
    "abi": [
        {
            "type": "constructor",
            "inputs": [
                {
                    "name": "_projectOwner",
                    "type": "address",
                    "internalType": "address"
                },
                {
                    "name": "_projectToken",
                    "type": "address",
                    "internalType": "address"
                },
                {
                    "name": "_acceptedVAsset",
                    "type": "address",
                    "internalType": "address"
                },
                {
                    "name": "_BifrostEarningContract",
                    "type": "address",
                    "internalType": "address"
                },
                {
                    "name": "_startTime",
                    "type": "uint256",
                    "internalType": "uint256"
                },
                {
                    "name": "_endTime",
                    "type": "uint256",
                    "internalType": "uint256"
                },
                {
                    "name": "_totalProjectTokens",
                    "type": "uint256",
                    "internalType": "uint256"
                },
                {
                    "name": "_maxVTokensPerStaker",
                    "type": "uint256",
                    "internalType": "uint256"
                },
                {
                    "name": "_minVTokensPerStaker",
                    "type": "uint256",
                    "internalType": "uint256"
                },
                {
                    "name": "_targetStakeAmount",
                    "type": "uint256",
                    "internalType": "uint256"
                }
            ],
            "stateMutability": "nonpayable"
        },
        {
            "type": "function",
            "name": "BifrostEarningContract",
            "inputs": [],
            "outputs": [
                {
                    "name": "",
                    "type": "address",
                    "internalType": "contract IBifrostEarningMock"
                }
            ],
            "stateMutability": "view"
        },
        {
            "type": "function",
            "name": "DECIMALS",
            "inputs": [],
            "outputs": [
                {
                    "name": "",
                    "type": "uint256",
                    "internalType": "uint256"
                }
            ],
            "stateMutability": "view"
        },
        {
            "type": "function",
            "name": "activeStakers",
            "inputs": [
                {
                    "name": "",
                    "type": "uint256",
                    "internalType": "uint256"
                }
            ],
            "outputs": [
                {
                    "name": "",
                    "type": "address",
                    "internalType": "address"
                }
            ],
            "stateMutability": "view"
        },
        {
            "type": "function",
            "name": "aprHistory",
            "inputs": [
                {
                    "name": "",
                    "type": "uint256",
                    "internalType": "uint256"
                }
            ],
            "outputs": [
                {
                    "name": "timestamp",
                    "type": "uint256",
                    "internalType": "uint256"
                },
                {
                    "name": "apr",
                    "type": "uint256",
                    "internalType": "uint256"
                },
                {
                    "name": "totalReservedAtSnapshot",
                    "type": "uint256",
                    "internalType": "uint256"
                }
            ],
            "stateMutability": "view"
        },
        {
            "type": "function",
            "name": "calculateCurrentAPR",
            "inputs": [],
            "outputs": [
                {
                    "name": "",
                    "type": "uint256",
                    "internalType": "uint256"
                }
            ],
            "stateMutability": "view"
        },
        {
            "type": "function",
            "name": "calculateLoyaltyMultiplier",
            "inputs": [
                {
                    "name": "stakeDuration",
                    "type": "uint256",
                    "internalType": "uint256"
                }
            ],
            "outputs": [
                {
                    "name": "",
                    "type": "uint256",
                    "internalType": "uint256"
                }
            ],
            "stateMutability": "pure"
        },
        {
            "type": "function",
            "name": "calculateProjectedRewards",
            "inputs": [
                {
                    "name": "amount",
                    "type": "uint256",
                    "internalType": "uint256"
                },
                {
                    "name": "duration",
                    "type": "uint256",
                    "internalType": "uint256"
                },
                {
                    "name": "apr",
                    "type": "uint256",
                    "internalType": "uint256"
                },
                {
                    "name": "loyaltyMultiplier",
                    "type": "uint256",
                    "internalType": "uint256"
                }
            ],
            "outputs": [
                {
                    "name": "",
                    "type": "uint256",
                    "internalType": "uint256"
                }
            ],
            "stateMutability": "pure"
        },
        {
            "type": "function",
            "name": "calculateTimeBasedReward",
            "inputs": [
                {
                    "name": "amount",
                    "type": "uint256",
                    "internalType": "uint256"
                },
                {
                    "name": "startTime",
                    "type": "uint256",
                    "internalType": "uint256"
                },
                {
                    "name": "endTime",
                    "type": "uint256",
                    "internalType": "uint256"
                },
                {
                    "name": "loyaltyMultiplier",
                    "type": "uint256",
                    "internalType": "uint256"
                }
            ],
            "outputs": [
                {
                    "name": "",
                    "type": "uint256",
                    "internalType": "uint256"
                }
            ],
            "stateMutability": "view"
        },
        {
            "type": "function",
            "name": "calculateTimeWeightedAPR",
            "inputs": [
                {
                    "name": "startTime",
                    "type": "uint256",
                    "internalType": "uint256"
                },
                {
                    "name": "endTime",
                    "type": "uint256",
                    "internalType": "uint256"
                }
            ],
            "outputs": [
                {
                    "name": "",
                    "type": "uint256",
                    "internalType": "uint256"
                }
            ],
            "stateMutability": "view"
        },
        {
            "type": "function",
            "name": "claimRewards",
            "inputs": [],
            "outputs": [],
            "stateMutability": "nonpayable"
        },
        {
            "type": "function",
            "name": "getAPRHistoryLength",
            "inputs": [],
            "outputs": [
                {
                    "name": "",
                    "type": "uint256",
                    "internalType": "uint256"
                }
            ],
            "stateMutability": "view"
        },
        {
            "type": "function",
            "name": "getAcceptedVAsset",
            "inputs": [],
            "outputs": [
                {
                    "name": "",
                    "type": "address",
                    "internalType": "address"
                }
            ],
            "stateMutability": "view"
        },
        {
            "type": "function",
            "name": "getClaimableRewards",
            "inputs": [
                {
                    "name": "investor",
                    "type": "address",
                    "internalType": "address"
                }
            ],
            "outputs": [
                {
                    "name": "",
                    "type": "uint256",
                    "internalType": "uint256"
                }
            ],
            "stateMutability": "view"
        },
        {
            "type": "function",
            "name": "getEndTime",
            "inputs": [],
            "outputs": [
                {
                    "name": "",
                    "type": "uint256",
                    "internalType": "uint256"
                }
            ],
            "stateMutability": "view"
        },
        {
            "type": "function",
            "name": "getMaxVTokensPerStaker",
            "inputs": [],
            "outputs": [
                {
                    "name": "",
                    "type": "uint256",
                    "internalType": "uint256"
                }
            ],
            "stateMutability": "view"
        },
        {
            "type": "function",
            "name": "getMinVTokensPerStaker",
            "inputs": [],
            "outputs": [
                {
                    "name": "",
                    "type": "uint256",
                    "internalType": "uint256"
                }
            ],
            "stateMutability": "view"
        },
        {
            "type": "function",
            "name": "getProjectOwner",
            "inputs": [],
            "outputs": [
                {
                    "name": "",
                    "type": "address",
                    "internalType": "address"
                }
            ],
            "stateMutability": "view"
        },
        {
            "type": "function",
            "name": "getProjectOwnerReward",
            "inputs": [],
            "outputs": [
                {
                    "name": "",
                    "type": "uint256",
                    "internalType": "uint256"
                }
            ],
            "stateMutability": "view"
        },
        {
            "type": "function",
            "name": "getProjectToken",
            "inputs": [],
            "outputs": [
                {
                    "name": "",
                    "type": "address",
                    "internalType": "address"
                }
            ],
            "stateMutability": "view"
        },
        {
            "type": "function",
            "name": "getStakedAmount",
            "inputs": [
                {
                    "name": "investor",
                    "type": "address",
                    "internalType": "address"
                }
            ],
            "outputs": [
                {
                    "name": "",
                    "type": "uint256",
                    "internalType": "uint256"
                }
            ],
            "stateMutability": "view"
        },
        {
            "type": "function",
            "name": "getStartTime",
            "inputs": [],
            "outputs": [
                {
                    "name": "",
                    "type": "uint256",
                    "internalType": "uint256"
                }
            ],
            "stateMutability": "view"
        },
        {
            "type": "function",
            "name": "getTargetStakeAmount",
            "inputs": [],
            "outputs": [
                {
                    "name": "",
                    "type": "uint256",
                    "internalType": "uint256"
                }
            ],
            "stateMutability": "view"
        },
        {
            "type": "function",
            "name": "getTotalProjectToken",
            "inputs": [],
            "outputs": [
                {
                    "name": "",
                    "type": "uint256",
                    "internalType": "uint256"
                }
            ],
            "stateMutability": "view"
        },
        {
            "type": "function",
            "name": "getTotalStaked",
            "inputs": [],
            "outputs": [
                {
                    "name": "",
                    "type": "uint256",
                    "internalType": "uint256"
                }
            ],
            "stateMutability": "view"
        },
        {
            "type": "function",
            "name": "getUserCurrentAccumulatedRewards",
            "inputs": [
                {
                    "name": "investor",
                    "type": "address",
                    "internalType": "address"
                }
            ],
            "outputs": [
                {
                    "name": "",
                    "type": "uint256",
                    "internalType": "uint256"
                }
            ],
            "stateMutability": "view"
        },
        {
            "type": "function",
            "name": "owner",
            "inputs": [],
            "outputs": [
                {
                    "name": "",
                    "type": "address",
                    "internalType": "address"
                }
            ],
            "stateMutability": "view"
        },
        {
            "type": "function",
            "name": "projectOwnerClaiming",
            "inputs": [],
            "outputs": [],
            "stateMutability": "nonpayable"
        },
        {
            "type": "function",
            "name": "renounceOwnership",
            "inputs": [],
            "outputs": [],
            "stateMutability": "nonpayable"
        },
        {
            "type": "function",
            "name": "stake",
            "inputs": [
                {
                    "name": "amount",
                    "type": "uint256",
                    "internalType": "uint256"
                }
            ],
            "outputs": [],
            "stateMutability": "nonpayable"
        },
        {
            "type": "function",
            "name": "stakerIndexes",
            "inputs": [
                {
                    "name": "",
                    "type": "address",
                    "internalType": "address"
                }
            ],
            "outputs": [
                {
                    "name": "",
                    "type": "uint256",
                    "internalType": "uint256"
                }
            ],
            "stateMutability": "view"
        },
        {
            "type": "function",
            "name": "stakes",
            "inputs": [
                {
                    "name": "",
                    "type": "address",
                    "internalType": "address"
                }
            ],
            "outputs": [
                {
                    "name": "amount",
                    "type": "uint256",
                    "internalType": "uint256"
                },
                {
                    "name": "timestamp",
                    "type": "uint256",
                    "internalType": "uint256"
                },
                {
                    "name": "lastRewardCalculation",
                    "type": "uint256",
                    "internalType": "uint256"
                },
                {
                    "name": "accumulatedRewards",
                    "type": "uint256",
                    "internalType": "uint256"
                },
                {
                    "name": "reservedRewards",
                    "type": "uint256",
                    "internalType": "uint256"
                },
                {
                    "name": "lastAprIndex",
                    "type": "uint256",
                    "internalType": "uint256"
                },
                {
                    "name": "isActive",
                    "type": "bool",
                    "internalType": "bool"
                }
            ],
            "stateMutability": "view"
        },
        {
            "type": "function",
            "name": "transferOwnership",
            "inputs": [
                {
                    "name": "newOwner",
                    "type": "address",
                    "internalType": "address"
                }
            ],
            "outputs": [],
            "stateMutability": "nonpayable"
        },
        {
            "type": "function",
            "name": "unstake",
            "inputs": [
                {
                    "name": "amount",
                    "type": "uint256",
                    "internalType": "uint256"
                }
            ],
            "outputs": [],
            "stateMutability": "nonpayable"
        },
        {
            "type": "event",
            "name": "APRUpdated",
            "inputs": [
                {
                    "name": "oldAPR",
                    "type": "uint256",
                    "indexed": false,
                    "internalType": "uint256"
                },
                {
                    "name": "newAPR",
                    "type": "uint256",
                    "indexed": false,
                    "internalType": "uint256"
                }
            ],
            "anonymous": false
        },
        {
            "type": "event",
            "name": "OwnershipTransferred",
            "inputs": [
                {
                    "name": "previousOwner",
                    "type": "address",
                    "indexed": true,
                    "internalType": "address"
                },
                {
                    "name": "newOwner",
                    "type": "address",
                    "indexed": true,
                    "internalType": "address"
                }
            ],
            "anonymous": false
        },
        {
            "type": "event",
            "name": "ReservedRewardsRecalculated",
            "inputs": [
                {
                    "name": "oldTotal",
                    "type": "uint256",
                    "indexed": false,
                    "internalType": "uint256"
                },
                {
                    "name": "newTotal",
                    "type": "uint256",
                    "indexed": false,
                    "internalType": "uint256"
                }
            ],
            "anonymous": false
        },
        {
            "type": "event",
            "name": "RewardsClaimed",
            "inputs": [
                {
                    "name": "investor",
                    "type": "address",
                    "indexed": true,
                    "internalType": "address"
                },
                {
                    "name": "amount",
                    "type": "uint256",
                    "indexed": false,
                    "internalType": "uint256"
                }
            ],
            "anonymous": false
        },
        {
            "type": "event",
            "name": "Staked",
            "inputs": [
                {
                    "name": "investor",
                    "type": "address",
                    "indexed": true,
                    "internalType": "address"
                },
                {
                    "name": "amount",
                    "type": "uint256",
                    "indexed": false,
                    "internalType": "uint256"
                }
            ],
            "anonymous": false
        },
        {
            "type": "event",
            "name": "Unstaked",
            "inputs": [
                {
                    "name": "investor",
                    "type": "address",
                    "indexed": true,
                    "internalType": "address"
                },
                {
                    "name": "amount",
                    "type": "uint256",
                    "indexed": false,
                    "internalType": "uint256"
                },
                {
                    "name": "duration",
                    "type": "uint256",
                    "indexed": false,
                    "internalType": "uint256"
                }
            ],
            "anonymous": false
        },
        {
            "type": "error",
            "name": "ERC20TransferFailed",
            "inputs": []
        },
        {
            "type": "error",
            "name": "EndTimeMustBeAfterStartTime",
            "inputs": []
        },
        {
            "type": "error",
            "name": "InsufficientRewardsAvailable",
            "inputs": []
        },
        {
            "type": "error",
            "name": "InvalidAcceptedVAssetAddress",
            "inputs": []
        },
        {
            "type": "error",
            "name": "InvalidBifrostEarningAddress",
            "inputs": []
        },
        {
            "type": "error",
            "name": "InvalidProjectTokenAddress",
            "inputs": []
        },
        {
            "type": "error",
            "name": "InvalidStakingTimeFrame",
            "inputs": []
        },
        {
            "type": "error",
            "name": "InvalidTimeRange",
            "inputs": []
        },
        {
            "type": "error",
            "name": "MaxAndMinTokensPerStakerMustBeGreaterThanZero",
            "inputs": []
        },
        {
            "type": "error",
            "name": "MinimumStakeDurationNotMet",
            "inputs": []
        },
        {
            "type": "error",
            "name": "NoActiveStake",
            "inputs": []
        },
        {
            "type": "error",
            "name": "NotEnoughERC20Allowance",
            "inputs": []
        },
        {
            "type": "error",
            "name": "OwnableInvalidOwner",
            "inputs": [
                {
                    "name": "owner",
                    "type": "address",
                    "internalType": "address"
                }
            ]
        },
        {
            "type": "error",
            "name": "OwnableUnauthorizedAccount",
            "inputs": [
                {
                    "name": "account",
                    "type": "address",
                    "internalType": "address"
                }
            ]
        },
        {
            "type": "error",
            "name": "ReentrancyGuardReentrantCall",
            "inputs": []
        },
        {
            "type": "error",
            "name": "RemainingStakeBelowMinimum",
            "inputs": []
        },
        {
            "type": "error",
            "name": "StartTimeMustBeInFuture",
            "inputs": []
        },
        {
            "type": "error",
            "name": "TargetStakeAmountMustBeGreaterThanZero",
            "inputs": []
        },
        {
            "type": "error",
            "name": "TotalProjectTokensMustBeGreaterThanZero",
            "inputs": []
        },
        {
            "type": "error",
            "name": "TotalStakeCannotExceedMaxStaking",
            "inputs": []
        },
        {
            "type": "error",
            "name": "TotalStakeCannotLowerMinStaking",
            "inputs": []
        }
    ],
    "bytecode": {
        "object": "0x60a06040523480156200001157600080fd5b50604051620026c2380380620026c2833981016040819052620000349162000397565b896001600160a01b0381166200006457604051631e4fbdf760e01b81526000600482015260240160405180910390fd5b6200006f81620001dc565b5060018055620000878989898989898989896200022c565b5060408051610160810182526001600160a01b03808d168083528c82166020808501829052928d1684860181905260608086018d9052608086018c905260a086018b905260c086018a905260e08601899052610100860188905261012086018b90526000610140909601869052600280546001600160a01b031990811690951781556003805486169094179093556004805490941690911790925560058b905560068a9055600789905560088890556009879055600a868155600b8a9055600c949094558451918201909452428152600f939092918301916200016b919062000545565b62000179906103206200055a565b815260006020918201819052835460018181018655948252828220845160039092020190815591830151938201939093556040909101516002909101556001600160a01b03909716608052505050600e849055505050600d555062000574915050565b600080546001600160a01b038381166001600160a01b0319831681178455604051919092169283917f8be0079c531659141344cd1fd0a4f28419497f9722a3daafe3b4186f6b6457e09190a35050565b600086864282116200025157604051639519947b60e01b815260040160405180910390fd5b81811162000272576040516324ffda2960e11b815260040160405180910390fd5b8b8b8b6001600160a01b0381166200029d5760405163639de49560e11b815260040160405180910390fd5b6001600160a01b038316620002c55760405163d231c85560e01b815260040160405180910390fd5b6001600160a01b038216620002ed576040516329677ed160e01b815260040160405180910390fd5b89898982600003620003125760405163930bd63f60e01b815260040160405180910390fd5b8115806200031e575080155b156200033d5760405163031cb01560e31b815260040160405180910390fd5b898060000362000360576040516306e5493960e21b815260040160405180910390fd5b600199505050505050505050509998505050505050505050565b80516001600160a01b03811681146200039257600080fd5b919050565b6000806000806000806000806000806101408b8d031215620003b857600080fd5b620003c38b6200037a565b9950620003d360208c016200037a565b9850620003e360408c016200037a565b9750620003f360608c016200037a565b965060808b0151955060a08b0151945060c08b0151935060e08b015192506101008b015191506101208b015190509295989b9194979a5092959850565b634e487b7160e01b600052601160045260246000fd5b600181815b80851115620004875781600019048211156200046b576200046b62000430565b808516156200047957918102915b93841c93908002906200044b565b509250929050565b600082620004a0575060016200053f565b81620004af575060006200053f565b8160018114620004c85760028114620004d357620004f3565b60019150506200053f565b60ff841115620004e757620004e762000430565b50506001821b6200053f565b5060208310610133831016604e8410600b841016171562000518575081810a6200053f565b62000524838362000446565b80600019048211156200053b576200053b62000430565b0290505b92915050565b60006200055383836200048f565b9392505050565b80820281158282048414176200053f576200053f62000430565b608051612116620005ac600039600081816103df01528181610af401528181610b930152818161177b015261181001526121166000f3fe608060405234801561001057600080fd5b50600436106101fb5760003560e01c806360c932781161011a578063c6fd23b1116100ad578063e6d685951161007c578063e6d6859514610475578063ee47420c14610486578063f2fde38b1461048e578063f6281594146104a1578063f73a8b5c146104cf57600080fd5b8063c6fd23b114610427578063c828371e1461043a578063d0fde3e414610442578063dd4785f51461045557600080fd5b80638da5cb5b116100e95780638da5cb5b146103c95780639998e3d3146103da5780639ae5203614610401578063a694fc3a1461041457600080fd5b806360c932781461038557806365168bf7146103b1578063715018a6146103b9578063833ea6ed146103c157600080fd5b806331b7f25d11610192578063439f5ac211610161578063439f5ac2146103325780634837c5961461033a5780634da6a5561461034b5780635eb5e2f41461037457600080fd5b806331b7f25d146102ef57806336d8722c1461031a578063372500ab14610322578063382acbf41461032a57600080fd5b806329f3f7a0116101ce57806329f3f7a0146102b95780632e0f2625146102c15780632e17de78146102c9578063308e401e146102dc57600080fd5b806307b57eab146102005780630917e7761461020a57806316934fc414610221578063178be220146102a6575b600080fd5b6102086104d7565b005b600d545b6040519081526020015b60405180910390f35b61026f61022f366004611e65565b6012602052600090815260409020805460018201546002830154600384015460048501546005860154600690960154949593949293919290919060ff1687565b604080519788526020880196909652948601939093526060850191909152608084015260a0830152151560c082015260e001610218565b61020e6102b4366004611e8e565b610651565b60085461020e565b61020e600281565b6102086102d7366004611ec0565b6106d4565b61020e6102ea366004611e65565b610da2565b6103026102fd366004611ec0565b610e44565b6040516001600160a01b039091168152602001610218565b60095461020e565b610208610e6e565b600f5461020e565b60065461020e565b6003546001600160a01b0316610302565b61020e610359366004611e65565b6001600160a01b031660009081526012602052604090205490565b6004546001600160a01b0316610302565b61020e610393366004611e65565b6001600160a01b031660009081526012602052604090206003015490565b61020e6110a8565b610208611219565b600e5461020e565b6000546001600160a01b0316610302565b6103027f000000000000000000000000000000000000000000000000000000000000000081565b61020e61040f366004611ec0565b61122b565b610208610422366004611ec0565b6112e1565b61020e610435366004611e8e565b6118ca565b60055461020e565b61020e610450366004611ed9565b61198c565b61020e610463366004611e65565b60116020526000908152604090205481565b6002546001600160a01b0316610302565b600a5461020e565b61020861049c366004611e65565b611b64565b6104b46104af366004611ec0565b611b9f565b60408051938452602084019290925290820152606001610218565b60075461020e565b6104df611bd2565b6104e7611bff565b600654421161053d5760405162461bcd60e51b815260206004820152601860248201527f50726f6a656374206973207374696c6c206f6e676f696e67000000000000000060448201526064015b60405180910390fd5b6000600e541161059e5760405162461bcd60e51b815260206004820152602660248201527f4e6f207265776172647320617661696c61626c6520666f722070726f6a6563746044820152651037bbb732b960d11b6064820152608401610534565b600e805460009182905560035460025460405163a9059cbb60e01b81526001600160a01b0391821660048201526024810184905292939291169063a9059cbb906044016020604051808303816000875af1158015610600573d6000803e3d6000fd5b505050506040513d601f19601f820116820180604052508101906106249190611efb565b90508061064457604051633c9fd93960e21b815260040160405180910390fd5b505061064f60018055565b565b6000806106606002600a612017565b61066b906064612023565b6106758588612023565b61067f919061203a565b905060006301e133806106928784612023565b61069c919061203a565b90506106aa6002600a612017565b6106b5906064612023565b6106bf8583612023565b6106c9919061203a565b979650505050505050565b6106dc611bff565b336000818152601260205260409020600681015460ff1661071057604051637d9a44a160e11b815260040160405180910390fd5b80548311156107705760405162461bcd60e51b815260206004820152602660248201527f43616e6e6f7420756e7374616b65206d6f7265207468616e207374616b656420604482015265185b5bdd5b9d60d21b6064820152608401610534565b6000816001015442610782919061205c565b9050620151808110156107a85760405163b1c74adb60e01b815260040160405180910390fd5b6107b183611c29565b83600d60008282546107c3919061205c565b90915550600090506107d36110a8565b600f80549192506000916107e99060019061205c565b815481106107f9576107f961206f565b9060005260206000209060030201600101549050808214610900576004840154600b805460009061082b908490612085565b90915550506004840154600c805460009061084790849061205c565b90915550610856905033611ca7565b6040805160608101825242815260208101848152600c54928201928352600f805460018101825560009190915291517f8d1108e10bcb7c27dddfc02ed9d693a074039d026cf4ea4240b40f7d581ac802600390930292830155517f8d1108e10bcb7c27dddfc02ed9d693a074039d026cf4ea4240b40f7d581ac80382015590517f8d1108e10bcb7c27dddfc02ed9d693a074039d026cf4ea4240b40f7d581ac80490910155610939565b6004840154600b8054600090610917908490612085565b90915550506004840154600c805460009061093390849061205c565b90915550505b8584600001600082825461094d919061205c565b9091555050600654421015610adf578354156109f35760065460009061097490429061205c565b855490915060009061099990838661098e6002600a612017565b6102b4906096612023565b60048701819055600f549091506109b29060019061205c565b6005870155600b80548291906000906109cc90849061205c565b9091555050600c80548291906000906109e6908490612085565b90915550610adf92505050565b60068401805460ff191690556000600485018190556001600160a01b03861681526011602052604081205460108054919291610a319060019061205c565b81548110610a4157610a4161206f565b600091825260209091200154601080546001600160a01b039092169250829184908110610a7057610a7061206f565b600091825260208083209190910180546001600160a01b0319166001600160a01b0394851617905591831681526011909152604090208290556010805480610aba57610aba612098565b600082815260209020810160001990810180546001600160a01b031916905501905550505b6040516364ab867560e01b81523060048201527f00000000000000000000000000000000000000000000000000000000000000006001600160a01b0316906364ab867590602401602060405180830381865afa158015610b43573d6000803e3d6000fd5b505050506040513d601f19601f82011682018060405250810190610b6791906120ae565b600e6000828254610b789190612085565b90915550506040516305c2fbcf60e31b8152600481018790527f00000000000000000000000000000000000000000000000000000000000000006001600160a01b031690632e17de7890602401600060405180830381600087803b158015610bdf57600080fd5b505af1158015610bf3573d6000803e3d6000fd5b50506004805460405163095ea7b360e01b81523092810192909252602482018a90526001600160a01b0316925063095ea7b391506044016020604051808303816000875af1158015610c49573d6000803e3d6000fd5b505050506040513d601f19601f82011682018060405250810190610c6d9190611efb565b506004805460405163a9059cbb60e01b81526001600160a01b0388811693820193909352602481018990526000929091169063a9059cbb906044016020604051808303816000875af1158015610cc7573d6000803e3d6000fd5b505050506040513d601f19601f82011682018060405250810190610ceb9190611efb565b905080610d0b57604051633c9fd93960e21b815260040160405180910390fd5b60408051888152602081018690526001600160a01b038816917f7fc4727e062e336010f2c282598ef5f14facb3de68cf8195c2f23e1454b2b74e910160405180910390a2818314610d905760408051838152602081018590527fd2d659d197cf77652feb866d2a49b71684b0e7b0d92bde0b26163f77e2e25a2d910160405180910390a15b505050505050610d9f60018055565b50565b6001600160a01b0381166000908152601260205260408120600681015460ff16610dcf5750600092915050565b6006546000904211610de15742610de5565b6006545b90506000826001015482610df9919061205c565b90506000610e068261122b565b905080600003610e1c5750600095945050505050565b6000610e328560000154866002015486856118ca565b90508085600301546106c99190612085565b60108181548110610e5457600080fd5b6000918252602090912001546001600160a01b0316905081565b610e76611bff565b336000610e8282610da2565b905060008111610eca5760405162461bcd60e51b81526020600482015260136024820152724e6f207265776172647320746f20636c61696d60681b6044820152606401610534565b6003546040516370a0823160e01b815230600482015282916001600160a01b0316906370a0823190602401602060405180830381865afa158015610f12573d6000803e3d6000fd5b505050506040513d601f19601f82011682018060405250810190610f3691906120ae565b1015610f845760405162461bcd60e51b815260206004820152601d60248201527f496e73756666696369656e7420636f6e74726163742062616c616e63650000006044820152606401610534565b6001600160a01b0382166000908152601260205260408120600381018290554260029091015560078054839290610fbc90849061205c565b909155505060035460405163a9059cbb60e01b81526001600160a01b03848116600483015260248201849052600092169063a9059cbb906044016020604051808303816000875af1158015611015573d6000803e3d6000fd5b505050506040513d601f19601f820116820180604052508101906110399190611efb565b90508061105957604051633c9fd93960e21b815260040160405180910390fd5b826001600160a01b03167ffc30cddea38e2bf4d6ea7d3f9ed3b6ad7f176419f4963bd81318067a4aee73fe8360405161109491815260200190565b60405180910390a250505061064f60018055565b6000600d546000036110d1576110c06002600a612017565b6110cc90610320612023565b905090565b600a80546000916110e490600290612017565b600d546110f2906064612023565b6110fc9190612023565b611106919061203a565b90506111146002600a612017565b61111f906064612023565b8110611142576111316002600a612017565b61113c906032612023565b91505090565b60006111506002600a612017565b61115b906032612023565b6111676002600a612017565b61117390610320612023565b61117d919061205c565b9050600061118d6002600a612017565b611198906064612023565b6111a28484612023565b6111ac919061203a565b90506000816111bd6002600a612017565b6111c990610320612023565b6111d3919061205c565b90506111e16002600a612017565b6111ec906032612023565b811161120e576111fe6002600a612017565b611209906032612023565b611210565b805b94505050505090565b611221611bd2565b61064f6000611dff565b60006201518082101561124057506000919050565b600062093a806112526002600a612017565b61125f620151808661205c565b61126a906032612023565b6112749190612023565b61127e919061203a565b905061128c6002600a612017565b611297906032612023565b8111156112b8576112aa6002600a612017565b6112b5906032612023565b90505b806112c56002600a612017565b6112d0906064612023565b6112da9190612085565b9392505050565b6112e9611bff565b6005544210806112fa575060065442115b1561131857604051635707567760e11b815260040160405180910390fd5b60085433600081815260126020526040902054839290611339908490612085565b111561135857604051632ca1035160e21b815260040160405180910390fd5b60095433600081815260126020526040902054859290611379908490612085565b1015611398576040516350563e4760e01b815260040160405180910390fd5b600033905085600d60008282546113af9190612085565b90915550600090506113bf6110a8565b600f549091506000906113e9576113d86002600a612017565b6113e490610320612023565b61141c565b600f80546113f99060019061205c565b815481106114095761140961206f565b9060005260206000209060030201600101545b90508082146114d45761142e33611ca7565b6040805160608101825242815260208101848152600c54928201928352600f805460018101825560009190915291517f8d1108e10bcb7c27dddfc02ed9d693a074039d026cf4ea4240b40f7d581ac802600390930292830155517f8d1108e10bcb7c27dddfc02ed9d693a074039d026cf4ea4240b40f7d581ac80382015590517f8d1108e10bcb7c27dddfc02ed9d693a074039d026cf4ea4240b40f7d581ac804909101555b6006546000906114e590429061205c565b905060006114fb8a838661098e6002600a612017565b600b5490915081111561152157604051635cdee9e160e11b815260040160405180910390fd5b6001600160a01b03851660009081526012602052604090206006015460ff166115a557601080546001600160a01b0387166000818152601160205260408120839055600183018455929092527f1b6847dc741a1b0cd08d278845f9d819d87b734759afb55fe2de5cb82a9ae6720180546001600160a01b03191690911790556115ae565b6115ae85611c29565b6040518060e001604052808b815260200142815260200142815260200160126000886001600160a01b03166001600160a01b031681526020019081526020016000206003015481526020018281526020016001600f80549050611611919061205c565b8152600160209182018190526001600160a01b0388166000908152601283526040808220855181559385015192840192909255908301516002830155606083015160038301556080830151600483015560a0830151600583015560c0909201516006909101805460ff1916911515919091179055600b805483929061169790849061205c565b9091555050600c80548291906000906116b1908490612085565b90915550506004546000906001600160a01b03166040516323b872dd60e01b81526001600160a01b038881166004830152306024830152604482018e905291909116906323b872dd906064016020604051808303816000875af115801561171c573d6000803e3d6000fd5b505050506040513d601f19601f820116820180604052508101906117409190611efb565b90508061176057604051633c9fd93960e21b815260040160405180910390fd5b6004805460405163095ea7b360e01b81526001600160a01b037f0000000000000000000000000000000000000000000000000000000000000000811693820193909352602481018e905291169063095ea7b3906044016020604051808303816000875af11580156117d5573d6000803e3d6000fd5b505050506040513d601f19601f820116820180604052508101906117f99190611efb565b5060405163534a7e1d60e11b8152600481018c90527f00000000000000000000000000000000000000000000000000000000000000006001600160a01b03169063a694fc3a90602401600060405180830381600087803b15801561185c57600080fd5b505af1158015611870573d6000803e3d6000fd5b50505050856001600160a01b03167f9e71bc8eea02a63969f509818f2dafb9254532904319f9dbda79b67bd34a5f3d8c6040516118af91815260200190565b60405180910390a250505050505050505050610d9f60018055565b60008383116118ec5760405163536a71af60e01b815260040160405180910390fd5b60006118f8858561205c565b90506000611906868661198c565b905060006119166002600a612017565b611921906064612023565b61192b838a612023565b611935919061203a565b905060006301e133806119488584612023565b611952919061203a565b90506119606002600a612017565b61196b906064612023565b6119758783612023565b61197f919061203a565b9998505050505050505050565b60008183106119d25760405162461bcd60e51b8152602060048201526012602482015271496e76616c69642074696d652072616e676560701b6044820152606401610534565b600083815b600f5481108015611a0c575085600f82815481106119f7576119f761206f565b90600052602060002090600302016000015411155b15611a235780611a1b816120c7565b9150506119d7565b60008111611a32576000611a3d565b611a3d60018261205c565b90505b8482108015611a505750600f5481105b15611b0d57600f54600090611a66836001612085565b10611a715785611aa9565b611aa9600f611a81846001612085565b81548110611a9157611a9161206f565b90600052602060002090600302016000015487611e4f565b90506000611ab7848361205c565b905080600f8481548110611acd57611acd61206f565b906000526020600020906003020160010154611ae99190612023565b611af39086612085565b94508193508280611b03906120c7565b9350505050611a40565b84821015611b44576000611b21838761205c565b905080611b2c6110a8565b611b369190612023565b611b409085612085565b9350505b611b4e868661205c565b611b58908461203a565b93505050505b92915050565b611b6c611bd2565b6001600160a01b038116611b9657604051631e4fbdf760e01b815260006004820152602401610534565b610d9f81611dff565b600f8181548110611baf57600080fd5b600091825260209091206003909102018054600182015460029092015490925083565b6000546001600160a01b0316331461064f5760405163118cdaa760e01b8152336004820152602401610534565b600260015403611c2257604051633ee5aeb560e01b815260040160405180910390fd5b6002600155565b6001600160a01b03811660009081526012602052604081206001810154909190611c53904261205c565b90506000611c608261122b565b90508015611ca1576000611c7e8460000154856002015442856118ca565b905080846003016000828254611c949190612085565b9091555050426002850155505b50505050565b600c8054600091829055905b601054811015611dbd57600060108281548110611cd257611cd261206f565b6000918252602090912001546001600160a01b03908116915084168103611cf95750611db5565b6001600160a01b0381166000908152601260205260409020600681015460ff16611d24575050611db5565b6004810154600b8054600090611d3b908490612085565b9091555050600654600090611d5190429061205c565b90506000611d5d6110a8565b8354909150600090611d7790848461098e6002600a612017565b60048501819055600f54909150611d909060019061205c565b6005850155600c8054829190600090611daa908490612085565b909155505050505050505b600101611cb3565b50600c546040805183815260208101929092527fef854a7a2d485eb111d9f1647cd8d8c8da494e9b6a9b0de8b3d5b6859d1e66d6910160405180910390a15050565b600080546001600160a01b038381166001600160a01b0319831681178455604051919092169283917f8be0079c531659141344cd1fd0a4f28419497f9722a3daafe3b4186f6b6457e09190a35050565b6000818310611e5e57816112da565b5090919050565b600060208284031215611e7757600080fd5b81356001600160a01b03811681146112da57600080fd5b60008060008060808587031215611ea457600080fd5b5050823594602084013594506040840135936060013592509050565b600060208284031215611ed257600080fd5b5035919050565b60008060408385031215611eec57600080fd5b50508035926020909101359150565b600060208284031215611f0d57600080fd5b815180151581146112da57600080fd5b634e487b7160e01b600052601160045260246000fd5b600181815b80851115611f6e578160001904821115611f5457611f54611f1d565b80851615611f6157918102915b93841c9390800290611f38565b509250929050565b600082611f8557506001611b5e565b81611f9257506000611b5e565b8160018114611fa85760028114611fb257611fce565b6001915050611b5e565b60ff841115611fc357611fc3611f1d565b50506001821b611b5e565b5060208310610133831016604e8410600b8410161715611ff1575081810a611b5e565b611ffb8383611f33565b806000190482111561200f5761200f611f1d565b029392505050565b60006112da8383611f76565b8082028115828204841417611b5e57611b5e611f1d565b60008261205757634e487b7160e01b600052601260045260246000fd5b500490565b81810381811115611b5e57611b5e611f1d565b634e487b7160e01b600052603260045260246000fd5b80820180821115611b5e57611b5e611f1d565b634e487b7160e01b600052603160045260246000fd5b6000602082840312156120c057600080fd5b5051919050565b6000600182016120d9576120d9611f1d565b506001019056fea2646970667358221220b1e2cf5a5118097a19d49b80bc422ab921600a9dcda0831efcfc010c8a81876464736f6c63430008180033",
        "linkReferences": {}
    },
    "methodIdentifiers": {
        "BifrostEarningContract()": "9998e3d3",
        "DECIMALS()": "2e0f2625",
        "activeStakers(uint256)": "31b7f25d",
        "aprHistory(uint256)": "f6281594",
        "calculateCurrentAPR()": "65168bf7",
        "calculateLoyaltyMultiplier(uint256)": "9ae52036",
        "calculateProjectedRewards(uint256,uint256,uint256,uint256)": "178be220",
        "calculateTimeBasedReward(uint256,uint256,uint256,uint256)": "c6fd23b1",
        "calculateTimeWeightedAPR(uint256,uint256)": "d0fde3e4",
        "claimRewards()": "372500ab",
        "getAPRHistoryLength()": "382acbf4",
        "getAcceptedVAsset()": "5eb5e2f4",
        "getClaimableRewards(address)": "308e401e",
        "getEndTime()": "439f5ac2",
        "getMaxVTokensPerStaker()": "29f3f7a0",
        "getMinVTokensPerStaker()": "36d8722c",
        "getProjectOwner()": "e6d68595",
        "getProjectOwnerReward()": "833ea6ed",
        "getProjectToken()": "4837c596",
        "getStakedAmount(address)": "4da6a556",
        "getStartTime()": "c828371e",
        "getTargetStakeAmount()": "ee47420c",
        "getTotalProjectToken()": "f73a8b5c",
        "getTotalStaked()": "0917e776",
        "getUserCurrentAccumulatedRewards(address)": "60c93278",
        "owner()": "8da5cb5b",
        "projectOwnerClaiming()": "07b57eab",
        "renounceOwnership()": "715018a6",
        "stake(uint256)": "a694fc3a",
        "stakerIndexes(address)": "dd4785f5",
        "stakes(address)": "16934fc4",
        "transferOwnership(address)": "f2fde38b",
        "unstake(uint256)": "2e17de78"
    },
    "id": 43
}