{
    "abi": [
        {
            "type": "constructor",
            "inputs": [
                {
                    "name": "_projectOwner",
                    "type": "address",
                    "internalType": "address"
                },
                {
                    "name": "_projectToken",
                    "type": "address",
                    "internalType": "address"
                },
                {
                    "name": "_acceptedVAsset",
                    "type": "address",
                    "internalType": "address"
                },
                {
                    "name": "_BifrostEarningContract",
                    "type": "address",
                    "internalType": "address"
                },
                {
                    "name": "_startTime",
                    "type": "uint256",
                    "internalType": "uint256"
                },
                {
                    "name": "_endTime",
                    "type": "uint256",
                    "internalType": "uint256"
                },
                {
                    "name": "_totalProjectTokens",
                    "type": "uint256",
                    "internalType": "uint256"
                },
                {
                    "name": "_maxVTokensPerStaker",
                    "type": "uint256",
                    "internalType": "uint256"
                },
                {
                    "name": "_minVTokensPerStaker",
                    "type": "uint256",
                    "internalType": "uint256"
                },
                {
                    "name": "_targetStakeAmount",
                    "type": "uint256",
                    "internalType": "uint256"
                }
            ],
            "stateMutability": "nonpayable"
        },
        {
            "type": "function",
            "name": "BifrostEarningContract",
            "inputs": [],
            "outputs": [
                {
                    "name": "",
                    "type": "address",
                    "internalType": "contract IBifrostEarningMock"
                }
            ],
            "stateMutability": "view"
        },
        {
            "type": "function",
            "name": "DECIMALS",
            "inputs": [],
            "outputs": [
                {
                    "name": "",
                    "type": "uint256",
                    "internalType": "uint256"
                }
            ],
            "stateMutability": "view"
        },
        {
            "type": "function",
            "name": "activeStakers",
            "inputs": [
                {
                    "name": "",
                    "type": "uint256",
                    "internalType": "uint256"
                }
            ],
            "outputs": [
                {
                    "name": "",
                    "type": "address",
                    "internalType": "address"
                }
            ],
            "stateMutability": "view"
        },
        {
            "type": "function",
            "name": "aprHistory",
            "inputs": [
                {
                    "name": "",
                    "type": "uint256",
                    "internalType": "uint256"
                }
            ],
            "outputs": [
                {
                    "name": "timestamp",
                    "type": "uint256",
                    "internalType": "uint256"
                },
                {
                    "name": "apr",
                    "type": "uint256",
                    "internalType": "uint256"
                },
                {
                    "name": "totalReservedAtSnapshot",
                    "type": "uint256",
                    "internalType": "uint256"
                }
            ],
            "stateMutability": "view"
        },
        {
            "type": "function",
            "name": "calculateCurrentAPR",
            "inputs": [],
            "outputs": [
                {
                    "name": "",
                    "type": "uint256",
                    "internalType": "uint256"
                }
            ],
            "stateMutability": "view"
        },
        {
            "type": "function",
            "name": "calculateLoyaltyMultiplier",
            "inputs": [
                {
                    "name": "stakeDuration",
                    "type": "uint256",
                    "internalType": "uint256"
                }
            ],
            "outputs": [
                {
                    "name": "",
                    "type": "uint256",
                    "internalType": "uint256"
                }
            ],
            "stateMutability": "pure"
        },
        {
            "type": "function",
            "name": "calculateProjectedRewards",
            "inputs": [
                {
                    "name": "amount",
                    "type": "uint256",
                    "internalType": "uint256"
                },
                {
                    "name": "duration",
                    "type": "uint256",
                    "internalType": "uint256"
                },
                {
                    "name": "apr",
                    "type": "uint256",
                    "internalType": "uint256"
                },
                {
                    "name": "loyaltyMultiplier",
                    "type": "uint256",
                    "internalType": "uint256"
                }
            ],
            "outputs": [
                {
                    "name": "",
                    "type": "uint256",
                    "internalType": "uint256"
                }
            ],
            "stateMutability": "pure"
        },
        {
            "type": "function",
            "name": "calculateTimeBasedReward",
            "inputs": [
                {
                    "name": "amount",
                    "type": "uint256",
                    "internalType": "uint256"
                },
                {
                    "name": "startTime",
                    "type": "uint256",
                    "internalType": "uint256"
                },
                {
                    "name": "endTime",
                    "type": "uint256",
                    "internalType": "uint256"
                },
                {
                    "name": "loyaltyMultiplier",
                    "type": "uint256",
                    "internalType": "uint256"
                }
            ],
            "outputs": [
                {
                    "name": "",
                    "type": "uint256",
                    "internalType": "uint256"
                }
            ],
            "stateMutability": "view"
        },
        {
            "type": "function",
            "name": "calculateTimeWeightedAPR",
            "inputs": [
                {
                    "name": "startTime",
                    "type": "uint256",
                    "internalType": "uint256"
                },
                {
                    "name": "endTime",
                    "type": "uint256",
                    "internalType": "uint256"
                }
            ],
            "outputs": [
                {
                    "name": "",
                    "type": "uint256",
                    "internalType": "uint256"
                }
            ],
            "stateMutability": "view"
        },
        {
            "type": "function",
            "name": "claimRewards",
            "inputs": [],
            "outputs": [],
            "stateMutability": "nonpayable"
        },
        {
            "type": "function",
            "name": "getAPRHistoryLength",
            "inputs": [],
            "outputs": [
                {
                    "name": "",
                    "type": "uint256",
                    "internalType": "uint256"
                }
            ],
            "stateMutability": "view"
        },
        {
            "type": "function",
            "name": "getAcceptedVAsset",
            "inputs": [],
            "outputs": [
                {
                    "name": "",
                    "type": "address",
                    "internalType": "address"
                }
            ],
            "stateMutability": "view"
        },
        {
            "type": "function",
            "name": "getClaimableRewards",
            "inputs": [
                {
                    "name": "investor",
                    "type": "address",
                    "internalType": "address"
                }
            ],
            "outputs": [
                {
                    "name": "",
                    "type": "uint256",
                    "internalType": "uint256"
                }
            ],
            "stateMutability": "view"
        },
        {
            "type": "function",
            "name": "getEndTime",
            "inputs": [],
            "outputs": [
                {
                    "name": "",
                    "type": "uint256",
                    "internalType": "uint256"
                }
            ],
            "stateMutability": "view"
        },
        {
            "type": "function",
            "name": "getMaxVTokensPerStaker",
            "inputs": [],
            "outputs": [
                {
                    "name": "",
                    "type": "uint256",
                    "internalType": "uint256"
                }
            ],
            "stateMutability": "view"
        },
        {
            "type": "function",
            "name": "getMinVTokensPerStaker",
            "inputs": [],
            "outputs": [
                {
                    "name": "",
                    "type": "uint256",
                    "internalType": "uint256"
                }
            ],
            "stateMutability": "view"
        },
        {
            "type": "function",
            "name": "getProjectOwner",
            "inputs": [],
            "outputs": [
                {
                    "name": "",
                    "type": "address",
                    "internalType": "address"
                }
            ],
            "stateMutability": "view"
        },
        {
            "type": "function",
            "name": "getProjectToken",
            "inputs": [],
            "outputs": [
                {
                    "name": "",
                    "type": "address",
                    "internalType": "address"
                }
            ],
            "stateMutability": "view"
        },
        {
            "type": "function",
            "name": "getStakedAmount",
            "inputs": [
                {
                    "name": "investor",
                    "type": "address",
                    "internalType": "address"
                }
            ],
            "outputs": [
                {
                    "name": "",
                    "type": "uint256",
                    "internalType": "uint256"
                }
            ],
            "stateMutability": "view"
        },
        {
            "type": "function",
            "name": "getStartTime",
            "inputs": [],
            "outputs": [
                {
                    "name": "",
                    "type": "uint256",
                    "internalType": "uint256"
                }
            ],
            "stateMutability": "view"
        },
        {
            "type": "function",
            "name": "getTargetStakeAmount",
            "inputs": [],
            "outputs": [
                {
                    "name": "",
                    "type": "uint256",
                    "internalType": "uint256"
                }
            ],
            "stateMutability": "view"
        },
        {
            "type": "function",
            "name": "getTotalProjectToken",
            "inputs": [],
            "outputs": [
                {
                    "name": "",
                    "type": "uint256",
                    "internalType": "uint256"
                }
            ],
            "stateMutability": "view"
        },
        {
            "type": "function",
            "name": "getTotalStaked",
            "inputs": [],
            "outputs": [
                {
                    "name": "",
                    "type": "uint256",
                    "internalType": "uint256"
                }
            ],
            "stateMutability": "view"
        },
        {
            "type": "function",
            "name": "getUserCurrentAccumulatedRewards",
            "inputs": [
                {
                    "name": "investor",
                    "type": "address",
                    "internalType": "address"
                }
            ],
            "outputs": [
                {
                    "name": "",
                    "type": "uint256",
                    "internalType": "uint256"
                }
            ],
            "stateMutability": "view"
        },
        {
            "type": "function",
            "name": "owner",
            "inputs": [],
            "outputs": [
                {
                    "name": "",
                    "type": "address",
                    "internalType": "address"
                }
            ],
            "stateMutability": "view"
        },
        {
            "type": "function",
            "name": "projectOwnerClaiming",
            "inputs": [],
            "outputs": [],
            "stateMutability": "nonpayable"
        },
        {
            "type": "function",
            "name": "renounceOwnership",
            "inputs": [],
            "outputs": [],
            "stateMutability": "nonpayable"
        },
        {
            "type": "function",
            "name": "stake",
            "inputs": [
                {
                    "name": "amount",
                    "type": "uint256",
                    "internalType": "uint256"
                }
            ],
            "outputs": [],
            "stateMutability": "nonpayable"
        },
        {
            "type": "function",
            "name": "stakerIndexes",
            "inputs": [
                {
                    "name": "",
                    "type": "address",
                    "internalType": "address"
                }
            ],
            "outputs": [
                {
                    "name": "",
                    "type": "uint256",
                    "internalType": "uint256"
                }
            ],
            "stateMutability": "view"
        },
        {
            "type": "function",
            "name": "stakes",
            "inputs": [
                {
                    "name": "",
                    "type": "address",
                    "internalType": "address"
                }
            ],
            "outputs": [
                {
                    "name": "amount",
                    "type": "uint256",
                    "internalType": "uint256"
                },
                {
                    "name": "timestamp",
                    "type": "uint256",
                    "internalType": "uint256"
                },
                {
                    "name": "lastRewardCalculation",
                    "type": "uint256",
                    "internalType": "uint256"
                },
                {
                    "name": "accumulatedRewards",
                    "type": "uint256",
                    "internalType": "uint256"
                },
                {
                    "name": "reservedRewards",
                    "type": "uint256",
                    "internalType": "uint256"
                },
                {
                    "name": "lastAprIndex",
                    "type": "uint256",
                    "internalType": "uint256"
                },
                {
                    "name": "isActive",
                    "type": "bool",
                    "internalType": "bool"
                }
            ],
            "stateMutability": "view"
        },
        {
            "type": "function",
            "name": "transferOwnership",
            "inputs": [
                {
                    "name": "newOwner",
                    "type": "address",
                    "internalType": "address"
                }
            ],
            "outputs": [],
            "stateMutability": "nonpayable"
        },
        {
            "type": "function",
            "name": "unstake",
            "inputs": [
                {
                    "name": "amount",
                    "type": "uint256",
                    "internalType": "uint256"
                }
            ],
            "outputs": [],
            "stateMutability": "nonpayable"
        },
        {
            "type": "event",
            "name": "APRUpdated",
            "inputs": [
                {
                    "name": "oldAPR",
                    "type": "uint256",
                    "indexed": false,
                    "internalType": "uint256"
                },
                {
                    "name": "newAPR",
                    "type": "uint256",
                    "indexed": false,
                    "internalType": "uint256"
                }
            ],
            "anonymous": false
        },
        {
            "type": "event",
            "name": "OwnershipTransferred",
            "inputs": [
                {
                    "name": "previousOwner",
                    "type": "address",
                    "indexed": true,
                    "internalType": "address"
                },
                {
                    "name": "newOwner",
                    "type": "address",
                    "indexed": true,
                    "internalType": "address"
                }
            ],
            "anonymous": false
        },
        {
            "type": "event",
            "name": "ReservedRewardsRecalculated",
            "inputs": [
                {
                    "name": "oldTotal",
                    "type": "uint256",
                    "indexed": false,
                    "internalType": "uint256"
                },
                {
                    "name": "newTotal",
                    "type": "uint256",
                    "indexed": false,
                    "internalType": "uint256"
                }
            ],
            "anonymous": false
        },
        {
            "type": "event",
            "name": "RewardsClaimed",
            "inputs": [
                {
                    "name": "investor",
                    "type": "address",
                    "indexed": true,
                    "internalType": "address"
                },
                {
                    "name": "amount",
                    "type": "uint256",
                    "indexed": false,
                    "internalType": "uint256"
                }
            ],
            "anonymous": false
        },
        {
            "type": "event",
            "name": "Staked",
            "inputs": [
                {
                    "name": "investor",
                    "type": "address",
                    "indexed": true,
                    "internalType": "address"
                },
                {
                    "name": "amount",
                    "type": "uint256",
                    "indexed": false,
                    "internalType": "uint256"
                }
            ],
            "anonymous": false
        },
        {
            "type": "event",
            "name": "Unstaked",
            "inputs": [
                {
                    "name": "investor",
                    "type": "address",
                    "indexed": true,
                    "internalType": "address"
                },
                {
                    "name": "amount",
                    "type": "uint256",
                    "indexed": false,
                    "internalType": "uint256"
                },
                {
                    "name": "duration",
                    "type": "uint256",
                    "indexed": false,
                    "internalType": "uint256"
                }
            ],
            "anonymous": false
        },
        {
            "type": "error",
            "name": "ERC20TransferFailed",
            "inputs": []
        },
        {
            "type": "error",
            "name": "EndTimeMustBeAfterStartTime",
            "inputs": []
        },
        {
            "type": "error",
            "name": "InsufficientRewardsAvailable",
            "inputs": []
        },
        {
            "type": "error",
            "name": "InvalidAcceptedVAssetAddress",
            "inputs": []
        },
        {
            "type": "error",
            "name": "InvalidBifrostEarningAddress",
            "inputs": []
        },
        {
            "type": "error",
            "name": "InvalidProjectTokenAddress",
            "inputs": []
        },
        {
            "type": "error",
            "name": "InvalidStakingTimeFrame",
            "inputs": []
        },
        {
            "type": "error",
            "name": "InvalidTimeRange",
            "inputs": []
        },
        {
            "type": "error",
            "name": "MaxAndMinTokensPerStakerMustBeGreaterThanZero",
            "inputs": []
        },
        {
            "type": "error",
            "name": "MinimumStakeDurationNotMet",
            "inputs": []
        },
        {
            "type": "error",
            "name": "NoActiveStake",
            "inputs": []
        },
        {
            "type": "error",
            "name": "NotEnoughERC20Allowance",
            "inputs": []
        },
        {
            "type": "error",
            "name": "OwnableInvalidOwner",
            "inputs": [
                {
                    "name": "owner",
                    "type": "address",
                    "internalType": "address"
                }
            ]
        },
        {
            "type": "error",
            "name": "OwnableUnauthorizedAccount",
            "inputs": [
                {
                    "name": "account",
                    "type": "address",
                    "internalType": "address"
                }
            ]
        },
        {
            "type": "error",
            "name": "ReentrancyGuardReentrantCall",
            "inputs": []
        },
        {
            "type": "error",
            "name": "RemainingStakeBelowMinimum",
            "inputs": []
        },
        {
            "type": "error",
            "name": "StartTimeMustBeInFuture",
            "inputs": []
        },
        {
            "type": "error",
            "name": "TargetStakeAmountMustBeGreaterThanZero",
            "inputs": []
        },
        {
            "type": "error",
            "name": "TotalProjectTokensMustBeGreaterThanZero",
            "inputs": []
        },
        {
            "type": "error",
            "name": "TotalStakeCannotExceedMaxStaking",
            "inputs": []
        },
        {
            "type": "error",
            "name": "TotalStakeCannotLowerMinStaking",
            "inputs": []
        }
    ],
    "bytecode": {
        "object": "0x60a060405234801562000010575f80fd5b50604051620025d9380380620025d983398101604081905262000033916200038e565b896001600160a01b0381166200006257604051631e4fbdf760e01b81525f600482015260240160405180910390fd5b6200006d81620001d8565b50600180556200008589898989898989898962000227565b5060408051610160810182526001600160a01b03808d168083528c82166020808501829052928d1684860181905260608086018d9052608086018c905260a086018b905260c086018a905260e08601899052610100860188905261012086018b90525f610140909601869052600280546001600160a01b031990811690951781556003805486169094179093556004805490941690911790925560058b905560068a9055600789905560088890556009879055600a868155600b8a9055600c949094558451918201909452428152600f9390929183019162000168919062000530565b620001769061032062000544565b81525f6020918201819052835460018181018655948252828220845160039092020190815591830151938201939093556040909101516002909101556001600160a01b03909716608052505050600e849055505050600d55506200055e915050565b5f80546001600160a01b038381166001600160a01b0319831681178455604051919092169283917f8be0079c531659141344cd1fd0a4f28419497f9722a3daafe3b4186f6b6457e09190a35050565b5f86864282116200024b57604051639519947b60e01b815260040160405180910390fd5b8181116200026c576040516324ffda2960e11b815260040160405180910390fd5b8b8b8b6001600160a01b038116620002975760405163639de49560e11b815260040160405180910390fd5b6001600160a01b038316620002bf5760405163d231c85560e01b815260040160405180910390fd5b6001600160a01b038216620002e7576040516329677ed160e01b815260040160405180910390fd5b898989825f036200030b5760405163930bd63f60e01b815260040160405180910390fd5b81158062000317575080155b15620003365760405163031cb01560e31b815260040160405180910390fd5b89805f0362000358576040516306e5493960e21b815260040160405180910390fd5b600199505050505050505050509998505050505050505050565b80516001600160a01b038116811462000389575f80fd5b919050565b5f805f805f805f805f806101408b8d031215620003a9575f80fd5b620003b48b62000372565b9950620003c460208c0162000372565b9850620003d460408c0162000372565b9750620003e460608c0162000372565b965060808b0151955060a08b0151945060c08b0151935060e08b015192506101008b015191506101208b015190509295989b9194979a5092959850565b634e487b7160e01b5f52601160045260245ffd5b600181815b808511156200047557815f190482111562000459576200045962000421565b808516156200046757918102915b93841c93908002906200043a565b509250929050565b5f826200048d575060016200052a565b816200049b57505f6200052a565b8160018114620004b45760028114620004bf57620004df565b60019150506200052a565b60ff841115620004d357620004d362000421565b50506001821b6200052a565b5060208310610133831016604e8410600b841016171562000504575081810a6200052a565b62000510838362000435565b805f190482111562000526576200052662000421565b0290505b92915050565b5f6200053d83836200047d565b9392505050565b80820281158282048414176200052a576200052a62000421565b608051612046620005935f395f81816103be01528181610ab401528181610b50015281816116f9015261178b01526120465ff3fe608060405234801561000f575f80fd5b50600436106101e7575f3560e01c806360c9327811610109578063c828371e1161009e578063ee47420c1161006e578063ee47420c14610464578063f2fde38b1461046c578063f62815941461047f578063f73a8b5c146104ad575f80fd5b8063c828371e14610419578063d0fde3e414610421578063dd4785f514610434578063e6d6859514610453575f80fd5b80639998e3d3116100d95780639998e3d3146103b95780639ae52036146103e0578063a694fc3a146103f3578063c6fd23b114610406575f80fd5b806360c932781461036e57806365168bf714610399578063715018a6146103a15780638da5cb5b146103a9575f80fd5b806331b7f25d1161017f578063439f5ac21161014f578063439f5ac21461031c5780634837c596146103245780634da6a556146103355780635eb5e2f41461035d575f80fd5b806331b7f25d146102d957806336d8722c14610304578063372500ab1461030c578063382acbf414610314575f80fd5b806329f3f7a0116101ba57806329f3f7a0146102a35780632e0f2625146102ab5780632e17de78146102b3578063308e401e146102c6575f80fd5b806307b57eab146101eb5780630917e776146101f557806316934fc41461020c578063178be22014610290575b5f80fd5b6101f36104b5565b005b600d545b6040519081526020015b60405180910390f35b61025961021a366004611db3565b60126020525f90815260409020805460018201546002830154600384015460048501546005860154600690960154949593949293919290919060ff1687565b604080519788526020880196909652948601939093526060850191909152608084015260a0830152151560c082015260e001610203565b6101f961029e366004611dd9565b61062a565b6008546101f9565b6101f9600281565b6101f36102c1366004611e08565b6106ab565b6101f96102d4366004611db3565b610d53565b6102ec6102e7366004611e08565b610dec565b6040516001600160a01b039091168152602001610203565b6009546101f9565b6101f3610e14565b600f546101f9565b6006546101f9565b6003546001600160a01b03166102ec565b6101f9610343366004611db3565b6001600160a01b03165f9081526012602052604090205490565b6004546001600160a01b03166102ec565b6101f961037c366004611db3565b6001600160a01b03165f9081526012602052604090206003015490565b6101f9611045565b6101f36111b0565b5f546001600160a01b03166102ec565b6102ec7f000000000000000000000000000000000000000000000000000000000000000081565b6101f96103ee366004611e08565b6111c1565b6101f3610401366004611e08565b611274565b6101f9610414366004611dd9565b611840565b6005546101f9565b6101f961042f366004611e1f565b6118fd565b6101f9610442366004611db3565b60116020525f908152604090205481565b6002546001600160a01b03166102ec565b600a546101f9565b6101f361047a366004611db3565b611ac6565b61049261048d366004611e08565b611b00565b60408051938452602084019290925290820152606001610203565b6007546101f9565b6104bd611b31565b6104c5611b5d565b600654421161051b5760405162461bcd60e51b815260206004820152601860248201527f50726f6a656374206973207374696c6c206f6e676f696e67000000000000000060448201526064015b60405180910390fd5b5f600e541161057b5760405162461bcd60e51b815260206004820152602660248201527f4e6f207265776172647320617661696c61626c6520666f722070726f6a6563746044820152651037bbb732b960d11b6064820152608401610512565b600e80545f9182905560035460025460405163a9059cbb60e01b81526001600160a01b0391821660048201526024810184905292939291169063a9059cbb906044016020604051808303815f875af11580156105d9573d5f803e3d5ffd5b505050506040513d601f19601f820116820180604052508101906105fd9190611e3f565b90508061061d57604051633c9fd93960e21b815260040160405180910390fd5b505061062860018055565b565b5f806106386002600a611f52565b610643906064611f5d565b61064d8588611f5d565b6106579190611f74565b90505f6301e133806106698784611f5d565b6106739190611f74565b90506106816002600a611f52565b61068c906064611f5d565b6106968583611f5d565b6106a09190611f74565b979650505050505050565b6106b3611b5d565b335f818152601260205260409020600681015460ff166106e657604051637d9a44a160e11b815260040160405180910390fd5b80548311156107465760405162461bcd60e51b815260206004820152602660248201527f43616e6e6f7420756e7374616b65206d6f7265207468616e207374616b656420604482015265185b5bdd5b9d60d21b6064820152608401610512565b5f8160010154426107579190611f93565b90506201518081101561077d5760405163b1c74adb60e01b815260040160405180910390fd5b61078683611b87565b83600d5f8282546107979190611f93565b909155505f90506107a6611045565b600f80549192505f916107bb90600190611f93565b815481106107cb576107cb611fa6565b905f5260205f2090600302016001015490508082146108cd576004840154600b80545f906107fa908490611fba565b90915550506004840154600c80545f90610815908490611f93565b90915550610824905033611c00565b6040805160608101825242815260208101848152600c54928201928352600f80546001810182555f9190915291517f8d1108e10bcb7c27dddfc02ed9d693a074039d026cf4ea4240b40f7d581ac802600390930292830155517f8d1108e10bcb7c27dddfc02ed9d693a074039d026cf4ea4240b40f7d581ac80382015590517f8d1108e10bcb7c27dddfc02ed9d693a074039d026cf4ea4240b40f7d581ac80490910155610904565b6004840154600b80545f906108e3908490611fba565b90915550506004840154600c80545f906108fe908490611f93565b90915550505b85845f015f8282546109169190611f93565b9091555050600654421015610a9f578354156109b8576006545f9061093c904290611f93565b85549091505f906109609083866109556002600a611f52565b61029e906096611f5d565b60048701819055600f5490915061097990600190611f93565b6005870155600b80548291905f90610992908490611f93565b9091555050600c80548291905f906109ab908490611fba565b90915550610a9f92505050565b60068401805460ff191690555f600485018190556001600160a01b038616815260116020526040812054601080549192916109f590600190611f93565b81548110610a0557610a05611fa6565b5f91825260209091200154601080546001600160a01b039092169250829184908110610a3357610a33611fa6565b5f91825260208083209190910180546001600160a01b0319166001600160a01b0394851617905591831681526011909152604090208290556010805480610a7c57610a7c611fcd565b5f8281526020902081015f1990810180546001600160a01b031916905501905550505b6040516364ab867560e01b81523060048201527f00000000000000000000000000000000000000000000000000000000000000006001600160a01b0316906364ab867590602401602060405180830381865afa158015610b01573d5f803e3d5ffd5b505050506040513d601f19601f82011682018060405250810190610b259190611fe1565b600e5f828254610b359190611fba565b90915550506040516305c2fbcf60e31b8152600481018790527f00000000000000000000000000000000000000000000000000000000000000006001600160a01b031690632e17de78906024015f604051808303815f87803b158015610b99575f80fd5b505af1158015610bab573d5f803e3d5ffd5b50506004805460405163095ea7b360e01b81523092810192909252602482018a90526001600160a01b0316925063095ea7b391506044016020604051808303815f875af1158015610bfe573d5f803e3d5ffd5b505050506040513d601f19601f82011682018060405250810190610c229190611e3f565b506004805460405163a9059cbb60e01b81526001600160a01b0388811693820193909352602481018990525f929091169063a9059cbb906044016020604051808303815f875af1158015610c78573d5f803e3d5ffd5b505050506040513d601f19601f82011682018060405250810190610c9c9190611e3f565b905080610cbc57604051633c9fd93960e21b815260040160405180910390fd5b60408051888152602081018690526001600160a01b038816917f7fc4727e062e336010f2c282598ef5f14facb3de68cf8195c2f23e1454b2b74e910160405180910390a2818314610d415760408051838152602081018590527fd2d659d197cf77652feb866d2a49b71684b0e7b0d92bde0b26163f77e2e25a2d910160405180910390a15b505050505050610d5060018055565b50565b6001600160a01b0381165f908152601260205260408120600681015460ff16610d7e57505f92915050565b6006545f904211610d8f5742610d93565b6006545b90505f826001015482610da69190611f93565b90505f610db2826111c1565b9050805f03610dc657505f95945050505050565b5f610dda855f015486600201548685611840565b90508085600301546106a09190611fba565b60108181548110610dfb575f80fd5b5f918252602090912001546001600160a01b0316905081565b610e1c611b5d565b335f610e2782610d53565b90505f8111610e6e5760405162461bcd60e51b81526020600482015260136024820152724e6f207265776172647320746f20636c61696d60681b6044820152606401610512565b6003546040516370a0823160e01b815230600482015282916001600160a01b0316906370a0823190602401602060405180830381865afa158015610eb4573d5f803e3d5ffd5b505050506040513d601f19601f82011682018060405250810190610ed89190611fe1565b1015610f265760405162461bcd60e51b815260206004820152601d60248201527f496e73756666696369656e7420636f6e74726163742062616c616e63650000006044820152606401610512565b6001600160a01b0382165f908152601260205260408120600381018290554260029091015560078054839290610f5d908490611f93565b909155505060035460405163a9059cbb60e01b81526001600160a01b038481166004830152602482018490525f92169063a9059cbb906044016020604051808303815f875af1158015610fb2573d5f803e3d5ffd5b505050506040513d601f19601f82011682018060405250810190610fd69190611e3f565b905080610ff657604051633c9fd93960e21b815260040160405180910390fd5b826001600160a01b03167ffc30cddea38e2bf4d6ea7d3f9ed3b6ad7f176419f4963bd81318067a4aee73fe8360405161103191815260200190565b60405180910390a250505061062860018055565b5f600d545f0361106c5761105b6002600a611f52565b61106790610320611f5d565b905090565b600a80545f9161107e90600290611f52565b600d5461108c906064611f5d565b6110969190611f5d565b6110a09190611f74565b90506110ae6002600a611f52565b6110b9906064611f5d565b81106110dc576110cb6002600a611f52565b6110d6906032611f5d565b91505090565b5f6110e96002600a611f52565b6110f4906032611f5d565b6111006002600a611f52565b61110c90610320611f5d565b6111169190611f93565b90505f6111256002600a611f52565b611130906064611f5d565b61113a8484611f5d565b6111449190611f74565b90505f816111546002600a611f52565b61116090610320611f5d565b61116a9190611f93565b90506111786002600a611f52565b611183906032611f5d565b81116111a5576111956002600a611f52565b6111a0906032611f5d565b6111a7565b805b94505050505090565b6111b8611b31565b6106285f611d4f565b5f620151808210156111d457505f919050565b5f62093a806111e56002600a611f52565b6111f26201518086611f93565b6111fd906032611f5d565b6112079190611f5d565b6112119190611f74565b905061121f6002600a611f52565b61122a906032611f5d565b81111561124b5761123d6002600a611f52565b611248906032611f5d565b90505b806112586002600a611f52565b611263906064611f5d565b61126d9190611fba565b9392505050565b61127c611b5d565b60055442108061128d575060065442115b156112ab57604051635707567760e11b815260040160405180910390fd5b600854335f818152601260205260409020548392906112cb908490611fba565b11156112ea57604051632ca1035160e21b815260040160405180910390fd5b600954335f8181526012602052604090205485929061130a908490611fba565b1015611329576040516350563e4760e01b815260040160405180910390fd5b5f33905085600d5f82825461133e9190611fba565b909155505f905061134d611045565b600f549091505f90611376576113656002600a611f52565b61137190610320611f5d565b6113a7565b600f805461138690600190611f93565b8154811061139657611396611fa6565b905f5260205f209060030201600101545b905080821461145e576113b933611c00565b6040805160608101825242815260208101848152600c54928201928352600f80546001810182555f9190915291517f8d1108e10bcb7c27dddfc02ed9d693a074039d026cf4ea4240b40f7d581ac802600390930292830155517f8d1108e10bcb7c27dddfc02ed9d693a074039d026cf4ea4240b40f7d581ac80382015590517f8d1108e10bcb7c27dddfc02ed9d693a074039d026cf4ea4240b40f7d581ac804909101555b6006545f9061146e904290611f93565b90505f6114838a83866109556002600a611f52565b600b549091508111156114a957604051635cdee9e160e11b815260040160405180910390fd5b6001600160a01b0385165f9081526012602052604090206006015460ff1661152b57601080546001600160a01b0387165f818152601160205260408120839055600183018455929092527f1b6847dc741a1b0cd08d278845f9d819d87b734759afb55fe2de5cb82a9ae6720180546001600160a01b0319169091179055611534565b61153485611b87565b6040518060e001604052808b815260200142815260200142815260200160125f886001600160a01b03166001600160a01b031681526020019081526020015f206003015481526020018281526020016001600f805490506115959190611f93565b8152600160209182018190526001600160a01b0388165f908152601283526040808220855181559385015192840192909255908301516002830155606083015160038301556080830151600483015560a0830151600583015560c0909201516006909101805460ff1916911515919091179055600b805483929061161a908490611f93565b9091555050600c80548291905f90611633908490611fba565b90915550506004545f906001600160a01b03166040516323b872dd60e01b81526001600160a01b038881166004830152306024830152604482018e905291909116906323b872dd906064016020604051808303815f875af115801561169a573d5f803e3d5ffd5b505050506040513d601f19601f820116820180604052508101906116be9190611e3f565b9050806116de57604051633c9fd93960e21b815260040160405180910390fd5b6004805460405163095ea7b360e01b81526001600160a01b037f0000000000000000000000000000000000000000000000000000000000000000811693820193909352602481018e905291169063095ea7b3906044016020604051808303815f875af1158015611750573d5f803e3d5ffd5b505050506040513d601f19601f820116820180604052508101906117749190611e3f565b5060405163534a7e1d60e11b8152600481018c90527f00000000000000000000000000000000000000000000000000000000000000006001600160a01b03169063a694fc3a906024015f604051808303815f87803b1580156117d4575f80fd5b505af11580156117e6573d5f803e3d5ffd5b50505050856001600160a01b03167f9e71bc8eea02a63969f509818f2dafb9254532904319f9dbda79b67bd34a5f3d8c60405161182591815260200190565b60405180910390a250505050505050505050610d5060018055565b5f8383116118615760405163536a71af60e01b815260040160405180910390fd5b5f61186c8585611f93565b90505f61187986866118fd565b90505f6118886002600a611f52565b611893906064611f5d565b61189d838a611f5d565b6118a79190611f74565b90505f6301e133806118b98584611f5d565b6118c39190611f74565b90506118d16002600a611f52565b6118dc906064611f5d565b6118e68783611f5d565b6118f09190611f74565b9998505050505050505050565b5f8183106119425760405162461bcd60e51b8152602060048201526012602482015271496e76616c69642074696d652072616e676560701b6044820152606401610512565b5f83815b600f5481108015611978575085600f828154811061196657611966611fa6565b905f5260205f2090600302015f015411155b1561198f578061198781611ff8565b915050611946565b5f811161199c575f6119a7565b6119a7600182611f93565b90505b84821080156119ba5750600f5481105b15611a7057600f545f906119cf836001611fba565b106119da5785611a0f565b611a0f600f6119ea846001611fba565b815481106119fa576119fa611fa6565b905f5260205f2090600302015f015487611d9e565b90505f611a1c8483611f93565b905080600f8481548110611a3257611a32611fa6565b905f5260205f20906003020160010154611a4c9190611f5d565b611a569086611fba565b94508193508280611a6690611ff8565b93505050506119aa565b84821015611aa6575f611a838387611f93565b905080611a8e611045565b611a989190611f5d565b611aa29085611fba565b9350505b611ab08686611f93565b611aba9084611f74565b93505050505b92915050565b611ace611b31565b6001600160a01b038116611af757604051631e4fbdf760e01b81525f6004820152602401610512565b610d5081611d4f565b600f8181548110611b0f575f80fd5b5f91825260209091206003909102018054600182015460029092015490925083565b5f546001600160a01b031633146106285760405163118cdaa760e01b8152336004820152602401610512565b600260015403611b8057604051633ee5aeb560e01b815260040160405180910390fd5b6002600155565b6001600160a01b0381165f9081526012602052604081206001810154909190611bb09042611f93565b90505f611bbc826111c1565b90508015611bfa575f611bd8845f015485600201544285611840565b905080846003015f828254611bed9190611fba565b9091555050426002850155505b50505050565b600c80545f91829055905b601054811015611d0d575f60108281548110611c2957611c29611fa6565b5f918252602090912001546001600160a01b03908116915084168103611c4f5750611d05565b6001600160a01b0381165f908152601260205260409020600681015460ff16611c79575050611d05565b6004810154600b80545f90611c8f908490611fba565b90915550506006545f90611ca4904290611f93565b90505f611caf611045565b83549091505f90611cc89084846109556002600a611f52565b60048501819055600f54909150611ce190600190611f93565b6005850155600c80548291905f90611cfa908490611fba565b909155505050505050505b600101611c0b565b50600c546040805183815260208101929092527fef854a7a2d485eb111d9f1647cd8d8c8da494e9b6a9b0de8b3d5b6859d1e66d6910160405180910390a15050565b5f80546001600160a01b038381166001600160a01b0319831681178455604051919092169283917f8be0079c531659141344cd1fd0a4f28419497f9722a3daafe3b4186f6b6457e09190a35050565b5f818310611dac578161126d565b5090919050565b5f60208284031215611dc3575f80fd5b81356001600160a01b038116811461126d575f80fd5b5f805f8060808587031215611dec575f80fd5b5050823594602084013594506040840135936060013592509050565b5f60208284031215611e18575f80fd5b5035919050565b5f8060408385031215611e30575f80fd5b50508035926020909101359150565b5f60208284031215611e4f575f80fd5b8151801515811461126d575f80fd5b634e487b7160e01b5f52601160045260245ffd5b600181815b80851115611eac57815f1904821115611e9257611e92611e5e565b80851615611e9f57918102915b93841c9390800290611e77565b509250929050565b5f82611ec257506001611ac0565b81611ece57505f611ac0565b8160018114611ee45760028114611eee57611f0a565b6001915050611ac0565b60ff841115611eff57611eff611e5e565b50506001821b611ac0565b5060208310610133831016604e8410600b8410161715611f2d575081810a611ac0565b611f378383611e72565b805f1904821115611f4a57611f4a611e5e565b029392505050565b5f61126d8383611eb4565b8082028115828204841417611ac057611ac0611e5e565b5f82611f8e57634e487b7160e01b5f52601260045260245ffd5b500490565b81810381811115611ac057611ac0611e5e565b634e487b7160e01b5f52603260045260245ffd5b80820180821115611ac057611ac0611e5e565b634e487b7160e01b5f52603160045260245ffd5b5f60208284031215611ff1575f80fd5b5051919050565b5f6001820161200957612009611e5e565b506001019056fea26469706673582212209c5de33b822af9f245a335b3658c17c20b4f4724503cdc0521987171a57f173a64736f6c63430008180033",
        "linkReferences": {}
    },
    "methodIdentifiers": {
        "BifrostEarningContract()": "9998e3d3",
        "DECIMALS()": "2e0f2625",
        "activeStakers(uint256)": "31b7f25d",
        "aprHistory(uint256)": "f6281594",
        "calculateCurrentAPR()": "65168bf7",
        "calculateLoyaltyMultiplier(uint256)": "9ae52036",
        "calculateProjectedRewards(uint256,uint256,uint256,uint256)": "178be220",
        "calculateTimeBasedReward(uint256,uint256,uint256,uint256)": "c6fd23b1",
        "calculateTimeWeightedAPR(uint256,uint256)": "d0fde3e4",
        "claimRewards()": "372500ab",
        "getAPRHistoryLength()": "382acbf4",
        "getAcceptedVAsset()": "5eb5e2f4",
        "getClaimableRewards(address)": "308e401e",
        "getEndTime()": "439f5ac2",
        "getMaxVTokensPerStaker()": "29f3f7a0",
        "getMinVTokensPerStaker()": "36d8722c",
        "getProjectOwner()": "e6d68595",
        "getProjectToken()": "4837c596",
        "getStakedAmount(address)": "4da6a556",
        "getStartTime()": "c828371e",
        "getTargetStakeAmount()": "ee47420c",
        "getTotalProjectToken()": "f73a8b5c",
        "getTotalStaked()": "0917e776",
        "getUserCurrentAccumulatedRewards(address)": "60c93278",
        "owner()": "8da5cb5b",
        "projectOwnerClaiming()": "07b57eab",
        "renounceOwnership()": "715018a6",
        "stake(uint256)": "a694fc3a",
        "stakerIndexes(address)": "dd4785f5",
        "stakes(address)": "16934fc4",
        "transferOwnership(address)": "f2fde38b",
        "unstake(uint256)": "2e17de78"
    },
    "id": 45
}