{
    "abi": [
        {
            "type": "constructor",
            "inputs": [
                {
                    "name": "_BifrostEarningContract",
                    "type": "address",
                    "internalType": "address"
                }
            ],
            "stateMutability": "nonpayable"
        },
        {
            "type": "function",
            "name": "createPool",
            "inputs": [
                {
                    "name": "_projectToken",
                    "type": "address",
                    "internalType": "address"
                },
                {
                    "name": "_acceptedVAsset",
                    "type": "address",
                    "internalType": "address"
                },
                {
                    "name": "_startTime",
                    "type": "uint256",
                    "internalType": "uint256"
                },
                {
                    "name": "_endTime",
                    "type": "uint256",
                    "internalType": "uint256"
                },
                {
                    "name": "_totalProjectTokens",
                    "type": "uint256",
                    "internalType": "uint256"
                },
                {
                    "name": "_maxVTokensPerStaker",
                    "type": "uint256",
                    "internalType": "uint256"
                },
                {
                    "name": "_minVTokensPerStaker",
                    "type": "uint256",
                    "internalType": "uint256"
                },
                {
                    "name": "_targetStakeAmount",
                    "type": "uint256",
                    "internalType": "uint256"
                }
            ],
            "outputs": [
                {
                    "name": "poolId",
                    "type": "uint256",
                    "internalType": "uint256"
                }
            ],
            "stateMutability": "nonpayable"
        },
        {
            "type": "function",
            "name": "getBifrostEarningContract",
            "inputs": [],
            "outputs": [
                {
                    "name": "",
                    "type": "address",
                    "internalType": "address"
                }
            ],
            "stateMutability": "view"
        },
        {
            "type": "function",
            "name": "getPoolAddress",
            "inputs": [
                {
                    "name": "poolId",
                    "type": "uint256",
                    "internalType": "uint256"
                }
            ],
            "outputs": [
                {
                    "name": "",
                    "type": "address",
                    "internalType": "address"
                }
            ],
            "stateMutability": "view"
        },
        {
            "type": "function",
            "name": "getPoolCount",
            "inputs": [],
            "outputs": [
                {
                    "name": "",
                    "type": "uint256",
                    "internalType": "uint256"
                }
            ],
            "stateMutability": "view"
        },
        {
            "type": "function",
            "name": "isPoolValid",
            "inputs": [
                {
                    "name": "poolAddress",
                    "type": "address",
                    "internalType": "address"
                }
            ],
            "outputs": [
                {
                    "name": "",
                    "type": "bool",
                    "internalType": "bool"
                }
            ],
            "stateMutability": "view"
        },
        {
            "type": "function",
            "name": "owner",
            "inputs": [],
            "outputs": [
                {
                    "name": "",
                    "type": "address",
                    "internalType": "address"
                }
            ],
            "stateMutability": "view"
        },
        {
            "type": "function",
            "name": "pools",
            "inputs": [
                {
                    "name": "",
                    "type": "uint256",
                    "internalType": "uint256"
                }
            ],
            "outputs": [
                {
                    "name": "",
                    "type": "address",
                    "internalType": "address"
                }
            ],
            "stateMutability": "view"
        },
        {
            "type": "function",
            "name": "renounceOwnership",
            "inputs": [],
            "outputs": [],
            "stateMutability": "nonpayable"
        },
        {
            "type": "function",
            "name": "setBifrostEarningContract",
            "inputs": [
                {
                    "name": "_BifrostEarningContract",
                    "type": "address",
                    "internalType": "address"
                }
            ],
            "outputs": [],
            "stateMutability": "nonpayable"
        },
        {
            "type": "function",
            "name": "transferOwnership",
            "inputs": [
                {
                    "name": "newOwner",
                    "type": "address",
                    "internalType": "address"
                }
            ],
            "outputs": [],
            "stateMutability": "nonpayable"
        },
        {
            "type": "event",
            "name": "OwnershipTransferred",
            "inputs": [
                {
                    "name": "previousOwner",
                    "type": "address",
                    "indexed": true,
                    "internalType": "address"
                },
                {
                    "name": "newOwner",
                    "type": "address",
                    "indexed": true,
                    "internalType": "address"
                }
            ],
            "anonymous": false
        },
        {
            "type": "event",
            "name": "PoolCreated",
            "inputs": [
                {
                    "name": "poolId",
                    "type": "uint256",
                    "indexed": true,
                    "internalType": "uint256"
                },
                {
                    "name": "projectOwner",
                    "type": "address",
                    "indexed": true,
                    "internalType": "address"
                },
                {
                    "name": "projectToken",
                    "type": "address",
                    "indexed": true,
                    "internalType": "address"
                },
                {
                    "name": "acceptedVAsset",
                    "type": "address",
                    "indexed": false,
                    "internalType": "address"
                },
                {
                    "name": "poolAddress",
                    "type": "address",
                    "indexed": false,
                    "internalType": "address"
                },
                {
                    "name": "startTime",
                    "type": "uint256",
                    "indexed": false,
                    "internalType": "uint256"
                },
                {
                    "name": "endTime",
                    "type": "uint256",
                    "indexed": false,
                    "internalType": "uint256"
                }
            ],
            "anonymous": false
        },
        {
            "type": "error",
            "name": "EndTimeMustBeAfterStartTime",
            "inputs": []
        },
        {
            "type": "error",
            "name": "InvalidAcceptedVAssetAddress",
            "inputs": []
        },
        {
            "type": "error",
            "name": "InvalidBifrostEarningAddress",
            "inputs": []
        },
        {
            "type": "error",
            "name": "InvalidPoolId",
            "inputs": []
        },
        {
            "type": "error",
            "name": "InvalidProjectTokenAddress",
            "inputs": []
        },
        {
            "type": "error",
            "name": "InvalidTokenAmount",
            "inputs": []
        },
        {
            "type": "error",
            "name": "OwnableInvalidOwner",
            "inputs": [
                {
                    "name": "owner",
                    "type": "address",
                    "internalType": "address"
                }
            ]
        },
        {
            "type": "error",
            "name": "OwnableUnauthorizedAccount",
            "inputs": [
                {
                    "name": "account",
                    "type": "address",
                    "internalType": "address"
                }
            ]
        },
        {
            "type": "error",
            "name": "StartTimeMustBeInFuture",
            "inputs": []
        },
        {
            "type": "error",
            "name": "TargetStakeAmountMustBeGreaterThanZero",
            "inputs": []
        }
    ],
    "bytecode": {
        "object": "0x608060405234801561001057600080fd5b50604051612f62380380612f6283398101604081905261002f916100ff565b338061005557604051631e4fbdf760e01b81526000600482015260240160405180910390fd5b61005e816100af565b506001600160a01b0381166100865760405163639de49560e11b815260040160405180910390fd5b60018055600280546001600160a01b0319166001600160a01b039290921691909117905561012f565b600080546001600160a01b038381166001600160a01b0319831681178455604051919092169283917f8be0079c531659141344cd1fd0a4f28419497f9722a3daafe3b4186f6b6457e09190a35050565b60006020828403121561011157600080fd5b81516001600160a01b038116811461012857600080fd5b9392505050565b612e248061013e6000396000f3fe60806040523480156200001157600080fd5b5060043610620000aa5760003560e01c80638eec5d70116200006e5780638eec5d70146200013e578063a6f1da7d1462000148578063ac4afa38146200015a578063f2fde38b1462000186578063f6c57861146200019d57600080fd5b8062a5ae2114620000af578063197c0f3d14620000e35780633890f00a1462000109578063715018a614620001225780638da5cb5b146200012c575b600080fd5b620000c6620000c036600462000629565b620001dd565b6040516001600160a01b0390911681526020015b60405180910390f35b620000fa620000f436600462000660565b62000220565b604051908152602001620000da565b620001206200011a366004620006cc565b6200038f565b005b62000120620003e3565b6000546001600160a01b0316620000c6565b620000fa620003fb565b6002546001600160a01b0316620000c6565b620000c66200016b36600462000629565b6003602052600090815260409020546001600160a01b031681565b6200012062000197366004620006cc565b62000412565b620001cc620001ae366004620006cc565b6001600160a01b031660009081526004602052604090205460ff1690565b6040519015158152602001620000da565b6000816001548110620002035760405163015f4fdd60e31b815260040160405180910390fd5b50506000908152600360205260409020546001600160a01b031690565b60006200023489898989898989896200045a565b506000338a8a600260009054906101000a90046001600160a01b03168b8b8b8b8b8b60405162000264906200061b565b6001600160a01b039a8b168152988a1660208a01529689166040890152979094166060870152608086019290925260a085015260c084015260e083015261010082019290925261012081019190915261014001604051809103906000f080158015620002d4573d6000803e3d6000fd5b50600180549192506000620002e98362000707565b90915550600081815260036020908152604080832080546001600160a01b0319166001600160a01b038781169182179092558085526004845293829020805460ff1916600117905581518e821681529283019390935281018b9052606081018a90529193508b1690339084907fd11742d80e016020b8cc622078ca3f6b03c322fdd90d5879c731727654957cc49060800160405180910390a45098975050505050505050565b620003996200059c565b6001600160a01b038116620003c15760405163639de49560e11b815260040160405180910390fd5b600280546001600160a01b0319166001600160a01b0392909216919091179055565b620003ed6200059c565b620003f96000620005cb565b565b6000600180546200040d919062000723565b905090565b6200041c6200059c565b6001600160a01b0381166200044c57604051631e4fbdf760e01b8152600060048201526024015b60405180910390fd5b6200045781620005cb565b50565b600086864282116200047f57604051639519947b60e01b815260040160405180910390fd5b818111620004a0576040516324ffda2960e11b815260040160405180910390fd5b6002548b908b906001600160a01b0316620004ce5760405163639de49560e11b815260040160405180910390fd5b6001600160a01b038216620004f65760405163d231c85560e01b815260040160405180910390fd5b6001600160a01b0381166200051e576040516329677ed160e01b815260040160405180910390fd5b8888888215806200052d575081155b8062000537575080155b806200054257508082105b156200056157604051632160733960e01b815260040160405180910390fd5b888060000362000584576040516306e5493960e21b815260040160405180910390fd5b60019850505050505050505098975050505050505050565b6000546001600160a01b03163314620003f95760405163118cdaa760e01b815233600482015260240162000443565b600080546001600160a01b038381166001600160a01b0319831681178455604051919092169283917f8be0079c531659141344cd1fd0a4f28419497f9722a3daafe3b4186f6b6457e09190a35050565b6126af806200074083390190565b6000602082840312156200063c57600080fd5b5035919050565b80356001600160a01b03811681146200065b57600080fd5b919050565b600080600080600080600080610100898b0312156200067e57600080fd5b620006898962000643565b97506200069960208a0162000643565b979a9799505050506040860135956060810135956080820135955060a0820135945060c0820135935060e0909101359150565b600060208284031215620006df57600080fd5b620006ea8262000643565b9392505050565b634e487b7160e01b600052601160045260246000fd5b6000600182016200071c576200071c620006f1565b5060010190565b81810381811115620007395762000739620006f1565b9291505056fe60a06040523480156200001157600080fd5b50604051620026af380380620026af833981016040819052620000349162000397565b896001600160a01b0381166200006457604051631e4fbdf760e01b81526000600482015260240160405180910390fd5b6200006f81620001dc565b5060018055620000878989898989898989896200022c565b5060408051610160810182526001600160a01b03808d168083528c82166020808501829052928d1684860181905260608086018d9052608086018c905260a086018b905260c086018a905260e08601899052610100860188905261012086018b90526000610140909601869052600280546001600160a01b031990811690951781556003805486169094179093556004805490941690911790925560058b905560068a9055600789905560088890556009879055600a868155600b8a9055600c949094558451918201909452428152600f939092918301916200016b919062000545565b62000179906103206200055a565b815260006020918201819052835460018181018655948252828220845160039092020190815591830151938201939093556040909101516002909101556001600160a01b03909716608052505050600e849055505050600d555062000574915050565b600080546001600160a01b038381166001600160a01b0319831681178455604051919092169283917f8be0079c531659141344cd1fd0a4f28419497f9722a3daafe3b4186f6b6457e09190a35050565b600086864282116200025157604051639519947b60e01b815260040160405180910390fd5b81811162000272576040516324ffda2960e11b815260040160405180910390fd5b8b8b8b6001600160a01b0381166200029d5760405163639de49560e11b815260040160405180910390fd5b6001600160a01b038316620002c55760405163d231c85560e01b815260040160405180910390fd5b6001600160a01b038216620002ed576040516329677ed160e01b815260040160405180910390fd5b89898982600003620003125760405163930bd63f60e01b815260040160405180910390fd5b8115806200031e575080155b156200033d5760405163031cb01560e31b815260040160405180910390fd5b898060000362000360576040516306e5493960e21b815260040160405180910390fd5b600199505050505050505050509998505050505050505050565b80516001600160a01b03811681146200039257600080fd5b919050565b6000806000806000806000806000806101408b8d031215620003b857600080fd5b620003c38b6200037a565b9950620003d360208c016200037a565b9850620003e360408c016200037a565b9750620003f360608c016200037a565b965060808b0151955060a08b0151945060c08b0151935060e08b015192506101008b015191506101208b015190509295989b9194979a5092959850565b634e487b7160e01b600052601160045260246000fd5b600181815b80851115620004875781600019048211156200046b576200046b62000430565b808516156200047957918102915b93841c93908002906200044b565b509250929050565b600082620004a0575060016200053f565b81620004af575060006200053f565b8160018114620004c85760028114620004d357620004f3565b60019150506200053f565b60ff841115620004e757620004e762000430565b50506001821b6200053f565b5060208310610133831016604e8410600b841016171562000518575081810a6200053f565b62000524838362000446565b80600019048211156200053b576200053b62000430565b0290505b92915050565b60006200055383836200048f565b9392505050565b80820281158282048414176200053f576200053f62000430565b608051612103620005ac600039600081816103cc01528181610ae101528181610b800152818161176801526117fd01526121036000f3fe608060405234801561001057600080fd5b50600436106101f05760003560e01c806360c932781161010f578063c828371e116100a2578063ee47420c11610071578063ee47420c14610473578063f2fde38b1461047b578063f62815941461048e578063f73a8b5c146104bc57600080fd5b8063c828371e14610427578063d0fde3e41461042f578063dd4785f514610442578063e6d685951461046257600080fd5b80639998e3d3116100de5780639998e3d3146103c75780639ae52036146103ee578063a694fc3a14610401578063c6fd23b11461041457600080fd5b806360c932781461037a57806365168bf7146103a6578063715018a6146103ae5780638da5cb5b146103b657600080fd5b806331b7f25d11610187578063439f5ac211610156578063439f5ac2146103275780634837c5961461032f5780634da6a556146103405780635eb5e2f41461036957600080fd5b806331b7f25d146102e457806336d8722c1461030f578063372500ab14610317578063382acbf41461031f57600080fd5b806329f3f7a0116101c357806329f3f7a0146102ae5780632e0f2625146102b65780632e17de78146102be578063308e401e146102d157600080fd5b806307b57eab146101f55780630917e776146101ff57806316934fc414610216578063178be2201461029b575b600080fd5b6101fd6104c4565b005b600d545b6040519081526020015b60405180910390f35b610264610224366004611e52565b6012602052600090815260409020805460018201546002830154600384015460048501546005860154600690960154949593949293919290919060ff1687565b604080519788526020880196909652948601939093526060850191909152608084015260a0830152151560c082015260e00161020d565b6102036102a9366004611e7b565b61063e565b600854610203565b610203600281565b6101fd6102cc366004611ead565b6106c1565b6102036102df366004611e52565b610d8f565b6102f76102f2366004611ead565b610e31565b6040516001600160a01b03909116815260200161020d565b600954610203565b6101fd610e5b565b600f54610203565b600654610203565b6003546001600160a01b03166102f7565b61020361034e366004611e52565b6001600160a01b031660009081526012602052604090205490565b6004546001600160a01b03166102f7565b610203610388366004611e52565b6001600160a01b031660009081526012602052604090206003015490565b610203611095565b6101fd611206565b6000546001600160a01b03166102f7565b6102f77f000000000000000000000000000000000000000000000000000000000000000081565b6102036103fc366004611ead565b611218565b6101fd61040f366004611ead565b6112ce565b610203610422366004611e7b565b6118b7565b600554610203565b61020361043d366004611ec6565b611979565b610203610450366004611e52565b60116020526000908152604090205481565b6002546001600160a01b03166102f7565b600a54610203565b6101fd610489366004611e52565b611b51565b6104a161049c366004611ead565b611b8c565b6040805193845260208401929092529082015260600161020d565b600754610203565b6104cc611bbf565b6104d4611bec565b600654421161052a5760405162461bcd60e51b815260206004820152601860248201527f50726f6a656374206973207374696c6c206f6e676f696e67000000000000000060448201526064015b60405180910390fd5b6000600e541161058b5760405162461bcd60e51b815260206004820152602660248201527f4e6f207265776172647320617661696c61626c6520666f722070726f6a6563746044820152651037bbb732b960d11b6064820152608401610521565b600e805460009182905560035460025460405163a9059cbb60e01b81526001600160a01b0391821660048201526024810184905292939291169063a9059cbb906044016020604051808303816000875af11580156105ed573d6000803e3d6000fd5b505050506040513d601f19601f820116820180604052508101906106119190611ee8565b90508061063157604051633c9fd93960e21b815260040160405180910390fd5b505061063c60018055565b565b60008061064d6002600a612004565b610658906064612010565b6106628588612010565b61066c9190612027565b905060006301e1338061067f8784612010565b6106899190612027565b90506106976002600a612004565b6106a2906064612010565b6106ac8583612010565b6106b69190612027565b979650505050505050565b6106c9611bec565b336000818152601260205260409020600681015460ff166106fd57604051637d9a44a160e11b815260040160405180910390fd5b805483111561075d5760405162461bcd60e51b815260206004820152602660248201527f43616e6e6f7420756e7374616b65206d6f7265207468616e207374616b656420604482015265185b5bdd5b9d60d21b6064820152608401610521565b600081600101544261076f9190612049565b9050620151808110156107955760405163b1c74adb60e01b815260040160405180910390fd5b61079e83611c16565b83600d60008282546107b09190612049565b90915550600090506107c0611095565b600f80549192506000916107d690600190612049565b815481106107e6576107e661205c565b90600052602060002090600302016001015490508082146108ed576004840154600b8054600090610818908490612072565b90915550506004840154600c8054600090610834908490612049565b90915550610843905033611c94565b6040805160608101825242815260208101848152600c54928201928352600f805460018101825560009190915291517f8d1108e10bcb7c27dddfc02ed9d693a074039d026cf4ea4240b40f7d581ac802600390930292830155517f8d1108e10bcb7c27dddfc02ed9d693a074039d026cf4ea4240b40f7d581ac80382015590517f8d1108e10bcb7c27dddfc02ed9d693a074039d026cf4ea4240b40f7d581ac80490910155610926565b6004840154600b8054600090610904908490612072565b90915550506004840154600c8054600090610920908490612049565b90915550505b8584600001600082825461093a9190612049565b9091555050600654421015610acc578354156109e057600654600090610961904290612049565b855490915060009061098690838661097b6002600a612004565b6102a9906096612010565b60048701819055600f5490915061099f90600190612049565b6005870155600b80548291906000906109b9908490612049565b9091555050600c80548291906000906109d3908490612072565b90915550610acc92505050565b60068401805460ff191690556000600485018190556001600160a01b03861681526011602052604081205460108054919291610a1e90600190612049565b81548110610a2e57610a2e61205c565b600091825260209091200154601080546001600160a01b039092169250829184908110610a5d57610a5d61205c565b600091825260208083209190910180546001600160a01b0319166001600160a01b0394851617905591831681526011909152604090208290556010805480610aa757610aa7612085565b600082815260209020810160001990810180546001600160a01b031916905501905550505b6040516364ab867560e01b81523060048201527f00000000000000000000000000000000000000000000000000000000000000006001600160a01b0316906364ab867590602401602060405180830381865afa158015610b30573d6000803e3d6000fd5b505050506040513d601f19601f82011682018060405250810190610b54919061209b565b600e6000828254610b659190612072565b90915550506040516305c2fbcf60e31b8152600481018790527f00000000000000000000000000000000000000000000000000000000000000006001600160a01b031690632e17de7890602401600060405180830381600087803b158015610bcc57600080fd5b505af1158015610be0573d6000803e3d6000fd5b50506004805460405163095ea7b360e01b81523092810192909252602482018a90526001600160a01b0316925063095ea7b391506044016020604051808303816000875af1158015610c36573d6000803e3d6000fd5b505050506040513d601f19601f82011682018060405250810190610c5a9190611ee8565b506004805460405163a9059cbb60e01b81526001600160a01b0388811693820193909352602481018990526000929091169063a9059cbb906044016020604051808303816000875af1158015610cb4573d6000803e3d6000fd5b505050506040513d601f19601f82011682018060405250810190610cd89190611ee8565b905080610cf857604051633c9fd93960e21b815260040160405180910390fd5b60408051888152602081018690526001600160a01b038816917f7fc4727e062e336010f2c282598ef5f14facb3de68cf8195c2f23e1454b2b74e910160405180910390a2818314610d7d5760408051838152602081018590527fd2d659d197cf77652feb866d2a49b71684b0e7b0d92bde0b26163f77e2e25a2d910160405180910390a15b505050505050610d8c60018055565b50565b6001600160a01b0381166000908152601260205260408120600681015460ff16610dbc5750600092915050565b6006546000904211610dce5742610dd2565b6006545b90506000826001015482610de69190612049565b90506000610df382611218565b905080600003610e095750600095945050505050565b6000610e1f8560000154866002015486856118b7565b90508085600301546106b69190612072565b60108181548110610e4157600080fd5b6000918252602090912001546001600160a01b0316905081565b610e63611bec565b336000610e6f82610d8f565b905060008111610eb75760405162461bcd60e51b81526020600482015260136024820152724e6f207265776172647320746f20636c61696d60681b6044820152606401610521565b6003546040516370a0823160e01b815230600482015282916001600160a01b0316906370a0823190602401602060405180830381865afa158015610eff573d6000803e3d6000fd5b505050506040513d601f19601f82011682018060405250810190610f23919061209b565b1015610f715760405162461bcd60e51b815260206004820152601d60248201527f496e73756666696369656e7420636f6e74726163742062616c616e63650000006044820152606401610521565b6001600160a01b0382166000908152601260205260408120600381018290554260029091015560078054839290610fa9908490612049565b909155505060035460405163a9059cbb60e01b81526001600160a01b03848116600483015260248201849052600092169063a9059cbb906044016020604051808303816000875af1158015611002573d6000803e3d6000fd5b505050506040513d601f19601f820116820180604052508101906110269190611ee8565b90508061104657604051633c9fd93960e21b815260040160405180910390fd5b826001600160a01b03167ffc30cddea38e2bf4d6ea7d3f9ed3b6ad7f176419f4963bd81318067a4aee73fe8360405161108191815260200190565b60405180910390a250505061063c60018055565b6000600d546000036110be576110ad6002600a612004565b6110b990610320612010565b905090565b600a80546000916110d190600290612004565b600d546110df906064612010565b6110e99190612010565b6110f39190612027565b90506111016002600a612004565b61110c906064612010565b811061112f5761111e6002600a612004565b611129906032612010565b91505090565b600061113d6002600a612004565b611148906032612010565b6111546002600a612004565b61116090610320612010565b61116a9190612049565b9050600061117a6002600a612004565b611185906064612010565b61118f8484612010565b6111999190612027565b90506000816111aa6002600a612004565b6111b690610320612010565b6111c09190612049565b90506111ce6002600a612004565b6111d9906032612010565b81116111fb576111eb6002600a612004565b6111f6906032612010565b6111fd565b805b94505050505090565b61120e611bbf565b61063c6000611dec565b60006201518082101561122d57506000919050565b600062093a8061123f6002600a612004565b61124c6201518086612049565b611257906032612010565b6112619190612010565b61126b9190612027565b90506112796002600a612004565b611284906032612010565b8111156112a5576112976002600a612004565b6112a2906032612010565b90505b806112b26002600a612004565b6112bd906064612010565b6112c79190612072565b9392505050565b6112d6611bec565b6005544210806112e7575060065442115b1561130557604051635707567760e11b815260040160405180910390fd5b60085433600081815260126020526040902054839290611326908490612072565b111561134557604051632ca1035160e21b815260040160405180910390fd5b60095433600081815260126020526040902054859290611366908490612072565b1015611385576040516350563e4760e01b815260040160405180910390fd5b600033905085600d600082825461139c9190612072565b90915550600090506113ac611095565b600f549091506000906113d6576113c56002600a612004565b6113d190610320612010565b611409565b600f80546113e690600190612049565b815481106113f6576113f661205c565b9060005260206000209060030201600101545b90508082146114c15761141b33611c94565b6040805160608101825242815260208101848152600c54928201928352600f805460018101825560009190915291517f8d1108e10bcb7c27dddfc02ed9d693a074039d026cf4ea4240b40f7d581ac802600390930292830155517f8d1108e10bcb7c27dddfc02ed9d693a074039d026cf4ea4240b40f7d581ac80382015590517f8d1108e10bcb7c27dddfc02ed9d693a074039d026cf4ea4240b40f7d581ac804909101555b6006546000906114d2904290612049565b905060006114e88a838661097b6002600a612004565b600b5490915081111561150e57604051635cdee9e160e11b815260040160405180910390fd5b6001600160a01b03851660009081526012602052604090206006015460ff1661159257601080546001600160a01b0387166000818152601160205260408120839055600183018455929092527f1b6847dc741a1b0cd08d278845f9d819d87b734759afb55fe2de5cb82a9ae6720180546001600160a01b031916909117905561159b565b61159b85611c16565b6040518060e001604052808b815260200142815260200142815260200160126000886001600160a01b03166001600160a01b031681526020019081526020016000206003015481526020018281526020016001600f805490506115fe9190612049565b8152600160209182018190526001600160a01b0388166000908152601283526040808220855181559385015192840192909255908301516002830155606083015160038301556080830151600483015560a0830151600583015560c0909201516006909101805460ff1916911515919091179055600b8054839290611684908490612049565b9091555050600c805482919060009061169e908490612072565b90915550506004546000906001600160a01b03166040516323b872dd60e01b81526001600160a01b038881166004830152306024830152604482018e905291909116906323b872dd906064016020604051808303816000875af1158015611709573d6000803e3d6000fd5b505050506040513d601f19601f8201168201806040525081019061172d9190611ee8565b90508061174d57604051633c9fd93960e21b815260040160405180910390fd5b6004805460405163095ea7b360e01b81526001600160a01b037f0000000000000000000000000000000000000000000000000000000000000000811693820193909352602481018e905291169063095ea7b3906044016020604051808303816000875af11580156117c2573d6000803e3d6000fd5b505050506040513d601f19601f820116820180604052508101906117e69190611ee8565b5060405163534a7e1d60e11b8152600481018c90527f00000000000000000000000000000000000000000000000000000000000000006001600160a01b03169063a694fc3a90602401600060405180830381600087803b15801561184957600080fd5b505af115801561185d573d6000803e3d6000fd5b50505050856001600160a01b03167f9e71bc8eea02a63969f509818f2dafb9254532904319f9dbda79b67bd34a5f3d8c60405161189c91815260200190565b60405180910390a250505050505050505050610d8c60018055565b60008383116118d95760405163536a71af60e01b815260040160405180910390fd5b60006118e58585612049565b905060006118f38686611979565b905060006119036002600a612004565b61190e906064612010565b611918838a612010565b6119229190612027565b905060006301e133806119358584612010565b61193f9190612027565b905061194d6002600a612004565b611958906064612010565b6119628783612010565b61196c9190612027565b9998505050505050505050565b60008183106119bf5760405162461bcd60e51b8152602060048201526012602482015271496e76616c69642074696d652072616e676560701b6044820152606401610521565b600083815b600f54811080156119f9575085600f82815481106119e4576119e461205c565b90600052602060002090600302016000015411155b15611a105780611a08816120b4565b9150506119c4565b60008111611a1f576000611a2a565b611a2a600182612049565b90505b8482108015611a3d5750600f5481105b15611afa57600f54600090611a53836001612072565b10611a5e5785611a96565b611a96600f611a6e846001612072565b81548110611a7e57611a7e61205c565b90600052602060002090600302016000015487611e3c565b90506000611aa48483612049565b905080600f8481548110611aba57611aba61205c565b906000526020600020906003020160010154611ad69190612010565b611ae09086612072565b94508193508280611af0906120b4565b9350505050611a2d565b84821015611b31576000611b0e8387612049565b905080611b19611095565b611b239190612010565b611b2d9085612072565b9350505b611b3b8686612049565b611b459084612027565b93505050505b92915050565b611b59611bbf565b6001600160a01b038116611b8357604051631e4fbdf760e01b815260006004820152602401610521565b610d8c81611dec565b600f8181548110611b9c57600080fd5b600091825260209091206003909102018054600182015460029092015490925083565b6000546001600160a01b0316331461063c5760405163118cdaa760e01b8152336004820152602401610521565b600260015403611c0f57604051633ee5aeb560e01b815260040160405180910390fd5b6002600155565b6001600160a01b03811660009081526012602052604081206001810154909190611c409042612049565b90506000611c4d82611218565b90508015611c8e576000611c6b8460000154856002015442856118b7565b905080846003016000828254611c819190612072565b9091555050426002850155505b50505050565b600c8054600091829055905b601054811015611daa57600060108281548110611cbf57611cbf61205c565b6000918252602090912001546001600160a01b03908116915084168103611ce65750611da2565b6001600160a01b0381166000908152601260205260409020600681015460ff16611d11575050611da2565b6004810154600b8054600090611d28908490612072565b9091555050600654600090611d3e904290612049565b90506000611d4a611095565b8354909150600090611d6490848461097b6002600a612004565b60048501819055600f54909150611d7d90600190612049565b6005850155600c8054829190600090611d97908490612072565b909155505050505050505b600101611ca0565b50600c546040805183815260208101929092527fef854a7a2d485eb111d9f1647cd8d8c8da494e9b6a9b0de8b3d5b6859d1e66d6910160405180910390a15050565b600080546001600160a01b038381166001600160a01b0319831681178455604051919092169283917f8be0079c531659141344cd1fd0a4f28419497f9722a3daafe3b4186f6b6457e09190a35050565b6000818310611e4b57816112c7565b5090919050565b600060208284031215611e6457600080fd5b81356001600160a01b03811681146112c757600080fd5b60008060008060808587031215611e9157600080fd5b5050823594602084013594506040840135936060013592509050565b600060208284031215611ebf57600080fd5b5035919050565b60008060408385031215611ed957600080fd5b50508035926020909101359150565b600060208284031215611efa57600080fd5b815180151581146112c757600080fd5b634e487b7160e01b600052601160045260246000fd5b600181815b80851115611f5b578160001904821115611f4157611f41611f0a565b80851615611f4e57918102915b93841c9390800290611f25565b509250929050565b600082611f7257506001611b4b565b81611f7f57506000611b4b565b8160018114611f955760028114611f9f57611fbb565b6001915050611b4b565b60ff841115611fb057611fb0611f0a565b50506001821b611b4b565b5060208310610133831016604e8410600b8410161715611fde575081810a611b4b565b611fe88383611f20565b8060001904821115611ffc57611ffc611f0a565b029392505050565b60006112c78383611f63565b8082028115828204841417611b4b57611b4b611f0a565b60008261204457634e487b7160e01b600052601260045260246000fd5b500490565b81810381811115611b4b57611b4b611f0a565b634e487b7160e01b600052603260045260246000fd5b80820180821115611b4b57611b4b611f0a565b634e487b7160e01b600052603160045260246000fd5b6000602082840312156120ad57600080fd5b5051919050565b6000600182016120c6576120c6611f0a565b506001019056fea2646970667358221220e486a6c79470beb9934265d01206113026a42f6611a280f169817e114b7c6c2e64736f6c63430008180033a26469706673582212207b9898958dc26483ff7293f364475cb1267cb1a1cb15cd1c0272d7227c7d610b64736f6c63430008180033",
        "linkReferences": {}
    },
    "methodIdentifiers": {
        "createPool(address,address,uint256,uint256,uint256,uint256,uint256,uint256)": "197c0f3d",
        "getBifrostEarningContract()": "a6f1da7d",
        "getPoolAddress(uint256)": "00a5ae21",
        "getPoolCount()": "8eec5d70",
        "isPoolValid(address)": "f6c57861",
        "owner()": "8da5cb5b",
        "pools(uint256)": "ac4afa38",
        "renounceOwnership()": "715018a6",
        "setBifrostEarningContract(address)": "3890f00a",
        "transferOwnership(address)": "f2fde38b"
    },
    "id": 43
}